{
  "contractName": "Oracle",
  "abi": [
    {
      "inputs": [
        {
          "internalType": "contract IUniswapV2Pair",
          "name": "_pair",
          "type": "address"
        },
        {
          "internalType": "uint256",
          "name": "_period",
          "type": "uint256"
        },
        {
          "internalType": "uint256",
          "name": "_startTime",
          "type": "uint256"
        }
      ],
      "stateMutability": "nonpayable",
      "type": "constructor"
    },
    {
      "anonymous": false,
      "inputs": [
        {
          "indexed": true,
          "internalType": "address",
          "name": "previousOperator",
          "type": "address"
        },
        {
          "indexed": true,
          "internalType": "address",
          "name": "newOperator",
          "type": "address"
        }
      ],
      "name": "OperatorTransferred",
      "type": "event"
    },
    {
      "anonymous": false,
      "inputs": [
        {
          "indexed": true,
          "internalType": "address",
          "name": "previousOwner",
          "type": "address"
        },
        {
          "indexed": true,
          "internalType": "address",
          "name": "newOwner",
          "type": "address"
        }
      ],
      "name": "OwnershipTransferred",
      "type": "event"
    },
    {
      "anonymous": false,
      "inputs": [
        {
          "indexed": false,
          "internalType": "uint256",
          "name": "price0CumulativeLast",
          "type": "uint256"
        },
        {
          "indexed": false,
          "internalType": "uint256",
          "name": "price1CumulativeLast",
          "type": "uint256"
        }
      ],
      "name": "Updated",
      "type": "event"
    },
    {
      "inputs": [],
      "name": "blockTimestampLast",
      "outputs": [
        {
          "internalType": "uint32",
          "name": "",
          "type": "uint32"
        }
      ],
      "stateMutability": "view",
      "type": "function"
    },
    {
      "inputs": [],
      "name": "getCurrentEpoch",
      "outputs": [
        {
          "internalType": "uint256",
          "name": "",
          "type": "uint256"
        }
      ],
      "stateMutability": "view",
      "type": "function"
    },
    {
      "inputs": [],
      "name": "getLastEpochTime",
      "outputs": [
        {
          "internalType": "uint256",
          "name": "",
          "type": "uint256"
        }
      ],
      "stateMutability": "view",
      "type": "function"
    },
    {
      "inputs": [],
      "name": "getPeriod",
      "outputs": [
        {
          "internalType": "uint256",
          "name": "",
          "type": "uint256"
        }
      ],
      "stateMutability": "view",
      "type": "function"
    },
    {
      "inputs": [],
      "name": "getStartTime",
      "outputs": [
        {
          "internalType": "uint256",
          "name": "",
          "type": "uint256"
        }
      ],
      "stateMutability": "view",
      "type": "function"
    },
    {
      "inputs": [],
      "name": "isOperator",
      "outputs": [
        {
          "internalType": "bool",
          "name": "",
          "type": "bool"
        }
      ],
      "stateMutability": "view",
      "type": "function"
    },
    {
      "inputs": [],
      "name": "nextEpochPoint",
      "outputs": [
        {
          "internalType": "uint256",
          "name": "",
          "type": "uint256"
        }
      ],
      "stateMutability": "view",
      "type": "function"
    },
    {
      "inputs": [],
      "name": "operator",
      "outputs": [
        {
          "internalType": "address",
          "name": "",
          "type": "address"
        }
      ],
      "stateMutability": "view",
      "type": "function"
    },
    {
      "inputs": [],
      "name": "owner",
      "outputs": [
        {
          "internalType": "address",
          "name": "",
          "type": "address"
        }
      ],
      "stateMutability": "view",
      "type": "function"
    },
    {
      "inputs": [],
      "name": "pair",
      "outputs": [
        {
          "internalType": "contract IUniswapV2Pair",
          "name": "",
          "type": "address"
        }
      ],
      "stateMutability": "view",
      "type": "function"
    },
    {
      "inputs": [],
      "name": "price0Average",
      "outputs": [
        {
          "internalType": "uint224",
          "name": "_x",
          "type": "uint224"
        }
      ],
      "stateMutability": "view",
      "type": "function"
    },
    {
      "inputs": [],
      "name": "price0CumulativeLast",
      "outputs": [
        {
          "internalType": "uint256",
          "name": "",
          "type": "uint256"
        }
      ],
      "stateMutability": "view",
      "type": "function"
    },
    {
      "inputs": [],
      "name": "price1Average",
      "outputs": [
        {
          "internalType": "uint224",
          "name": "_x",
          "type": "uint224"
        }
      ],
      "stateMutability": "view",
      "type": "function"
    },
    {
      "inputs": [],
      "name": "price1CumulativeLast",
      "outputs": [
        {
          "internalType": "uint256",
          "name": "",
          "type": "uint256"
        }
      ],
      "stateMutability": "view",
      "type": "function"
    },
    {
      "inputs": [],
      "name": "renounceOwnership",
      "outputs": [],
      "stateMutability": "nonpayable",
      "type": "function"
    },
    {
      "inputs": [
        {
          "internalType": "uint256",
          "name": "_epoch",
          "type": "uint256"
        }
      ],
      "name": "setEpoch",
      "outputs": [],
      "stateMutability": "nonpayable",
      "type": "function"
    },
    {
      "inputs": [
        {
          "internalType": "uint256",
          "name": "_period",
          "type": "uint256"
        }
      ],
      "name": "setPeriod",
      "outputs": [],
      "stateMutability": "nonpayable",
      "type": "function"
    },
    {
      "inputs": [],
      "name": "token0",
      "outputs": [
        {
          "internalType": "address",
          "name": "",
          "type": "address"
        }
      ],
      "stateMutability": "view",
      "type": "function"
    },
    {
      "inputs": [],
      "name": "token1",
      "outputs": [
        {
          "internalType": "address",
          "name": "",
          "type": "address"
        }
      ],
      "stateMutability": "view",
      "type": "function"
    },
    {
      "inputs": [
        {
          "internalType": "address",
          "name": "newOperator_",
          "type": "address"
        }
      ],
      "name": "transferOperator",
      "outputs": [],
      "stateMutability": "nonpayable",
      "type": "function"
    },
    {
      "inputs": [
        {
          "internalType": "address",
          "name": "newOwner",
          "type": "address"
        }
      ],
      "name": "transferOwnership",
      "outputs": [],
      "stateMutability": "nonpayable",
      "type": "function"
    },
    {
      "inputs": [],
      "name": "update",
      "outputs": [],
      "stateMutability": "nonpayable",
      "type": "function"
    },
    {
      "inputs": [
        {
          "internalType": "address",
          "name": "_token",
          "type": "address"
        },
        {
          "internalType": "uint256",
          "name": "_amountIn",
          "type": "uint256"
        }
      ],
      "name": "consult",
      "outputs": [
        {
          "internalType": "uint144",
          "name": "amountOut",
          "type": "uint144"
        }
      ],
      "stateMutability": "view",
      "type": "function"
    },
    {
      "inputs": [
        {
          "internalType": "address",
          "name": "_token",
          "type": "address"
        },
        {
          "internalType": "uint256",
          "name": "_amountIn",
          "type": "uint256"
        }
      ],
      "name": "twap",
      "outputs": [
        {
          "internalType": "uint144",
          "name": "_amountOut",
          "type": "uint144"
        }
      ],
      "stateMutability": "view",
      "type": "function"
    }
  ],
  "bytecode": "0x60806040523480156200001157600080fd5b50604051620026c6380380620026c6833981810160405260608110156200003757600080fd5b810190808051906020019092919080519060200190929190805190602001909291905050508181600080620000716200071760201b60201c565b9050806000806101000a81548173ffffffffffffffffffffffffffffffffffffffff021916908373ffffffffffffffffffffffffffffffffffffffff1602179055508073ffffffffffffffffffffffffffffffffffffffff16600073ffffffffffffffffffffffffffffffffffffffff167f8be0079c531659141344cd1fd0a4f28419497f9722a3daafe3b4186f6b6457e060405160405180910390a3506200011f6200071760201b60201c565b600160006101000a81548173ffffffffffffffffffffffffffffffffffffffff021916908373ffffffffffffffffffffffffffffffffffffffff160217905550600160009054906101000a900473ffffffffffffffffffffffffffffffffffffffff1673ffffffffffffffffffffffffffffffffffffffff16600073ffffffffffffffffffffffffffffffffffffffff167f74da04524d50c64947f5dd5381ef1a4dca5cba8ed1d816243f9e48aa0b5617ed60405160405180910390a38260028190555081600381905550806005819055506200020f6002546003546200071f60201b620017221790919060201c565b60048190555050505082600860006101000a81548173ffffffffffffffffffffffffffffffffffffffff021916908373ffffffffffffffffffffffffffffffffffffffff160217905550600860009054906101000a900473ffffffffffffffffffffffffffffffffffffffff1673ffffffffffffffffffffffffffffffffffffffff16630dfe16816040518163ffffffff1660e01b815260040160206040518083038186803b158015620002c257600080fd5b505afa158015620002d7573d6000803e3d6000fd5b505050506040513d6020811015620002ee57600080fd5b8101908080519060200190929190505050600660006101000a81548173ffffffffffffffffffffffffffffffffffffffff021916908373ffffffffffffffffffffffffffffffffffffffff160217905550600860009054906101000a900473ffffffffffffffffffffffffffffffffffffffff1673ffffffffffffffffffffffffffffffffffffffff1663d21220a76040518163ffffffff1660e01b815260040160206040518083038186803b158015620003a857600080fd5b505afa158015620003bd573d6000803e3d6000fd5b505050506040513d6020811015620003d457600080fd5b8101908080519060200190929190505050600760006101000a81548173ffffffffffffffffffffffffffffffffffffffff021916908373ffffffffffffffffffffffffffffffffffffffff160217905550600860009054906101000a900473ffffffffffffffffffffffffffffffffffffffff1673ffffffffffffffffffffffffffffffffffffffff16635909c0d56040518163ffffffff1660e01b815260040160206040518083038186803b1580156200048e57600080fd5b505afa158015620004a3573d6000803e3d6000fd5b505050506040513d6020811015620004ba57600080fd5b8101908080519060200190929190505050600981905550600860009054906101000a900473ffffffffffffffffffffffffffffffffffffffff1673ffffffffffffffffffffffffffffffffffffffff16635a3d54936040518163ffffffff1660e01b815260040160206040518083038186803b1580156200053a57600080fd5b505afa1580156200054f573d6000803e3d6000fd5b505050506040513d60208110156200056657600080fd5b8101908080519060200190929190505050600a81905550600080600860009054906101000a900473ffffffffffffffffffffffffffffffffffffffff1673ffffffffffffffffffffffffffffffffffffffff16630902f1ac6040518163ffffffff1660e01b815260040160606040518083038186803b158015620005e957600080fd5b505afa158015620005fe573d6000803e3d6000fd5b505050506040513d60608110156200061557600080fd5b81019080805190602001909291908051906020019092919080519060200190929190505050600860148291906101000a81548163ffffffff021916908363ffffffff1602179055508193508294505050506000826dffffffffffffffffffffffffffff16141580156200069957506000816dffffffffffffffffffffffffffff1614155b6200070c576040517f08c379a00000000000000000000000000000000000000000000000000000000081526004018080602001828103825260138152602001807f4f7261636c653a204e4f5f52455345525645530000000000000000000000000081525060200191505060405180910390fd5b5050505050620007a3565b600033905090565b60008282111562000798576040517f08c379a000000000000000000000000000000000000000000000000000000000815260040180806020018281038252601e8152602001807f536166654d6174683a207375627472616374696f6e206f766572666c6f77000081525060200191505060405180910390fd5b818303905092915050565b611f1380620007b36000396000f3fe608060405234801561001057600080fd5b50600436106101985760003560e01c8063715018a6116100e3578063ba5224581161008c578063c828371e11610066578063c828371e1461057d578063d21220a71461059b578063f2fde38b146105cf57610198565b8063ba5224581461051d578063c5700a021461053b578063c5967c261461055f57610198565b8063a6bb4539116100bd578063a6bb45391461048f578063a8aa1b31146104cb578063b97dd9e2146104ff57610198565b8063715018a6146104475780638da5cb5b14610451578063a2e620451461048557610198565b80634456eda2116101455780635a3d54931161011f5780635a3d5493146103775780635e6aaf2c146103955780636808a128146103d157610198565b80634456eda214610305578063570ca735146103255780635909c0d51461035957610198565b80631ed24195116101765780631ed241951461022d57806329605e771461024b5780633ddac9531461028f57610198565b80630ceb2cef1461019d5780630dfe1681146101cb5780630f3a9f65146101ff575b600080fd5b6101c9600480360360208110156101b357600080fd5b8101908080359060200190929190505050610613565b005b6101d36106c3565b604051808273ffffffffffffffffffffffffffffffffffffffff16815260200191505060405180910390f35b61022b6004803603602081101561021557600080fd5b81019080803590602001909291905050506106e9565b005b610235610820565b6040518082815260200191505060405180910390f35b61028d6004803603602081101561026157600080fd5b81019080803573ffffffffffffffffffffffffffffffffffffffff16906020019092919050505061082a565b005b6102db600480360360408110156102a557600080fd5b81019080803573ffffffffffffffffffffffffffffffffffffffff169060200190929190803590602001909291905050506108e5565b604051808271ffffffffffffffffffffffffffffffffffff16815260200191505060405180910390f35b61030d610b3a565b60405180821515815260200191505060405180910390f35b61032d610b99565b604051808273ffffffffffffffffffffffffffffffffffffffff16815260200191505060405180910390f35b610361610bc3565b6040518082815260200191505060405180910390f35b61037f610bc9565b6040518082815260200191505060405180910390f35b61039d610bcf565b60405180827bffffffffffffffffffffffffffffffffffffffffffffffffffffffff16815260200191505060405180910390f35b61041d600480360360408110156103e757600080fd5b81019080803573ffffffffffffffffffffffffffffffffffffffff16906020019092919080359060200190929190505050610c03565b604051808271ffffffffffffffffffffffffffffffffffff16815260200191505060405180910390f35b61044f610dc8565b005b610459610f35565b604051808273ffffffffffffffffffffffffffffffffffffffff16815260200191505060405180910390f35b61048d610f5e565b005b61049761145e565b60405180827bffffffffffffffffffffffffffffffffffffffffffffffffffffffff16815260200191505060405180910390f35b6104d3611492565b604051808273ffffffffffffffffffffffffffffffffffffffff16815260200191505060405180910390f35b6105076114b8565b6040518082815260200191505060405180910390f35b6105256114c2565b6040518082815260200191505060405180910390f35b6105436114cc565b604051808263ffffffff16815260200191505060405180910390f35b6105676114e2565b6040518082815260200191505060405180910390f35b610585611500565b6040518082815260200191505060405180910390f35b6105a361150a565b604051808273ffffffffffffffffffffffffffffffffffffffff16815260200191505060405180910390f35b610611600480360360208110156105e557600080fd5b81019080803573ffffffffffffffffffffffffffffffffffffffff169060200190929190505050611530565b005b3373ffffffffffffffffffffffffffffffffffffffff16600160009054906101000a900473ffffffffffffffffffffffffffffffffffffffff1673ffffffffffffffffffffffffffffffffffffffff16146106b9576040517f08c379a0000000000000000000000000000000000000000000000000000000008152600401808060200182810382526024815260200180611e976024913960400191505060405180910390fd5b8060058190555050565b600660009054906101000a900473ffffffffffffffffffffffffffffffffffffffff1681565b3373ffffffffffffffffffffffffffffffffffffffff16600160009054906101000a900473ffffffffffffffffffffffffffffffffffffffff1673ffffffffffffffffffffffffffffffffffffffff161461078f576040517f08c379a0000000000000000000000000000000000000000000000000000000008152600401808060200182810382526024815260200180611e976024913960400191505060405180910390fd5b610e1081101580156107a457506202a3008111155b610816576040517f08c379a00000000000000000000000000000000000000000000000000000000081526004018080602001828103825260158152602001807f5f706572696f643a206f7574206f662072616e6765000000000000000000000081525060200191505060405180910390fd5b8060028190555050565b6000600254905090565b6108326117a5565b73ffffffffffffffffffffffffffffffffffffffff16610850610f35565b73ffffffffffffffffffffffffffffffffffffffff16146108d9576040517f08c379a00000000000000000000000000000000000000000000000000000000081526004018080602001828103825260208152602001807f4f776e61626c653a2063616c6c6572206973206e6f7420746865206f776e657281525060200191505060405180910390fd5b6108e2816117ad565b50565b6000600660009054906101000a900473ffffffffffffffffffffffffffffffffffffffff1673ffffffffffffffffffffffffffffffffffffffff168373ffffffffffffffffffffffffffffffffffffffff1614156109d9576109d26109cd83600b6040518060200160405290816000820160009054906101000a90047bffffffffffffffffffffffffffffffffffffffffffffffffffffffff167bffffffffffffffffffffffffffffffffffffffffffffffffffffffff167bffffffffffffffffffffffffffffffffffffffffffffffffffffffff16815250506118d290919063ffffffff16565b6119a8565b9050610b34565b600760009054906101000a900473ffffffffffffffffffffffffffffffffffffffff1673ffffffffffffffffffffffffffffffffffffffff168373ffffffffffffffffffffffffffffffffffffffff1614610a9c576040517f08c379a00000000000000000000000000000000000000000000000000000000081526004018080602001828103825260158152602001807f4f7261636c653a20494e56414c49445f544f4b454e000000000000000000000081525060200191505060405180910390fd5b610b31610b2c83600c6040518060200160405290816000820160009054906101000a90047bffffffffffffffffffffffffffffffffffffffffffffffffffffffff167bffffffffffffffffffffffffffffffffffffffffffffffffffffffff167bffffffffffffffffffffffffffffffffffffffffffffffffffffffff16815250506118d290919063ffffffff16565b6119a8565b90505b92915050565b6000600160009054906101000a900473ffffffffffffffffffffffffffffffffffffffff1673ffffffffffffffffffffffffffffffffffffffff16610b7d6117a5565b73ffffffffffffffffffffffffffffffffffffffff1614905090565b6000600160009054906101000a900473ffffffffffffffffffffffffffffffffffffffff16905090565b60095481565b600a5481565b600c8060000160009054906101000a90047bffffffffffffffffffffffffffffffffffffffffffffffffffffffff16905081565b600080600080610c34600860009054906101000a900473ffffffffffffffffffffffffffffffffffffffff166119bd565b9250925092506000600860149054906101000a900463ffffffff1682039050600660009054906101000a900473ffffffffffffffffffffffffffffffffffffffff1673ffffffffffffffffffffffffffffffffffffffff168773ffffffffffffffffffffffffffffffffffffffff161415610d0a57610d03610cfe8760405180602001604052808563ffffffff166009548a0381610cce57fe5b047bffffffffffffffffffffffffffffffffffffffffffffffffffffffff168152506118d290919063ffffffff16565b6119a8565b9450610dbe565b600760009054906101000a900473ffffffffffffffffffffffffffffffffffffffff1673ffffffffffffffffffffffffffffffffffffffff168773ffffffffffffffffffffffffffffffffffffffff161415610dbd57610dba610db58760405180602001604052808563ffffffff16600a54890381610d8557fe5b047bffffffffffffffffffffffffffffffffffffffffffffffffffffffff168152506118d290919063ffffffff16565b6119a8565b94505b5b5050505092915050565b610dd06117a5565b73ffffffffffffffffffffffffffffffffffffffff16610dee610f35565b73ffffffffffffffffffffffffffffffffffffffff1614610e77576040517f08c379a00000000000000000000000000000000000000000000000000000000081526004018080602001828103825260208152602001807f4f776e61626c653a2063616c6c6572206973206e6f7420746865206f776e657281525060200191505060405180910390fd5b600073ffffffffffffffffffffffffffffffffffffffff1660008054906101000a900473ffffffffffffffffffffffffffffffffffffffff1673ffffffffffffffffffffffffffffffffffffffff167f8be0079c531659141344cd1fd0a4f28419497f9722a3daafe3b4186f6b6457e060405160405180910390a360008060006101000a81548173ffffffffffffffffffffffffffffffffffffffff021916908373ffffffffffffffffffffffffffffffffffffffff160217905550565b60008060009054906101000a900473ffffffffffffffffffffffffffffffffffffffff16905090565b6000610f686114e2565b90508042101561121457610f7a610b99565b73ffffffffffffffffffffffffffffffffffffffff163373ffffffffffffffffffffffffffffffffffffffff1614610ffd576040517f08c379a000000000000000000000000000000000000000000000000000000000815260040180806020018281038252602a815260200180611e40602a913960400191505060405180910390fd5b600080600061102d600860009054906101000a900473ffffffffffffffffffffffffffffffffffffffff166119bd565b9250925092506000600860149054906101000a900463ffffffff168203905060008163ffffffff161415611064575050505061120f565b60405180602001604052808263ffffffff1660095487038161108257fe5b047bffffffffffffffffffffffffffffffffffffffffffffffffffffffff16815250600b60008201518160000160006101000a8154817bffffffffffffffffffffffffffffffffffffffffffffffffffffffff02191690837bffffffffffffffffffffffffffffffffffffffffffffffffffffffff16021790555090505060405180602001604052808263ffffffff16600a5486038161111e57fe5b047bffffffffffffffffffffffffffffffffffffffffffffffffffffffff16815250600c60008201518160000160006101000a8154817bffffffffffffffffffffffffffffffffffffffffffffffffffffffff02191690837bffffffffffffffffffffffffffffffffffffffffffffffffffffffff1602179055509050508360098190555082600a8190555081600860146101000a81548163ffffffff021916908363ffffffff1602179055507fd78a0cb8bb633d06981248b816e7bd33c2a35a6089241d099fa519e361cab9028484604051808381526020018281526020019250505060405180910390a1505050505b61145b565b6000806000611244600860009054906101000a900473ffffffffffffffffffffffffffffffffffffffff166119bd565b9250925092506000600860149054906101000a900463ffffffff168203905060008163ffffffff16141561127b5750505050611426565b60405180602001604052808263ffffffff1660095487038161129957fe5b047bffffffffffffffffffffffffffffffffffffffffffffffffffffffff16815250600b60008201518160000160006101000a8154817bffffffffffffffffffffffffffffffffffffffffffffffffffffffff02191690837bffffffffffffffffffffffffffffffffffffffffffffffffffffffff16021790555090505060405180602001604052808263ffffffff16600a5486038161133557fe5b047bffffffffffffffffffffffffffffffffffffffffffffffffffffffff16815250600c60008201518160000160006101000a8154817bffffffffffffffffffffffffffffffffffffffffffffffffffffffff02191690837bffffffffffffffffffffffffffffffffffffffffffffffffffffffff1602179055509050508360098190555082600a8190555081600860146101000a81548163ffffffff021916908363ffffffff1602179055507fd78a0cb8bb633d06981248b816e7bd33c2a35a6089241d099fa519e361cab9028484604051808381526020018281526020019250505060405180910390a1505050505b5b80600481905550600560008154600101919050819055506114466114e2565b9050804210156114555761145a565b611427565b5b50565b600b8060000160009054906101000a90047bffffffffffffffffffffffffffffffffffffffffffffffffffffffff16905081565b600860009054906101000a900473ffffffffffffffffffffffffffffffffffffffff1681565b6000600554905090565b6000600454905090565b600860149054906101000a900463ffffffff1681565b60006114fb600254600454611c0890919063ffffffff16565b905090565b6000600354905090565b600760009054906101000a900473ffffffffffffffffffffffffffffffffffffffff1681565b6115386117a5565b73ffffffffffffffffffffffffffffffffffffffff16611556610f35565b73ffffffffffffffffffffffffffffffffffffffff16146115df576040517f08c379a00000000000000000000000000000000000000000000000000000000081526004018080602001828103825260208152602001807f4f776e61626c653a2063616c6c6572206973206e6f7420746865206f776e657281525060200191505060405180910390fd5b600073ffffffffffffffffffffffffffffffffffffffff168173ffffffffffffffffffffffffffffffffffffffff161415611665576040517f08c379a0000000000000000000000000000000000000000000000000000000008152600401808060200182810382526026815260200180611e1a6026913960400191505060405180910390fd5b8073ffffffffffffffffffffffffffffffffffffffff1660008054906101000a900473ffffffffffffffffffffffffffffffffffffffff1673ffffffffffffffffffffffffffffffffffffffff167f8be0079c531659141344cd1fd0a4f28419497f9722a3daafe3b4186f6b6457e060405160405180910390a3806000806101000a81548173ffffffffffffffffffffffffffffffffffffffff021916908373ffffffffffffffffffffffffffffffffffffffff16021790555050565b60008282111561179a576040517f08c379a000000000000000000000000000000000000000000000000000000000815260040180806020018281038252601e8152602001807f536166654d6174683a207375627472616374696f6e206f766572666c6f77000081525060200191505060405180910390fd5b818303905092915050565b600033905090565b600073ffffffffffffffffffffffffffffffffffffffff168173ffffffffffffffffffffffffffffffffffffffff161415611833576040517f08c379a000000000000000000000000000000000000000000000000000000000815260040180806020018281038252602d815260200180611e6a602d913960400191505060405180910390fd5b8073ffffffffffffffffffffffffffffffffffffffff16600073ffffffffffffffffffffffffffffffffffffffff167f74da04524d50c64947f5dd5381ef1a4dca5cba8ed1d816243f9e48aa0b5617ed60405160405180910390a380600160006101000a81548173ffffffffffffffffffffffffffffffffffffffff021916908373ffffffffffffffffffffffffffffffffffffffff16021790555050565b6118da611dd5565b60008083148061193b575083600001517bffffffffffffffffffffffffffffffffffffffffffffffffffffffff16838486600001517bffffffffffffffffffffffffffffffffffffffffffffffffffffffff16029250828161193857fe5b04145b611990576040517f08c379a0000000000000000000000000000000000000000000000000000000008152600401808060200182810382526023815260200180611ebb6023913960400191505060405180910390fd5b60405180602001604052808281525091505092915050565b6000607060ff168260000151901c9050919050565b60008060006119ca611c90565b90508373ffffffffffffffffffffffffffffffffffffffff16635909c0d56040518163ffffffff1660e01b815260040160206040518083038186803b158015611a1257600080fd5b505afa158015611a26573d6000803e3d6000fd5b505050506040513d6020811015611a3c57600080fd5b810190808051906020019092919050505092508373ffffffffffffffffffffffffffffffffffffffff16635a3d54936040518163ffffffff1660e01b815260040160206040518083038186803b158015611a9557600080fd5b505afa158015611aa9573d6000803e3d6000fd5b505050506040513d6020811015611abf57600080fd5b8101908080519060200190929190505050915060008060008673ffffffffffffffffffffffffffffffffffffffff16630902f1ac6040518163ffffffff1660e01b815260040160606040518083038186803b158015611b1d57600080fd5b505afa158015611b31573d6000803e3d6000fd5b505050506040513d6060811015611b4757600080fd5b810190808051906020019092919080519060200190929190805190602001909291905050509250925092508363ffffffff168163ffffffff1614611bfe57600081850390508063ffffffff16611b9d8486611ca6565b600001517bffffffffffffffffffffffffffffffffffffffffffffffffffffffff1602870196508063ffffffff16611bd58585611ca6565b600001517bffffffffffffffffffffffffffffffffffffffffffffffffffffffff160286019550505b5050509193909250565b600080828401905083811015611c86576040517f08c379a000000000000000000000000000000000000000000000000000000000815260040180806020018281038252601b8152602001807f536166654d6174683a206164646974696f6e206f766572666c6f77000000000081525060200191505060405180910390fd5b8091505092915050565b60006401000000004281611ca057fe5b06905090565b611cae611de8565b6000826dffffffffffffffffffffffffffff1611611d34576040517f08c379a00000000000000000000000000000000000000000000000000000000081526004018080602001828103825260178152602001807f4669786564506f696e743a204449565f42595f5a45524f00000000000000000081525060200191505060405180910390fd5b6040518060200160405280836dffffffffffffffffffffffffffff16607060ff16866dffffffffffffffffffffffffffff167bffffffffffffffffffffffffffffffffffffffffffffffffffffffff16901b7bffffffffffffffffffffffffffffffffffffffffffffffffffffffff1681611dab57fe5b047bffffffffffffffffffffffffffffffffffffffffffffffffffffffff16815250905092915050565b6040518060200160405280600081525090565b604051806020016040528060007bffffffffffffffffffffffffffffffffffffffffffffffffffffffff168152509056fe4f776e61626c653a206e6577206f776e657220697320746865207a65726f206164647265737345706f63683a206f6e6c79206f70657261746f7220616c6c6f77656420666f72207072652d65706f63686f70657261746f723a207a65726f206164647265737320676976656e20666f72206e6577206f70657261746f726f70657261746f723a2063616c6c6572206973206e6f7420746865206f70657261746f724669786564506f696e743a204d554c5449504c49434154494f4e5f4f564552464c4f57a264697066735822122093a50a7317e083bc1e51ce020bd3ff218a307ac9e9f121ac1cec47f8ab3ba05a64736f6c634300060c0033",
  "immutableReferences": {},
  "source": "// SPDX-License-Identifier: MIT\r\n\r\npragma solidity 0.6.12;\r\n\r\nimport \"@openzeppelin/contracts/math/SafeMath.sol\";\r\n\r\nimport \"./lib/Babylonian.sol\";\r\nimport \"./lib/FixedPoint.sol\";\r\nimport \"./lib/UniswapV2OracleLibrary.sol\";\r\nimport \"./utils/Epoch.sol\";\r\nimport \"./interfaces/IUniswapV2Pair.sol\";\r\n\r\n/*\r\n  ______                __       _______\r\n /_  __/___  ____ ___  / /_     / ____(_)___  ____ _____  ________\r\n  / / / __ \\/ __ `__ \\/ __ \\   / /_  / / __ \\/ __ `/ __ \\/ ___/ _ \\\r\n / / / /_/ / / / / / / /_/ /  / __/ / / / / / /_/ / / / / /__/  __/\r\n/_/  \\____/_/ /_/ /_/_.___/  /_/   /_/_/ /_/\\__,_/_/ /_/\\___/\\___/\r\n\r\n    http://tomb.finance\r\n*/\r\n// fixed window oracle that recomputes the average price for the entire period once every period\r\n// note that the price average is only guaranteed to be over at least 1 period, but may be over a longer period\r\ncontract Oracle is Epoch {\r\n    using FixedPoint for *;\r\n    using SafeMath for uint256;\r\n\r\n    /* ========== STATE VARIABLES ========== */\r\n\r\n    // uniswap\r\n    address public token0;\r\n    address public token1;\r\n    IUniswapV2Pair public pair;\r\n\r\n    // oracle\r\n    uint32 public blockTimestampLast;\r\n    uint256 public price0CumulativeLast;\r\n    uint256 public price1CumulativeLast;\r\n    FixedPoint.uq112x112 public price0Average;\r\n    FixedPoint.uq112x112 public price1Average;\r\n\r\n    /* ========== CONSTRUCTOR ========== */\r\n\r\n    constructor(\r\n        IUniswapV2Pair _pair,\r\n        uint256 _period,\r\n        uint256 _startTime\r\n    ) public Epoch(_period, _startTime, 0) {\r\n        pair = _pair;\r\n        token0 = pair.token0();\r\n        token1 = pair.token1();\r\n        price0CumulativeLast = pair.price0CumulativeLast(); // fetch the current accumulated price value (1 / 0)\r\n        price1CumulativeLast = pair.price1CumulativeLast(); // fetch the current accumulated price value (0 / 1)\r\n        uint112 reserve0;\r\n        uint112 reserve1;\r\n        (reserve0, reserve1, blockTimestampLast) = pair.getReserves();\r\n        require(reserve0 != 0 && reserve1 != 0, \"Oracle: NO_RESERVES\"); // ensure that there's liquidity in the pair\r\n    }\r\n\r\n    /* ========== MUTABLE FUNCTIONS ========== */\r\n\r\n    /** @dev Updates 1-day EMA price from Uniswap.  */\r\n    function update() external checkEpoch {\r\n        (uint256 price0Cumulative, uint256 price1Cumulative, uint32 blockTimestamp) = UniswapV2OracleLibrary.currentCumulativePrices(address(pair));\r\n        uint32 timeElapsed = blockTimestamp - blockTimestampLast; // overflow is desired\r\n\r\n        if (timeElapsed == 0) {\r\n            // prevent divided by zero\r\n            return;\r\n        }\r\n\r\n        // overflow is desired, casting never truncates\r\n        // cumulative price is in (uq112x112 price * seconds) units so we simply wrap it after division by time elapsed\r\n        price0Average = FixedPoint.uq112x112(uint224((price0Cumulative - price0CumulativeLast) / timeElapsed));\r\n        price1Average = FixedPoint.uq112x112(uint224((price1Cumulative - price1CumulativeLast) / timeElapsed));\r\n\r\n        price0CumulativeLast = price0Cumulative;\r\n        price1CumulativeLast = price1Cumulative;\r\n        blockTimestampLast = blockTimestamp;\r\n\r\n        emit Updated(price0Cumulative, price1Cumulative);\r\n    }\r\n\r\n    // note this will always return 0 before update has been called successfully for the first time.\r\n    function consult(address _token, uint256 _amountIn) external view returns (uint144 amountOut) {\r\n        if (_token == token0) {\r\n            amountOut = price0Average.mul(_amountIn).decode144();\r\n        } else {\r\n            require(_token == token1, \"Oracle: INVALID_TOKEN\");\r\n            amountOut = price1Average.mul(_amountIn).decode144();\r\n        }\r\n    }\r\n\r\n    function twap(address _token, uint256 _amountIn) external view returns (uint144 _amountOut) {\r\n        (uint256 price0Cumulative, uint256 price1Cumulative, uint32 blockTimestamp) = UniswapV2OracleLibrary.currentCumulativePrices(address(pair));\r\n        uint32 timeElapsed = blockTimestamp - blockTimestampLast; // overflow is desired\r\n        if (_token == token0) {\r\n            _amountOut = FixedPoint.uq112x112(uint224((price0Cumulative - price0CumulativeLast) / timeElapsed)).mul(_amountIn).decode144();\r\n        } else if (_token == token1) {\r\n            _amountOut = FixedPoint.uq112x112(uint224((price1Cumulative - price1CumulativeLast) / timeElapsed)).mul(_amountIn).decode144();\r\n        }\r\n    }\r\n\r\n    event Updated(uint256 price0CumulativeLast, uint256 price1CumulativeLast);\r\n}",
  "sourcePath": "C:\\Users\\kiera\\Desktop\\New folder\\TombFork\\contracts\\Oracle.sol",
  "compiler": {
    "name": "solc",
    "version": "0.6.12+commit.27d51765.Emscripten.clang"
  },
  "schemaVersion": "3.4.3",
  "updatedAt": "2022-04-09T15:50:38.814Z",
  "devdoc": {
    "kind": "dev",
    "methods": {
      "owner()": {
        "details": "Returns the address of the current owner."
      },
      "renounceOwnership()": {
        "details": "Leaves the contract without owner. It will not be possible to call `onlyOwner` functions anymore. Can only be called by the current owner. NOTE: Renouncing ownership will leave the contract without an owner, thereby removing any functionality that is only available to the owner."
      },
      "transferOwnership(address)": {
        "details": "Transfers ownership of the contract to a new account (`newOwner`). Can only be called by the current owner."
      },
      "update()": {
        "details": "Updates 1-day EMA price from Uniswap.  "
      }
    },
    "version": 1
  },
  "userdoc": {
    "kind": "user",
    "methods": {},
    "version": 1
  }
}