{
  "contractName": "TaxOfficeV2",
  "abi": [
    {
      "anonymous": false,
      "inputs": [
        {
          "indexed": true,
          "internalType": "address",
          "name": "previousOperator",
          "type": "address"
        },
        {
          "indexed": true,
          "internalType": "address",
          "name": "newOperator",
          "type": "address"
        }
      ],
      "name": "OperatorTransferred",
      "type": "event"
    },
    {
      "anonymous": false,
      "inputs": [
        {
          "indexed": true,
          "internalType": "address",
          "name": "previousOwner",
          "type": "address"
        },
        {
          "indexed": true,
          "internalType": "address",
          "name": "newOwner",
          "type": "address"
        }
      ],
      "name": "OwnershipTransferred",
      "type": "event"
    },
    {
      "inputs": [],
      "name": "isOperator",
      "outputs": [
        {
          "internalType": "bool",
          "name": "",
          "type": "bool"
        }
      ],
      "stateMutability": "view",
      "type": "function"
    },
    {
      "inputs": [],
      "name": "operator",
      "outputs": [
        {
          "internalType": "address",
          "name": "",
          "type": "address"
        }
      ],
      "stateMutability": "view",
      "type": "function"
    },
    {
      "inputs": [],
      "name": "owner",
      "outputs": [
        {
          "internalType": "address",
          "name": "",
          "type": "address"
        }
      ],
      "stateMutability": "view",
      "type": "function"
    },
    {
      "inputs": [],
      "name": "renounceOwnership",
      "outputs": [],
      "stateMutability": "nonpayable",
      "type": "function"
    },
    {
      "inputs": [
        {
          "internalType": "address",
          "name": "",
          "type": "address"
        }
      ],
      "name": "taxExclusionEnabled",
      "outputs": [
        {
          "internalType": "bool",
          "name": "",
          "type": "bool"
        }
      ],
      "stateMutability": "view",
      "type": "function"
    },
    {
      "inputs": [],
      "name": "tomb",
      "outputs": [
        {
          "internalType": "address",
          "name": "",
          "type": "address"
        }
      ],
      "stateMutability": "view",
      "type": "function"
    },
    {
      "inputs": [
        {
          "internalType": "address",
          "name": "newOperator_",
          "type": "address"
        }
      ],
      "name": "transferOperator",
      "outputs": [],
      "stateMutability": "nonpayable",
      "type": "function"
    },
    {
      "inputs": [
        {
          "internalType": "address",
          "name": "newOwner",
          "type": "address"
        }
      ],
      "name": "transferOwnership",
      "outputs": [],
      "stateMutability": "nonpayable",
      "type": "function"
    },
    {
      "inputs": [],
      "name": "uniRouter",
      "outputs": [
        {
          "internalType": "address",
          "name": "",
          "type": "address"
        }
      ],
      "stateMutability": "view",
      "type": "function"
    },
    {
      "inputs": [],
      "name": "wftm",
      "outputs": [
        {
          "internalType": "address",
          "name": "",
          "type": "address"
        }
      ],
      "stateMutability": "view",
      "type": "function"
    },
    {
      "inputs": [
        {
          "internalType": "uint8",
          "name": "_index",
          "type": "uint8"
        },
        {
          "internalType": "uint256",
          "name": "_value",
          "type": "uint256"
        }
      ],
      "name": "setTaxTiersTwap",
      "outputs": [
        {
          "internalType": "bool",
          "name": "",
          "type": "bool"
        }
      ],
      "stateMutability": "nonpayable",
      "type": "function"
    },
    {
      "inputs": [
        {
          "internalType": "uint8",
          "name": "_index",
          "type": "uint8"
        },
        {
          "internalType": "uint256",
          "name": "_value",
          "type": "uint256"
        }
      ],
      "name": "setTaxTiersRate",
      "outputs": [
        {
          "internalType": "bool",
          "name": "",
          "type": "bool"
        }
      ],
      "stateMutability": "nonpayable",
      "type": "function"
    },
    {
      "inputs": [],
      "name": "enableAutoCalculateTax",
      "outputs": [],
      "stateMutability": "nonpayable",
      "type": "function"
    },
    {
      "inputs": [],
      "name": "disableAutoCalculateTax",
      "outputs": [],
      "stateMutability": "nonpayable",
      "type": "function"
    },
    {
      "inputs": [
        {
          "internalType": "uint256",
          "name": "_taxRate",
          "type": "uint256"
        }
      ],
      "name": "setTaxRate",
      "outputs": [],
      "stateMutability": "nonpayable",
      "type": "function"
    },
    {
      "inputs": [
        {
          "internalType": "uint256",
          "name": "_burnThreshold",
          "type": "uint256"
        }
      ],
      "name": "setBurnThreshold",
      "outputs": [],
      "stateMutability": "nonpayable",
      "type": "function"
    },
    {
      "inputs": [
        {
          "internalType": "address",
          "name": "_taxCollectorAddress",
          "type": "address"
        }
      ],
      "name": "setTaxCollectorAddress",
      "outputs": [],
      "stateMutability": "nonpayable",
      "type": "function"
    },
    {
      "inputs": [
        {
          "internalType": "address",
          "name": "_address",
          "type": "address"
        }
      ],
      "name": "excludeAddressFromTax",
      "outputs": [
        {
          "internalType": "bool",
          "name": "",
          "type": "bool"
        }
      ],
      "stateMutability": "nonpayable",
      "type": "function"
    },
    {
      "inputs": [
        {
          "internalType": "address",
          "name": "_address",
          "type": "address"
        }
      ],
      "name": "includeAddressInTax",
      "outputs": [
        {
          "internalType": "bool",
          "name": "",
          "type": "bool"
        }
      ],
      "stateMutability": "nonpayable",
      "type": "function"
    },
    {
      "inputs": [],
      "name": "taxRate",
      "outputs": [
        {
          "internalType": "uint256",
          "name": "",
          "type": "uint256"
        }
      ],
      "stateMutability": "view",
      "type": "function"
    },
    {
      "inputs": [
        {
          "internalType": "address",
          "name": "token",
          "type": "address"
        },
        {
          "internalType": "uint256",
          "name": "amtTomb",
          "type": "uint256"
        },
        {
          "internalType": "uint256",
          "name": "amtToken",
          "type": "uint256"
        },
        {
          "internalType": "uint256",
          "name": "amtTombMin",
          "type": "uint256"
        },
        {
          "internalType": "uint256",
          "name": "amtTokenMin",
          "type": "uint256"
        }
      ],
      "name": "addLiquidityTaxFree",
      "outputs": [
        {
          "internalType": "uint256",
          "name": "",
          "type": "uint256"
        },
        {
          "internalType": "uint256",
          "name": "",
          "type": "uint256"
        },
        {
          "internalType": "uint256",
          "name": "",
          "type": "uint256"
        }
      ],
      "stateMutability": "nonpayable",
      "type": "function"
    },
    {
      "inputs": [
        {
          "internalType": "uint256",
          "name": "amtTomb",
          "type": "uint256"
        },
        {
          "internalType": "uint256",
          "name": "amtTombMin",
          "type": "uint256"
        },
        {
          "internalType": "uint256",
          "name": "amtFtmMin",
          "type": "uint256"
        }
      ],
      "name": "addLiquidityETHTaxFree",
      "outputs": [
        {
          "internalType": "uint256",
          "name": "",
          "type": "uint256"
        },
        {
          "internalType": "uint256",
          "name": "",
          "type": "uint256"
        },
        {
          "internalType": "uint256",
          "name": "",
          "type": "uint256"
        }
      ],
      "stateMutability": "payable",
      "type": "function"
    },
    {
      "inputs": [
        {
          "internalType": "address",
          "name": "_tombOracle",
          "type": "address"
        }
      ],
      "name": "setTaxableTombOracle",
      "outputs": [],
      "stateMutability": "nonpayable",
      "type": "function"
    },
    {
      "inputs": [
        {
          "internalType": "address",
          "name": "_newTaxOffice",
          "type": "address"
        }
      ],
      "name": "transferTaxOffice",
      "outputs": [],
      "stateMutability": "nonpayable",
      "type": "function"
    },
    {
      "inputs": [
        {
          "internalType": "address",
          "name": "_sender",
          "type": "address"
        },
        {
          "internalType": "address",
          "name": "_recipient",
          "type": "address"
        },
        {
          "internalType": "uint256",
          "name": "_amt",
          "type": "uint256"
        }
      ],
      "name": "taxFreeTransferFrom",
      "outputs": [],
      "stateMutability": "nonpayable",
      "type": "function"
    },
    {
      "inputs": [
        {
          "internalType": "address",
          "name": "_address",
          "type": "address"
        },
        {
          "internalType": "bool",
          "name": "_excluded",
          "type": "bool"
        }
      ],
      "name": "setTaxExclusionForAddress",
      "outputs": [],
      "stateMutability": "nonpayable",
      "type": "function"
    }
  ],
  "bytecode": "0x6080604052736c021ae822bea943b2e66552bde1d2696a53fbb7600260006101000a81548173ffffffffffffffffffffffffffffffffffffffff021916908373ffffffffffffffffffffffffffffffffffffffff1602179055507321be370d5312f44cb42ce377bc9b8a0cef1a4c83600360006101000a81548173ffffffffffffffffffffffffffffffffffffffff021916908373ffffffffffffffffffffffffffffffffffffffff16021790555073f491e7b69e4244ad4002bc14e878a34207e38c29600460006101000a81548173ffffffffffffffffffffffffffffffffffffffff021916908373ffffffffffffffffffffffffffffffffffffffff1602179055503480156200011057600080fd5b506000620001236200029460201b60201c565b9050806000806101000a81548173ffffffffffffffffffffffffffffffffffffffff021916908373ffffffffffffffffffffffffffffffffffffffff1602179055508073ffffffffffffffffffffffffffffffffffffffff16600073ffffffffffffffffffffffffffffffffffffffff167f8be0079c531659141344cd1fd0a4f28419497f9722a3daafe3b4186f6b6457e060405160405180910390a350620001d16200029460201b60201c565b600160006101000a81548173ffffffffffffffffffffffffffffffffffffffff021916908373ffffffffffffffffffffffffffffffffffffffff160217905550600160009054906101000a900473ffffffffffffffffffffffffffffffffffffffff1673ffffffffffffffffffffffffffffffffffffffff16600073ffffffffffffffffffffffffffffffffffffffff167f74da04524d50c64947f5dd5381ef1a4dca5cba8ed1d816243f9e48aa0b5617ed60405160405180910390a36200029c565b600033905090565b6130ba80620002ac6000396000f3fe6080604052600436106101a15760003560e01c80639d6b5f21116100e1578063d1d31a371161008a578063f1efacf911610064578063f1efacf914610817578063f2fde38b146108b2578063f4f45b4614610903578063ff87fc7c14610944576101a1565b8063d1d31a37146106fa578063e1d8752e1461074b578063e69abb7e146107c6576101a1565b8063be94f86b116100bb578063be94f86b14610617578063c040f23a1461067e578063c6d69a30146106bf576101a1565b80639d6b5f211461053d578063a0e47bf614610578578063b87c5a4a146105b9576101a1565b806366206ce91161014e57806373baccc01161012857806373baccc014610410578063771a3a1d146104745780637fcd79c71461049f5780638da5cb5b146104fc576101a1565b806366206ce91461034a57806369356d47146103a8578063715018a6146103f9576101a1565b80634456eda21161017f5780634456eda2146102c5578063570ca735146102f257806365bbacd914610333576101a1565b806313762bdc146101a657806319db099d1461020d57806329605e7714610274575b600080fd5b3480156101b257600080fd5b506101f5600480360360208110156101c957600080fd5b81019080803573ffffffffffffffffffffffffffffffffffffffff16906020019092919050505061095b565b60405180821515815260200191505060405180910390f35b34801561021957600080fd5b5061025c6004803603602081101561023057600080fd5b81019080803573ffffffffffffffffffffffffffffffffffffffff16906020019092919050505061097b565b60405180821515815260200191505060405180910390f35b34801561028057600080fd5b506102c36004803603602081101561029757600080fd5b81019080803573ffffffffffffffffffffffffffffffffffffffff169060200190929190505050610a33565b005b3480156102d157600080fd5b506102da610aee565b60405180821515815260200191505060405180910390f35b3480156102fe57600080fd5b50610307610b4d565b604051808273ffffffffffffffffffffffffffffffffffffffff16815260200191505060405180910390f35b34801561033f57600080fd5b50610348610b77565b005b34801561035657600080fd5b506103906004803603604081101561036d57600080fd5b81019080803560ff16906020019092919080359060200190929190505050610ca1565b60405180821515815260200191505060405180910390f35b3480156103b457600080fd5b506103f7600480360360208110156103cb57600080fd5b81019080803573ffffffffffffffffffffffffffffffffffffffff169060200190929190505050610e0c565b005b34801561040557600080fd5b5061040e610f58565b005b6104506004803603606081101561042657600080fd5b810190808035906020019092919080359060200190929190803590602001909291905050506110c5565b60405180848152602001838152602001828152602001935050505060405180910390f35b34801561048057600080fd5b506104896114fa565b6040518082815260200191505060405180910390f35b3480156104ab57600080fd5b506104fa600480360360408110156104c257600080fd5b81019080803573ffffffffffffffffffffffffffffffffffffffff1690602001909291908035151590602001909291905050506115a4565b005b34801561050857600080fd5b506105116116a5565b604051808273ffffffffffffffffffffffffffffffffffffffff16815260200191505060405180910390f35b34801561054957600080fd5b506105766004803603602081101561056057600080fd5b81019080803590602001909291905050506116ce565b005b34801561058457600080fd5b5061058d611804565b604051808273ffffffffffffffffffffffffffffffffffffffff16815260200191505060405180910390f35b3480156105c557600080fd5b506105ff600480360360408110156105dc57600080fd5b81019080803560ff1690602001909291908035906020019092919050505061182a565b60405180821515815260200191505060405180910390f35b34801561062357600080fd5b506106666004803603602081101561063a57600080fd5b81019080803573ffffffffffffffffffffffffffffffffffffffff169060200190929190505050611995565b60405180821515815260200191505060405180910390f35b34801561068a57600080fd5b50610693611a4d565b604051808273ffffffffffffffffffffffffffffffffffffffff16815260200191505060405180910390f35b3480156106cb57600080fd5b506106f8600480360360208110156106e257600080fd5b8101908080359060200190929190505050611a73565b005b34801561070657600080fd5b506107496004803603602081101561071d57600080fd5b81019080803573ffffffffffffffffffffffffffffffffffffffff169060200190929190505050611ba9565b005b34801561075757600080fd5b506107c46004803603606081101561076e57600080fd5b81019080803573ffffffffffffffffffffffffffffffffffffffff169060200190929190803573ffffffffffffffffffffffffffffffffffffffff16906020019092919080359060200190929190505050611cf5565b005b3480156107d257600080fd5b50610815600480360360208110156107e957600080fd5b81019080803573ffffffffffffffffffffffffffffffffffffffff169060200190929190505050611e9d565b005b34801561082357600080fd5b5061088e600480360360a081101561083a57600080fd5b81019080803573ffffffffffffffffffffffffffffffffffffffff16906020019092919080359060200190929190803590602001909291908035906020019092919080359060200190929190505050611fe9565b60405180848152602001838152602001828152602001935050505060405180910390f35b3480156108be57600080fd5b50610901600480360360208110156108d557600080fd5b81019080803573ffffffffffffffffffffffffffffffffffffffff169060200190929190505050612617565b005b34801561090f57600080fd5b50610918612809565b604051808273ffffffffffffffffffffffffffffffffffffffff16815260200191505060405180910390f35b34801561095057600080fd5b5061095961282f565b005b60056020528060005260406000206000915054906101000a900460ff1681565b60003373ffffffffffffffffffffffffffffffffffffffff16600160009054906101000a900473ffffffffffffffffffffffffffffffffffffffff1673ffffffffffffffffffffffffffffffffffffffff1614610a23576040517f08c379a00000000000000000000000000000000000000000000000000000000081526004018080602001828103825260248152602001806130616024913960400191505060405180910390fd5b610a2c82612959565b9050919050565b610a3b612af9565b73ffffffffffffffffffffffffffffffffffffffff16610a596116a5565b73ffffffffffffffffffffffffffffffffffffffff1614610ae2576040517f08c379a00000000000000000000000000000000000000000000000000000000081526004018080602001828103825260208152602001807f4f776e61626c653a2063616c6c6572206973206e6f7420746865206f776e657281525060200191505060405180910390fd5b610aeb81612b01565b50565b6000600160009054906101000a900473ffffffffffffffffffffffffffffffffffffffff1673ffffffffffffffffffffffffffffffffffffffff16610b31612af9565b73ffffffffffffffffffffffffffffffffffffffff1614905090565b6000600160009054906101000a900473ffffffffffffffffffffffffffffffffffffffff16905090565b3373ffffffffffffffffffffffffffffffffffffffff16600160009054906101000a900473ffffffffffffffffffffffffffffffffffffffff1673ffffffffffffffffffffffffffffffffffffffff1614610c1d576040517f08c379a00000000000000000000000000000000000000000000000000000000081526004018080602001828103825260248152602001806130616024913960400191505060405180910390fd5b600260009054906101000a900473ffffffffffffffffffffffffffffffffffffffff1673ffffffffffffffffffffffffffffffffffffffff166365bbacd96040518163ffffffff1660e01b8152600401600060405180830381600087803b158015610c8757600080fd5b505af1158015610c9b573d6000803e3d6000fd5b50505050565b60003373ffffffffffffffffffffffffffffffffffffffff16600160009054906101000a900473ffffffffffffffffffffffffffffffffffffffff1673ffffffffffffffffffffffffffffffffffffffff1614610d49576040517f08c379a00000000000000000000000000000000000000000000000000000000081526004018080602001828103825260248152602001806130616024913960400191505060405180910390fd5b600260009054906101000a900473ffffffffffffffffffffffffffffffffffffffff1673ffffffffffffffffffffffffffffffffffffffff166366206ce984846040518363ffffffff1660e01b8152600401808360ff16815260200182815260200192505050602060405180830381600087803b158015610dc957600080fd5b505af1158015610ddd573d6000803e3d6000fd5b505050506040513d6020811015610df357600080fd5b8101908080519060200190929190505050905092915050565b3373ffffffffffffffffffffffffffffffffffffffff16600160009054906101000a900473ffffffffffffffffffffffffffffffffffffffff1673ffffffffffffffffffffffffffffffffffffffff1614610eb2576040517f08c379a00000000000000000000000000000000000000000000000000000000081526004018080602001828103825260248152602001806130616024913960400191505060405180910390fd5b600260009054906101000a900473ffffffffffffffffffffffffffffffffffffffff1673ffffffffffffffffffffffffffffffffffffffff166369356d47826040518263ffffffff1660e01b8152600401808273ffffffffffffffffffffffffffffffffffffffff168152602001915050600060405180830381600087803b158015610f3d57600080fd5b505af1158015610f51573d6000803e3d6000fd5b5050505050565b610f60612af9565b73ffffffffffffffffffffffffffffffffffffffff16610f7e6116a5565b73ffffffffffffffffffffffffffffffffffffffff1614611007576040517f08c379a00000000000000000000000000000000000000000000000000000000081526004018080602001828103825260208152602001807f4f776e61626c653a2063616c6c6572206973206e6f7420746865206f776e657281525060200191505060405180910390fd5b600073ffffffffffffffffffffffffffffffffffffffff1660008054906101000a900473ffffffffffffffffffffffffffffffffffffffff1673ffffffffffffffffffffffffffffffffffffffff167f8be0079c531659141344cd1fd0a4f28419497f9722a3daafe3b4186f6b6457e060405160405180910390a360008060006101000a81548173ffffffffffffffffffffffffffffffffffffffff021916908373ffffffffffffffffffffffffffffffffffffffff160217905550565b60008060008086141580156110db575060003414155b61114d576040517f08c379a00000000000000000000000000000000000000000000000000000000081526004018080602001828103825260128152602001807f616d6f756e74732063616e27742062652030000000000000000000000000000081525060200191505060405180910390fd5b61115633612c26565b50600260009054906101000a900473ffffffffffffffffffffffffffffffffffffffff1673ffffffffffffffffffffffffffffffffffffffff166323b872dd3330896040518463ffffffff1660e01b8152600401808473ffffffffffffffffffffffffffffffffffffffff1681526020018373ffffffffffffffffffffffffffffffffffffffff1681526020018281526020019350505050602060405180830381600087803b15801561120857600080fd5b505af115801561121c573d6000803e3d6000fd5b505050506040513d602081101561123257600080fd5b810190808051906020019092919050505050611292600260009054906101000a900473ffffffffffffffffffffffffffffffffffffffff16600460009054906101000a900473ffffffffffffffffffffffffffffffffffffffff16612dc5565b61129b33612959565b506000806000600460009054906101000a900473ffffffffffffffffffffffffffffffffffffffff1673ffffffffffffffffffffffffffffffffffffffff1663f305d71934600260009054906101000a900473ffffffffffffffffffffffffffffffffffffffff168c8c8c33426040518863ffffffff1660e01b8152600401808773ffffffffffffffffffffffffffffffffffffffff1681526020018681526020018581526020018481526020018373ffffffffffffffffffffffffffffffffffffffff16815260200182815260200196505050505050506060604051808303818588803b15801561138c57600080fd5b505af11580156113a0573d6000803e3d6000fd5b50505050506040513d60608110156113b757600080fd5b8101908080519060200190929190805190602001909291908051906020019092919050505080935081945082955050505060006113fd848b612f5f90919063ffffffff16565b11156114e557600260009054906101000a900473ffffffffffffffffffffffffffffffffffffffff1673ffffffffffffffffffffffffffffffffffffffff1663a9059cbb33611455868d612f5f90919063ffffffff16565b6040518363ffffffff1660e01b8152600401808373ffffffffffffffffffffffffffffffffffffffff16815260200182815260200192505050602060405180830381600087803b1580156114a857600080fd5b505af11580156114bc573d6000803e3d6000fd5b505050506040513d60208110156114d257600080fd5b8101908080519060200190929190505050505b82828295509550955050505093509350939050565b6000600260009054906101000a900473ffffffffffffffffffffffffffffffffffffffff1673ffffffffffffffffffffffffffffffffffffffff1663771a3a1d6040518163ffffffff1660e01b815260040160206040518083038186803b15801561156457600080fd5b505afa158015611578573d6000803e3d6000fd5b505050506040513d602081101561158e57600080fd5b8101908080519060200190929190505050905090565b3373ffffffffffffffffffffffffffffffffffffffff16600160009054906101000a900473ffffffffffffffffffffffffffffffffffffffff1673ffffffffffffffffffffffffffffffffffffffff161461164a576040517f08c379a00000000000000000000000000000000000000000000000000000000081526004018080602001828103825260248152602001806130616024913960400191505060405180910390fd5b80600560008473ffffffffffffffffffffffffffffffffffffffff1673ffffffffffffffffffffffffffffffffffffffff16815260200190815260200160002060006101000a81548160ff0219169083151502179055505050565b60008060009054906101000a900473ffffffffffffffffffffffffffffffffffffffff16905090565b3373ffffffffffffffffffffffffffffffffffffffff16600160009054906101000a900473ffffffffffffffffffffffffffffffffffffffff1673ffffffffffffffffffffffffffffffffffffffff1614611774576040517f08c379a00000000000000000000000000000000000000000000000000000000081526004018080602001828103825260248152602001806130616024913960400191505060405180910390fd5b600260009054906101000a900473ffffffffffffffffffffffffffffffffffffffff1673ffffffffffffffffffffffffffffffffffffffff16639d6b5f21826040518263ffffffff1660e01b815260040180828152602001915050600060405180830381600087803b1580156117e957600080fd5b505af11580156117fd573d6000803e3d6000fd5b5050505050565b600460009054906101000a900473ffffffffffffffffffffffffffffffffffffffff1681565b60003373ffffffffffffffffffffffffffffffffffffffff16600160009054906101000a900473ffffffffffffffffffffffffffffffffffffffff1673ffffffffffffffffffffffffffffffffffffffff16146118d2576040517f08c379a00000000000000000000000000000000000000000000000000000000081526004018080602001828103825260248152602001806130616024913960400191505060405180910390fd5b600260009054906101000a900473ffffffffffffffffffffffffffffffffffffffff1673ffffffffffffffffffffffffffffffffffffffff1663b87c5a4a84846040518363ffffffff1660e01b8152600401808360ff16815260200182815260200192505050602060405180830381600087803b15801561195257600080fd5b505af1158015611966573d6000803e3d6000fd5b505050506040513d602081101561197c57600080fd5b8101908080519060200190929190505050905092915050565b60003373ffffffffffffffffffffffffffffffffffffffff16600160009054906101000a900473ffffffffffffffffffffffffffffffffffffffff1673ffffffffffffffffffffffffffffffffffffffff1614611a3d576040517f08c379a00000000000000000000000000000000000000000000000000000000081526004018080602001828103825260248152602001806130616024913960400191505060405180910390fd5b611a4682612c26565b9050919050565b600260009054906101000a900473ffffffffffffffffffffffffffffffffffffffff1681565b3373ffffffffffffffffffffffffffffffffffffffff16600160009054906101000a900473ffffffffffffffffffffffffffffffffffffffff1673ffffffffffffffffffffffffffffffffffffffff1614611b19576040517f08c379a00000000000000000000000000000000000000000000000000000000081526004018080602001828103825260248152602001806130616024913960400191505060405180910390fd5b600260009054906101000a900473ffffffffffffffffffffffffffffffffffffffff1673ffffffffffffffffffffffffffffffffffffffff1663c6d69a30826040518263ffffffff1660e01b815260040180828152602001915050600060405180830381600087803b158015611b8e57600080fd5b505af1158015611ba2573d6000803e3d6000fd5b5050505050565b3373ffffffffffffffffffffffffffffffffffffffff16600160009054906101000a900473ffffffffffffffffffffffffffffffffffffffff1673ffffffffffffffffffffffffffffffffffffffff1614611c4f576040517f08c379a00000000000000000000000000000000000000000000000000000000081526004018080602001828103825260248152602001806130616024913960400191505060405180910390fd5b600260009054906101000a900473ffffffffffffffffffffffffffffffffffffffff1673ffffffffffffffffffffffffffffffffffffffff16633f07d76a826040518263ffffffff1660e01b8152600401808273ffffffffffffffffffffffffffffffffffffffff168152602001915050600060405180830381600087803b158015611cda57600080fd5b505af1158015611cee573d6000803e3d6000fd5b5050505050565b600560003373ffffffffffffffffffffffffffffffffffffffff1673ffffffffffffffffffffffffffffffffffffffff16815260200190815260200160002060009054906101000a900460ff16611d97576040517f08c379a000000000000000000000000000000000000000000000000000000000815260040180806020018281038252602b815260200180613009602b913960400191505060405180910390fd5b611da083612c26565b50600260009054906101000a900473ffffffffffffffffffffffffffffffffffffffff1673ffffffffffffffffffffffffffffffffffffffff166323b872dd8484846040518463ffffffff1660e01b8152600401808473ffffffffffffffffffffffffffffffffffffffff1681526020018373ffffffffffffffffffffffffffffffffffffffff1681526020018281526020019350505050602060405180830381600087803b158015611e5257600080fd5b505af1158015611e66573d6000803e3d6000fd5b505050506040513d6020811015611e7c57600080fd5b810190808051906020019092919050505050611e9783612959565b50505050565b3373ffffffffffffffffffffffffffffffffffffffff16600160009054906101000a900473ffffffffffffffffffffffffffffffffffffffff1673ffffffffffffffffffffffffffffffffffffffff1614611f43576040517f08c379a00000000000000000000000000000000000000000000000000000000081526004018080602001828103825260248152602001806130616024913960400191505060405180910390fd5b600260009054906101000a900473ffffffffffffffffffffffffffffffffffffffff1673ffffffffffffffffffffffffffffffffffffffff166375be5ae1826040518263ffffffff1660e01b8152600401808273ffffffffffffffffffffffffffffffffffffffff168152602001915050600060405180830381600087803b158015611fce57600080fd5b505af1158015611fe2573d6000803e3d6000fd5b5050505050565b6000806000808714158015611fff575060008614155b612071576040517f08c379a00000000000000000000000000000000000000000000000000000000081526004018080602001828103825260128152602001807f616d6f756e74732063616e27742062652030000000000000000000000000000081525060200191505060405180910390fd5b61207a33612c26565b50600260009054906101000a900473ffffffffffffffffffffffffffffffffffffffff1673ffffffffffffffffffffffffffffffffffffffff166323b872dd33308a6040518463ffffffff1660e01b8152600401808473ffffffffffffffffffffffffffffffffffffffff1681526020018373ffffffffffffffffffffffffffffffffffffffff1681526020018281526020019350505050602060405180830381600087803b15801561212c57600080fd5b505af1158015612140573d6000803e3d6000fd5b505050506040513d602081101561215657600080fd5b8101908080519060200190929190505050508773ffffffffffffffffffffffffffffffffffffffff166323b872dd3330896040518463ffffffff1660e01b8152600401808473ffffffffffffffffffffffffffffffffffffffff1681526020018373ffffffffffffffffffffffffffffffffffffffff1681526020018281526020019350505050602060405180830381600087803b1580156121f757600080fd5b505af115801561220b573d6000803e3d6000fd5b505050506040513d602081101561222157600080fd5b810190808051906020019092919050505050612281600260009054906101000a900473ffffffffffffffffffffffffffffffffffffffff16600460009054906101000a900473ffffffffffffffffffffffffffffffffffffffff16612dc5565b6122ad88600460009054906101000a900473ffffffffffffffffffffffffffffffffffffffff16612dc5565b6122b633612959565b506000806000600460009054906101000a900473ffffffffffffffffffffffffffffffffffffffff1673ffffffffffffffffffffffffffffffffffffffff1663e8e33700600260009054906101000a900473ffffffffffffffffffffffffffffffffffffffff168d8d8d8d8d33426040518963ffffffff1660e01b8152600401808973ffffffffffffffffffffffffffffffffffffffff1681526020018873ffffffffffffffffffffffffffffffffffffffff1681526020018781526020018681526020018581526020018481526020018373ffffffffffffffffffffffffffffffffffffffff16815260200182815260200198505050505050505050606060405180830381600087803b1580156123cd57600080fd5b505af11580156123e1573d6000803e3d6000fd5b505050506040513d60608110156123f757600080fd5b81019080805190602001909291908051906020019092919080519060200190929190505050809350819450829550505050600061243d848c612f5f90919063ffffffff16565b111561252557600260009054906101000a900473ffffffffffffffffffffffffffffffffffffffff1673ffffffffffffffffffffffffffffffffffffffff1663a9059cbb33612495868e612f5f90919063ffffffff16565b6040518363ffffffff1660e01b8152600401808373ffffffffffffffffffffffffffffffffffffffff16815260200182815260200192505050602060405180830381600087803b1580156124e857600080fd5b505af11580156124fc573d6000803e3d6000fd5b505050506040513d602081101561251257600080fd5b8101908080519060200190929190505050505b600061253a838b612f5f90919063ffffffff16565b1115612600578a73ffffffffffffffffffffffffffffffffffffffff1663a9059cbb33612570858d612f5f90919063ffffffff16565b6040518363ffffffff1660e01b8152600401808373ffffffffffffffffffffffffffffffffffffffff16815260200182815260200192505050602060405180830381600087803b1580156125c357600080fd5b505af11580156125d7573d6000803e3d6000fd5b505050506040513d60208110156125ed57600080fd5b8101908080519060200190929190505050505b828282955095509550505050955095509592505050565b61261f612af9565b73ffffffffffffffffffffffffffffffffffffffff1661263d6116a5565b73ffffffffffffffffffffffffffffffffffffffff16146126c6576040517f08c379a00000000000000000000000000000000000000000000000000000000081526004018080602001828103825260208152602001807f4f776e61626c653a2063616c6c6572206973206e6f7420746865206f776e657281525060200191505060405180910390fd5b600073ffffffffffffffffffffffffffffffffffffffff168173ffffffffffffffffffffffffffffffffffffffff16141561274c576040517f08c379a0000000000000000000000000000000000000000000000000000000008152600401808060200182810382526026815260200180612fe36026913960400191505060405180910390fd5b8073ffffffffffffffffffffffffffffffffffffffff1660008054906101000a900473ffffffffffffffffffffffffffffffffffffffff1673ffffffffffffffffffffffffffffffffffffffff167f8be0079c531659141344cd1fd0a4f28419497f9722a3daafe3b4186f6b6457e060405160405180910390a3806000806101000a81548173ffffffffffffffffffffffffffffffffffffffff021916908373ffffffffffffffffffffffffffffffffffffffff16021790555050565b600360009054906101000a900473ffffffffffffffffffffffffffffffffffffffff1681565b3373ffffffffffffffffffffffffffffffffffffffff16600160009054906101000a900473ffffffffffffffffffffffffffffffffffffffff1673ffffffffffffffffffffffffffffffffffffffff16146128d5576040517f08c379a00000000000000000000000000000000000000000000000000000000081526004018080602001828103825260248152602001806130616024913960400191505060405180910390fd5b600260009054906101000a900473ffffffffffffffffffffffffffffffffffffffff1673ffffffffffffffffffffffffffffffffffffffff1663ff87fc7c6040518163ffffffff1660e01b8152600401600060405180830381600087803b15801561293f57600080fd5b505af1158015612953573d6000803e3d6000fd5b50505050565b6000600260009054906101000a900473ffffffffffffffffffffffffffffffffffffffff1673ffffffffffffffffffffffffffffffffffffffff1663ebca1bd9836040518263ffffffff1660e01b8152600401808273ffffffffffffffffffffffffffffffffffffffff168152602001915050602060405180830381600087803b1580156129e657600080fd5b505af11580156129fa573d6000803e3d6000fd5b505050506040513d6020811015612a1057600080fd5b810190808051906020019092919050505015612af357600260009054906101000a900473ffffffffffffffffffffffffffffffffffffffff1673ffffffffffffffffffffffffffffffffffffffff166393995d4b836040518263ffffffff1660e01b8152600401808273ffffffffffffffffffffffffffffffffffffffff168152602001915050602060405180830381600087803b158015612ab157600080fd5b505af1158015612ac5573d6000803e3d6000fd5b505050506040513d6020811015612adb57600080fd5b81019080805190602001909291905050509050612af4565b5b919050565b600033905090565b600073ffffffffffffffffffffffffffffffffffffffff168173ffffffffffffffffffffffffffffffffffffffff161415612b87576040517f08c379a000000000000000000000000000000000000000000000000000000000815260040180806020018281038252602d815260200180613034602d913960400191505060405180910390fd5b8073ffffffffffffffffffffffffffffffffffffffff16600073ffffffffffffffffffffffffffffffffffffffff167f74da04524d50c64947f5dd5381ef1a4dca5cba8ed1d816243f9e48aa0b5617ed60405160405180910390a380600160006101000a81548173ffffffffffffffffffffffffffffffffffffffff021916908373ffffffffffffffffffffffffffffffffffffffff16021790555050565b6000600260009054906101000a900473ffffffffffffffffffffffffffffffffffffffff1673ffffffffffffffffffffffffffffffffffffffff1663ebca1bd9836040518263ffffffff1660e01b8152600401808273ffffffffffffffffffffffffffffffffffffffff168152602001915050602060405180830381600087803b158015612cb357600080fd5b505af1158015612cc7573d6000803e3d6000fd5b505050506040513d6020811015612cdd57600080fd5b8101908080519060200190929190505050612dbf57600260009054906101000a900473ffffffffffffffffffffffffffffffffffffffff1673ffffffffffffffffffffffffffffffffffffffff16633758e6ce836040518263ffffffff1660e01b8152600401808273ffffffffffffffffffffffffffffffffffffffff168152602001915050602060405180830381600087803b158015612d7d57600080fd5b505af1158015612d91573d6000803e3d6000fd5b505050506040513d6020811015612da757600080fd5b81019080805190602001909291905050509050612dc0565b5b919050565b60008273ffffffffffffffffffffffffffffffffffffffff1663dd62ed3e30846040518363ffffffff1660e01b8152600401808373ffffffffffffffffffffffffffffffffffffffff1681526020018273ffffffffffffffffffffffffffffffffffffffff1681526020019250505060206040518083038186803b158015612e4c57600080fd5b505afa158015612e60573d6000803e3d6000fd5b505050506040513d6020811015612e7657600080fd5b81019080805190602001909291905050501415612f5b578173ffffffffffffffffffffffffffffffffffffffff1663095ea7b3827fffffffffffffffffffffffffffffffffffffffffffffffffffffffffffffffff6040518363ffffffff1660e01b8152600401808373ffffffffffffffffffffffffffffffffffffffff16815260200182815260200192505050602060405180830381600087803b158015612f1e57600080fd5b505af1158015612f32573d6000803e3d6000fd5b505050506040513d6020811015612f4857600080fd5b8101908080519060200190929190505050505b5050565b600082821115612fd7576040517f08c379a000000000000000000000000000000000000000000000000000000000815260040180806020018281038252601e8152602001807f536166654d6174683a207375627472616374696f6e206f766572666c6f77000081525060200191505060405180910390fd5b81830390509291505056fe4f776e61626c653a206e6577206f776e657220697320746865207a65726f206164647265737341646472657373206e6f7420617070726f76656420666f72207461782066726565207472616e73666572736f70657261746f723a207a65726f206164647265737320676976656e20666f72206e6577206f70657261746f726f70657261746f723a2063616c6c6572206973206e6f7420746865206f70657261746f72a2646970667358221220b2a60825266bf06dab4423e971c2070ae06915535168a530d4001951fd3c025764736f6c634300060c0033",
  "immutableReferences": {},
  "source": "// SPDX-License-Identifier: MIT\r\n\r\npragma solidity 0.6.12;\r\n\r\nimport \"@openzeppelin/contracts/math/SafeMath.sol\";\r\nimport \"./owner/Operator.sol\";\r\nimport \"./interfaces/ITaxable.sol\";\r\nimport \"./interfaces/IUniswapV2Router.sol\";\r\nimport \"./interfaces/IERC20.sol\";\r\n\r\n/*\r\n  ______                __       _______\r\n /_  __/___  ____ ___  / /_     / ____(_)___  ____ _____  ________\r\n  / / / __ \\/ __ `__ \\/ __ \\   / /_  / / __ \\/ __ `/ __ \\/ ___/ _ \\\r\n / / / /_/ / / / / / / /_/ /  / __/ / / / / / /_/ / / / / /__/  __/\r\n/_/  \\____/_/ /_/ /_/_.___/  /_/   /_/_/ /_/\\__,_/_/ /_/\\___/\\___/\r\n\r\n    http://tomb.finance\r\n*/\r\ncontract TaxOfficeV2 is Operator {\r\n    using SafeMath for uint256;\r\n\r\n    address public tomb = address(0x6c021Ae822BEa943b2E66552bDe1D2696a53fbB7);\r\n    address public wftm = address(0x21be370D5312f44cB42ce377BC9b8a0cEF1A4C83);\r\n    address public uniRouter = address(0xF491e7B69E4244ad4002BC14e878a34207E38c29);\r\n\r\n    mapping(address => bool) public taxExclusionEnabled;\r\n\r\n    function setTaxTiersTwap(uint8 _index, uint256 _value) public onlyOperator returns (bool) {\r\n        return ITaxable(tomb).setTaxTiersTwap(_index, _value);\r\n    }\r\n\r\n    function setTaxTiersRate(uint8 _index, uint256 _value) public onlyOperator returns (bool) {\r\n        return ITaxable(tomb).setTaxTiersRate(_index, _value);\r\n    }\r\n\r\n    function enableAutoCalculateTax() public onlyOperator {\r\n        ITaxable(tomb).enableAutoCalculateTax();\r\n    }\r\n\r\n    function disableAutoCalculateTax() public onlyOperator {\r\n        ITaxable(tomb).disableAutoCalculateTax();\r\n    }\r\n\r\n    function setTaxRate(uint256 _taxRate) public onlyOperator {\r\n        ITaxable(tomb).setTaxRate(_taxRate);\r\n    }\r\n\r\n    function setBurnThreshold(uint256 _burnThreshold) public onlyOperator {\r\n        ITaxable(tomb).setBurnThreshold(_burnThreshold);\r\n    }\r\n\r\n    function setTaxCollectorAddress(address _taxCollectorAddress) public onlyOperator {\r\n        ITaxable(tomb).setTaxCollectorAddress(_taxCollectorAddress);\r\n    }\r\n\r\n    function excludeAddressFromTax(address _address) external onlyOperator returns (bool) {\r\n        return _excludeAddressFromTax(_address);\r\n    }\r\n\r\n    function _excludeAddressFromTax(address _address) private returns (bool) {\r\n        if (!ITaxable(tomb).isAddressExcluded(_address)) {\r\n            return ITaxable(tomb).excludeAddress(_address);\r\n        }\r\n    }\r\n\r\n    function includeAddressInTax(address _address) external onlyOperator returns (bool) {\r\n        return _includeAddressInTax(_address);\r\n    }\r\n\r\n    function _includeAddressInTax(address _address) private returns (bool) {\r\n        if (ITaxable(tomb).isAddressExcluded(_address)) {\r\n            return ITaxable(tomb).includeAddress(_address);\r\n        }\r\n    }\r\n\r\n    function taxRate() external view returns (uint256) {\r\n        return ITaxable(tomb).taxRate();\r\n    }\r\n\r\n    function addLiquidityTaxFree(\r\n        address token,\r\n        uint256 amtTomb,\r\n        uint256 amtToken,\r\n        uint256 amtTombMin,\r\n        uint256 amtTokenMin\r\n    )\r\n        external\r\n        returns (\r\n            uint256,\r\n            uint256,\r\n            uint256\r\n        )\r\n    {\r\n        require(amtTomb != 0 && amtToken != 0, \"amounts can't be 0\");\r\n        _excludeAddressFromTax(msg.sender);\r\n\r\n        IERC20(tomb).transferFrom(msg.sender, address(this), amtTomb);\r\n        IERC20(token).transferFrom(msg.sender, address(this), amtToken);\r\n        _approveTokenIfNeeded(tomb, uniRouter);\r\n        _approveTokenIfNeeded(token, uniRouter);\r\n\r\n        _includeAddressInTax(msg.sender);\r\n\r\n        uint256 resultAmtTomb;\r\n        uint256 resultAmtToken;\r\n        uint256 liquidity;\r\n        (resultAmtTomb, resultAmtToken, liquidity) = IUniswapV2Router(uniRouter).addLiquidity(\r\n            tomb,\r\n            token,\r\n            amtTomb,\r\n            amtToken,\r\n            amtTombMin,\r\n            amtTokenMin,\r\n            msg.sender,\r\n            block.timestamp\r\n        );\r\n\r\n        if(amtTomb.sub(resultAmtTomb) > 0) {\r\n            IERC20(tomb).transfer(msg.sender, amtTomb.sub(resultAmtTomb));\r\n        }\r\n        if(amtToken.sub(resultAmtToken) > 0) {\r\n            IERC20(token).transfer(msg.sender, amtToken.sub(resultAmtToken));\r\n        }\r\n        return (resultAmtTomb, resultAmtToken, liquidity);\r\n    }\r\n\r\n    function addLiquidityETHTaxFree(\r\n        uint256 amtTomb,\r\n        uint256 amtTombMin,\r\n        uint256 amtFtmMin\r\n    )\r\n        external\r\n        payable\r\n        returns (\r\n            uint256,\r\n            uint256,\r\n            uint256\r\n        )\r\n    {\r\n        require(amtTomb != 0 && msg.value != 0, \"amounts can't be 0\");\r\n        _excludeAddressFromTax(msg.sender);\r\n\r\n        IERC20(tomb).transferFrom(msg.sender, address(this), amtTomb);\r\n        _approveTokenIfNeeded(tomb, uniRouter);\r\n\r\n        _includeAddressInTax(msg.sender);\r\n\r\n        uint256 resultAmtTomb;\r\n        uint256 resultAmtFtm;\r\n        uint256 liquidity;\r\n        (resultAmtTomb, resultAmtFtm, liquidity) = IUniswapV2Router(uniRouter).addLiquidityETH{value: msg.value}(\r\n            tomb,\r\n            amtTomb,\r\n            amtTombMin,\r\n            amtFtmMin,\r\n            msg.sender,\r\n            block.timestamp\r\n        );\r\n\r\n        if(amtTomb.sub(resultAmtTomb) > 0) {\r\n            IERC20(tomb).transfer(msg.sender, amtTomb.sub(resultAmtTomb));\r\n        }\r\n        return (resultAmtTomb, resultAmtFtm, liquidity);\r\n    }\r\n\r\n    function setTaxableTombOracle(address _tombOracle) external onlyOperator {\r\n        ITaxable(tomb).setTombOracle(_tombOracle);\r\n    }\r\n\r\n    function transferTaxOffice(address _newTaxOffice) external onlyOperator {\r\n        ITaxable(tomb).setTaxOffice(_newTaxOffice);\r\n    }\r\n\r\n    function taxFreeTransferFrom(\r\n        address _sender,\r\n        address _recipient,\r\n        uint256 _amt\r\n    ) external {\r\n        require(taxExclusionEnabled[msg.sender], \"Address not approved for tax free transfers\");\r\n        _excludeAddressFromTax(_sender);\r\n        IERC20(tomb).transferFrom(_sender, _recipient, _amt);\r\n        _includeAddressInTax(_sender);\r\n    }\r\n\r\n    function setTaxExclusionForAddress(address _address, bool _excluded) external onlyOperator {\r\n        taxExclusionEnabled[_address] = _excluded;\r\n    }\r\n\r\n    function _approveTokenIfNeeded(address _token, address _router) private {\r\n        if (IERC20(_token).allowance(address(this), _router) == 0) {\r\n            IERC20(_token).approve(_router, type(uint256).max);\r\n        }\r\n    }\r\n}",
  "sourcePath": "C:\\Users\\kiera\\Desktop\\New folder\\TombFork\\contracts\\TaxOfficeV2.sol",
  "compiler": {
    "name": "solc",
    "version": "0.6.12+commit.27d51765.Emscripten.clang"
  },
  "schemaVersion": "3.4.3",
  "updatedAt": "2022-04-09T16:36:48.242Z",
  "devdoc": {
    "kind": "dev",
    "methods": {
      "owner()": {
        "details": "Returns the address of the current owner."
      },
      "renounceOwnership()": {
        "details": "Leaves the contract without owner. It will not be possible to call `onlyOwner` functions anymore. Can only be called by the current owner. NOTE: Renouncing ownership will leave the contract without an owner, thereby removing any functionality that is only available to the owner."
      },
      "transferOwnership(address)": {
        "details": "Transfers ownership of the contract to a new account (`newOwner`). Can only be called by the current owner."
      }
    },
    "version": 1
  },
  "userdoc": {
    "kind": "user",
    "methods": {},
    "version": 1
  }
}