{
  "contractName": "TombGenesisRewardPool",
  "abi": [
    {
      "inputs": [
        {
          "internalType": "address",
          "name": "_tomb",
          "type": "address"
        },
        {
          "internalType": "address",
          "name": "_shiba",
          "type": "address"
        }
      ],
      "stateMutability": "nonpayable",
      "type": "constructor"
    },
    {
      "anonymous": false,
      "inputs": [
        {
          "indexed": true,
          "internalType": "address",
          "name": "user",
          "type": "address"
        },
        {
          "indexed": true,
          "internalType": "uint256",
          "name": "pid",
          "type": "uint256"
        },
        {
          "indexed": false,
          "internalType": "uint256",
          "name": "amount",
          "type": "uint256"
        }
      ],
      "name": "Deposit",
      "type": "event"
    },
    {
      "anonymous": false,
      "inputs": [
        {
          "indexed": true,
          "internalType": "address",
          "name": "user",
          "type": "address"
        },
        {
          "indexed": true,
          "internalType": "uint256",
          "name": "pid",
          "type": "uint256"
        },
        {
          "indexed": false,
          "internalType": "uint256",
          "name": "amount",
          "type": "uint256"
        }
      ],
      "name": "EmergencyWithdraw",
      "type": "event"
    },
    {
      "anonymous": false,
      "inputs": [
        {
          "indexed": true,
          "internalType": "address",
          "name": "user",
          "type": "address"
        },
        {
          "indexed": false,
          "internalType": "uint256",
          "name": "amount",
          "type": "uint256"
        }
      ],
      "name": "RewardPaid",
      "type": "event"
    },
    {
      "anonymous": false,
      "inputs": [
        {
          "indexed": true,
          "internalType": "address",
          "name": "user",
          "type": "address"
        },
        {
          "indexed": true,
          "internalType": "uint256",
          "name": "pid",
          "type": "uint256"
        },
        {
          "indexed": false,
          "internalType": "uint256",
          "name": "amount",
          "type": "uint256"
        }
      ],
      "name": "Withdraw",
      "type": "event"
    },
    {
      "inputs": [],
      "name": "TOTAL_REWARDS",
      "outputs": [
        {
          "internalType": "uint256",
          "name": "",
          "type": "uint256"
        }
      ],
      "stateMutability": "view",
      "type": "function",
      "constant": true
    },
    {
      "inputs": [],
      "name": "operator",
      "outputs": [
        {
          "internalType": "address",
          "name": "",
          "type": "address"
        }
      ],
      "stateMutability": "view",
      "type": "function",
      "constant": true
    },
    {
      "inputs": [],
      "name": "poolEndTime",
      "outputs": [
        {
          "internalType": "uint256",
          "name": "",
          "type": "uint256"
        }
      ],
      "stateMutability": "view",
      "type": "function",
      "constant": true
    },
    {
      "inputs": [
        {
          "internalType": "uint256",
          "name": "",
          "type": "uint256"
        }
      ],
      "name": "poolInfo",
      "outputs": [
        {
          "internalType": "contract IERC20",
          "name": "token",
          "type": "address"
        },
        {
          "internalType": "uint256",
          "name": "allocPoint",
          "type": "uint256"
        },
        {
          "internalType": "uint256",
          "name": "lastRewardTime",
          "type": "uint256"
        },
        {
          "internalType": "uint256",
          "name": "accTombPerShare",
          "type": "uint256"
        },
        {
          "internalType": "bool",
          "name": "isStarted",
          "type": "bool"
        }
      ],
      "stateMutability": "view",
      "type": "function",
      "constant": true
    },
    {
      "inputs": [],
      "name": "poolStartTime",
      "outputs": [
        {
          "internalType": "uint256",
          "name": "",
          "type": "uint256"
        }
      ],
      "stateMutability": "view",
      "type": "function",
      "constant": true
    },
    {
      "inputs": [],
      "name": "runningTime",
      "outputs": [
        {
          "internalType": "uint256",
          "name": "",
          "type": "uint256"
        }
      ],
      "stateMutability": "view",
      "type": "function",
      "constant": true
    },
    {
      "inputs": [],
      "name": "shiba",
      "outputs": [
        {
          "internalType": "address",
          "name": "",
          "type": "address"
        }
      ],
      "stateMutability": "view",
      "type": "function",
      "constant": true
    },
    {
      "inputs": [],
      "name": "tomb",
      "outputs": [
        {
          "internalType": "contract IERC20",
          "name": "",
          "type": "address"
        }
      ],
      "stateMutability": "view",
      "type": "function",
      "constant": true
    },
    {
      "inputs": [],
      "name": "tombPerSecond",
      "outputs": [
        {
          "internalType": "uint256",
          "name": "",
          "type": "uint256"
        }
      ],
      "stateMutability": "view",
      "type": "function",
      "constant": true
    },
    {
      "inputs": [],
      "name": "totalAllocPoint",
      "outputs": [
        {
          "internalType": "uint256",
          "name": "",
          "type": "uint256"
        }
      ],
      "stateMutability": "view",
      "type": "function",
      "constant": true
    },
    {
      "inputs": [
        {
          "internalType": "uint256",
          "name": "",
          "type": "uint256"
        },
        {
          "internalType": "address",
          "name": "",
          "type": "address"
        }
      ],
      "name": "userInfo",
      "outputs": [
        {
          "internalType": "uint256",
          "name": "amount",
          "type": "uint256"
        },
        {
          "internalType": "uint256",
          "name": "rewardDebt",
          "type": "uint256"
        }
      ],
      "stateMutability": "view",
      "type": "function",
      "constant": true
    },
    {
      "inputs": [
        {
          "internalType": "uint256",
          "name": "_allocPoint",
          "type": "uint256"
        },
        {
          "internalType": "contract IERC20",
          "name": "_token",
          "type": "address"
        },
        {
          "internalType": "bool",
          "name": "_withUpdate",
          "type": "bool"
        },
        {
          "internalType": "uint256",
          "name": "_lastRewardTime",
          "type": "uint256"
        }
      ],
      "name": "add",
      "outputs": [],
      "stateMutability": "nonpayable",
      "type": "function"
    },
    {
      "inputs": [
        {
          "internalType": "uint256",
          "name": "_pid",
          "type": "uint256"
        },
        {
          "internalType": "uint256",
          "name": "_allocPoint",
          "type": "uint256"
        }
      ],
      "name": "set",
      "outputs": [],
      "stateMutability": "nonpayable",
      "type": "function"
    },
    {
      "inputs": [
        {
          "internalType": "uint256",
          "name": "_fromTime",
          "type": "uint256"
        },
        {
          "internalType": "uint256",
          "name": "_toTime",
          "type": "uint256"
        }
      ],
      "name": "getGeneratedReward",
      "outputs": [
        {
          "internalType": "uint256",
          "name": "",
          "type": "uint256"
        }
      ],
      "stateMutability": "view",
      "type": "function",
      "constant": true
    },
    {
      "inputs": [
        {
          "internalType": "uint256",
          "name": "_pid",
          "type": "uint256"
        },
        {
          "internalType": "address",
          "name": "_user",
          "type": "address"
        }
      ],
      "name": "pendingTOMB",
      "outputs": [
        {
          "internalType": "uint256",
          "name": "",
          "type": "uint256"
        }
      ],
      "stateMutability": "view",
      "type": "function",
      "constant": true
    },
    {
      "inputs": [],
      "name": "massUpdatePools",
      "outputs": [],
      "stateMutability": "nonpayable",
      "type": "function"
    },
    {
      "inputs": [
        {
          "internalType": "uint256",
          "name": "_pid",
          "type": "uint256"
        }
      ],
      "name": "updatePool",
      "outputs": [],
      "stateMutability": "nonpayable",
      "type": "function"
    },
    {
      "inputs": [
        {
          "internalType": "uint256",
          "name": "_pid",
          "type": "uint256"
        },
        {
          "internalType": "uint256",
          "name": "_amount",
          "type": "uint256"
        }
      ],
      "name": "deposit",
      "outputs": [],
      "stateMutability": "nonpayable",
      "type": "function"
    },
    {
      "inputs": [
        {
          "internalType": "uint256",
          "name": "_pid",
          "type": "uint256"
        },
        {
          "internalType": "uint256",
          "name": "_amount",
          "type": "uint256"
        }
      ],
      "name": "withdraw",
      "outputs": [],
      "stateMutability": "nonpayable",
      "type": "function"
    },
    {
      "inputs": [
        {
          "internalType": "uint256",
          "name": "_pid",
          "type": "uint256"
        }
      ],
      "name": "emergencyWithdraw",
      "outputs": [],
      "stateMutability": "nonpayable",
      "type": "function"
    },
    {
      "inputs": [
        {
          "internalType": "address",
          "name": "_operator",
          "type": "address"
        }
      ],
      "name": "setOperator",
      "outputs": [],
      "stateMutability": "nonpayable",
      "type": "function"
    },
    {
      "inputs": [
        {
          "internalType": "contract IERC20",
          "name": "_token",
          "type": "address"
        },
        {
          "internalType": "uint256",
          "name": "amount",
          "type": "uint256"
        },
        {
          "internalType": "address",
          "name": "to",
          "type": "address"
        }
      ],
      "name": "governanceRecoverUnsupported",
      "outputs": [],
      "stateMutability": "nonpayable",
      "type": "function"
    }
  ],
  "bytecode": "0x60806040526000600555672a678389c8fdb8006008556201518060095534801561002857600080fd5b506040516127563803806127568339818101604052604081101561004b57600080fd5b810190808051906020019092919080519060200190929190505050600073ffffffffffffffffffffffffffffffffffffffff168273ffffffffffffffffffffffffffffffffffffffff16146100dc5781600160006101000a81548173ffffffffffffffffffffffffffffffffffffffff021916908373ffffffffffffffffffffffffffffffffffffffff1602179055505b600073ffffffffffffffffffffffffffffffffffffffff168173ffffffffffffffffffffffffffffffffffffffff16146101525780600260006101000a81548173ffffffffffffffffffffffffffffffffffffffff021916908373ffffffffffffffffffffffffffffffffffffffff1602179055505b4260068190555060095460065401600781905550336000806101000a81548173ffffffffffffffffffffffffffffffffffffffff021916908373ffffffffffffffffffffffffffffffffffffffff160217905550505061259f806101b76000396000f3fe608060405234801561001057600080fd5b50600436106101825760003560e01c8063630b5ba1116100d857806396805e541161008c578063c040f23a11610066578063c040f23a146105e8578063d76391471461061c578063e2bbb1581461065057610182565b806396805e5414610522578063a2b123a814610586578063b3ab15fb146105a457610182565b806389744bb4116100bd57806389744bb41461043957806393f1a40b1461049b578063943f013d1461050457610182565b8063630b5ba1146104115780636e271dd51461041b57610182565b8063441a3e701161013a57806354575af41161011457806354575af414610351578063570ca735146103bf5780635f96dc11146103f357610182565b8063441a3e70146102bd57806351eb05a6146102f55780635312ea8e1461032357610182565b806317caf6f11161016b57806317caf6f11461021b5780631ab06ee514610239578063231f0c6a1461027157610182565b806309cf6091146101875780631526fe27146101a5575b600080fd5b61018f610688565b6040518082815260200191505060405180910390f35b6101d1600480360360208110156101bb57600080fd5b8101908080359060200190929190505050610696565b604051808673ffffffffffffffffffffffffffffffffffffffff16815260200185815260200184815260200183815260200182151581526020019550505050505060405180910390f35b610223610706565b6040518082815260200191505060405180910390f35b61026f6004803603604081101561024f57600080fd5b81019080803590602001909291908035906020019092919050505061070c565b005b6102a76004803603604081101561028757600080fd5b81019080803590602001909291908035906020019092919050505061082e565b6040518082815260200191505060405180910390f35b6102f3600480360360408110156102d357600080fd5b810190808035906020019092919080359060200190929190505050610941565b005b6103216004803603602081101561030b57600080fd5b8101908080359060200190929190505050610bf9565b005b61034f6004803603602081101561033957600080fd5b8101908080359060200190929190505050610e08565b005b6103bd6004803603606081101561036757600080fd5b81019080803573ffffffffffffffffffffffffffffffffffffffff16906020019092919080359060200190929190803573ffffffffffffffffffffffffffffffffffffffff169060200190929190505050610f3c565b005b6103c76111ec565b604051808273ffffffffffffffffffffffffffffffffffffffff16815260200191505060405180910390f35b6103fb611210565b6040518082815260200191505060405180910390f35b610419611216565b005b610423611243565b6040518082815260200191505060405180910390f35b6104856004803603604081101561044f57600080fd5b8101908080359060200190929190803573ffffffffffffffffffffffffffffffffffffffff169060200190929190505050611249565b6040518082815260200191505060405180910390f35b6104e7600480360360408110156104b157600080fd5b8101908080359060200190929190803573ffffffffffffffffffffffffffffffffffffffff169060200190929190505050611481565b604051808381526020018281526020019250505060405180910390f35b61050c6114b2565b6040518082815260200191505060405180910390f35b6105846004803603608081101561053857600080fd5b8101908080359060200190929190803573ffffffffffffffffffffffffffffffffffffffff169060200190929190803515159060200190929190803590602001909291905050506114b8565b005b61058e6116ef565b6040518082815260200191505060405180910390f35b6105e6600480360360208110156105ba57600080fd5b81019080803573ffffffffffffffffffffffffffffffffffffffff1690602001909291905050506116f5565b005b6105f06117dc565b604051808273ffffffffffffffffffffffffffffffffffffffff16815260200191505060405180910390f35b610624611802565b604051808273ffffffffffffffffffffffffffffffffffffffff16815260200191505060405180910390f35b6106866004803603604081101561066657600080fd5b810190808035906020019092919080359060200190929190505050611828565b005b6902544faa778090e0000081565b600381815481106106a357fe5b90600052602060002090600502016000915090508060000160009054906101000a900473ffffffffffffffffffffffffffffffffffffffff16908060010154908060020154908060030154908060040160009054906101000a900460ff16905085565b60055481565b3373ffffffffffffffffffffffffffffffffffffffff1660008054906101000a900473ffffffffffffffffffffffffffffffffffffffff1673ffffffffffffffffffffffffffffffffffffffff16146107b0576040517f08c379a000000000000000000000000000000000000000000000000000000000815260040180806020018281038252602b81526020018061253f602b913960400191505060405180910390fd5b6107b8611216565b6000600383815481106107c757fe5b906000526020600020906005020190508060040160009054906101000a900460ff1615610820576108198261080b8360010154600554611b3d90919063ffffffff16565b611bc090919063ffffffff16565b6005819055505b818160010181905550505050565b6000818310610840576000905061093b565b60075482106108c657600754831061085b576000905061093b565b60065483116108965761088f600854610881600654600754611b3d90919063ffffffff16565b611c4890919063ffffffff16565b905061093b565b6108bf6008546108b185600754611b3d90919063ffffffff16565b611c4890919063ffffffff16565b905061093b565b60065482116108d8576000905061093b565b60065483116109115761090a6008546108fc60065485611b3d90919063ffffffff16565b611c4890919063ffffffff16565b905061093b565b61093860085461092a8585611b3d90919063ffffffff16565b611c4890919063ffffffff16565b90505b92915050565b600033905060006003848154811061095557fe5b9060005260206000209060050201905060006004600086815260200190815260200160002060008473ffffffffffffffffffffffffffffffffffffffff1673ffffffffffffffffffffffffffffffffffffffff16815260200190815260200160002090508381600001541015610a33576040517f08c379a00000000000000000000000000000000000000000000000000000000081526004018080602001828103825260128152602001807f77697468647261773a206e6f7420676f6f64000000000000000000000000000081525060200191505060405180910390fd5b610a3c85610bf9565b6000610a898260010154610a7b670de0b6b3a7640000610a6d87600301548760000154611c4890919063ffffffff16565b611cce90919063ffffffff16565b611b3d90919063ffffffff16565b90506000811115610aed57610a9e8482611d57565b8373ffffffffffffffffffffffffffffffffffffffff167fe2403640ba68fed3a2f88b7557551d1993f84b99bb10ff833f0cf8db0c5e0486826040518082815260200191505060405180910390a25b6000851115610b6557610b0d858360000154611b3d90919063ffffffff16565b8260000181905550610b6484868560000160009054906101000a900473ffffffffffffffffffffffffffffffffffffffff1673ffffffffffffffffffffffffffffffffffffffff16611ed69092919063ffffffff16565b5b610b9a670de0b6b3a7640000610b8c85600301548560000154611c4890919063ffffffff16565b611cce90919063ffffffff16565b8260010181905550858473ffffffffffffffffffffffffffffffffffffffff167ff279e6a1f5e320cca91135676d9cb6e44ca8a08c0b88342bcdb1144f6511b568876040518082815260200191505060405180910390a3505050505050565b600060038281548110610c0857fe5b9060005260206000209060050201905080600201544211610c295750610e05565b60008160000160009054906101000a900473ffffffffffffffffffffffffffffffffffffffff1673ffffffffffffffffffffffffffffffffffffffff166370a08231306040518263ffffffff1660e01b8152600401808273ffffffffffffffffffffffffffffffffffffffff16815260200191505060206040518083038186803b158015610cb657600080fd5b505afa158015610cca573d6000803e3d6000fd5b505050506040513d6020811015610ce057600080fd5b810190808051906020019092919050505090506000811415610d0c574282600201819055505050610e05565b8160040160009054906101000a900460ff16610d5f5760018260040160006101000a81548160ff021916908315150217905550610d588260010154600554611bc090919063ffffffff16565b6005819055505b60006005541115610df9576000610d7a83600201544261082e565b90506000610da9600554610d9b866001015485611c4890919063ffffffff16565b611cce90919063ffffffff16565b9050610dee610ddb84610dcd670de0b6b3a764000085611c4890919063ffffffff16565b611cce90919063ffffffff16565b8560030154611bc090919063ffffffff16565b846003018190555050505b42826002018190555050505b50565b600060038281548110610e1757fe5b9060005260206000209060050201905060006004600084815260200190815260200160002060003373ffffffffffffffffffffffffffffffffffffffff1673ffffffffffffffffffffffffffffffffffffffff16815260200190815260200160002090506000816000015490506000826000018190555060008260010181905550610ee733828560000160009054906101000a900473ffffffffffffffffffffffffffffffffffffffff1673ffffffffffffffffffffffffffffffffffffffff16611ed69092919063ffffffff16565b833373ffffffffffffffffffffffffffffffffffffffff167fbb757047c2b5f3974fe26b7c10f732e7bce710b0952a71082702781e62ae0595836040518082815260200191505060405180910390a350505050565b3373ffffffffffffffffffffffffffffffffffffffff1660008054906101000a900473ffffffffffffffffffffffffffffffffffffffff1673ffffffffffffffffffffffffffffffffffffffff1614610fe0576040517f08c379a000000000000000000000000000000000000000000000000000000000815260040180806020018281038252602b81526020018061253f602b913960400191505060405180910390fd5b6276a700600754014210156111bc57600160009054906101000a900473ffffffffffffffffffffffffffffffffffffffff1673ffffffffffffffffffffffffffffffffffffffff168373ffffffffffffffffffffffffffffffffffffffff1614156110b3576040517f08c379a00000000000000000000000000000000000000000000000000000000081526004018080602001828103825260048152602001807f746f6d620000000000000000000000000000000000000000000000000000000081525060200191505060405180910390fd5b6000600380549050905060005b818110156111b9576000600382815481106110d757fe5b906000526020600020906005020190508060000160009054906101000a900473ffffffffffffffffffffffffffffffffffffffff1673ffffffffffffffffffffffffffffffffffffffff168673ffffffffffffffffffffffffffffffffffffffff1614156111ad576040517f08c379a000000000000000000000000000000000000000000000000000000000815260040180806020018281038252600a8152602001807f706f6f6c2e746f6b656e0000000000000000000000000000000000000000000081525060200191505060405180910390fd5b508060010190506110c0565b50505b6111e781838573ffffffffffffffffffffffffffffffffffffffff16611ed69092919063ffffffff16565b505050565b60008054906101000a900473ffffffffffffffffffffffffffffffffffffffff1681565b60065481565b6000600380549050905060005b8181101561123f5761123481610bf9565b806001019050611223565b5050565b60075481565b6000806003848154811061125957fe5b9060005260206000209060050201905060006004600086815260200190815260200160002060008573ffffffffffffffffffffffffffffffffffffffff1673ffffffffffffffffffffffffffffffffffffffff168152602001908152602001600020905060008260030154905060008360000160009054906101000a900473ffffffffffffffffffffffffffffffffffffffff1673ffffffffffffffffffffffffffffffffffffffff166370a08231306040518263ffffffff1660e01b8152600401808273ffffffffffffffffffffffffffffffffffffffff16815260200191505060206040518083038186803b15801561135357600080fd5b505afa158015611367573d6000803e3d6000fd5b505050506040513d602081101561137d57600080fd5b810190808051906020019092919050505090508360020154421180156113a4575060008114155b1561142e5760006113b985600201544261082e565b905060006113e86005546113da886001015485611c4890919063ffffffff16565b611cce90919063ffffffff16565b905061142961141a8461140c670de0b6b3a764000085611c4890919063ffffffff16565b611cce90919063ffffffff16565b85611bc090919063ffffffff16565b935050505b6114758360010154611467670de0b6b3a7640000611459868860000154611c4890919063ffffffff16565b611cce90919063ffffffff16565b611b3d90919063ffffffff16565b94505050505092915050565b6004602052816000526040600020602052806000526040600020600091509150508060000154908060010154905082565b60095481565b3373ffffffffffffffffffffffffffffffffffffffff1660008054906101000a900473ffffffffffffffffffffffffffffffffffffffff1673ffffffffffffffffffffffffffffffffffffffff161461155c576040517f08c379a000000000000000000000000000000000000000000000000000000000815260040180806020018281038252602b81526020018061253f602b913960400191505060405180910390fd5b61156583611f78565b811561157457611573611216565b5b6006544210156115a75760008114156115915760065490506115a2565b6006548110156115a15760065490505b5b6115bf565b60008114806115b557504281105b156115be574290505b5b6000600654821115806115d25750428211155b905060036040518060a001604052808673ffffffffffffffffffffffffffffffffffffffff16815260200187815260200184815260200160008152602001831515815250908060018154018082558091505060019003906000526020600020906005020160009091909190915060008201518160000160006101000a81548173ffffffffffffffffffffffffffffffffffffffff021916908373ffffffffffffffffffffffffffffffffffffffff16021790555060208201518160010155604082015181600201556060820151816003015560808201518160040160006101000a81548160ff021916908315150217905550505080156116e8576116e185600554611bc090919063ffffffff16565b6005819055505b5050505050565b60085481565b3373ffffffffffffffffffffffffffffffffffffffff1660008054906101000a900473ffffffffffffffffffffffffffffffffffffffff1673ffffffffffffffffffffffffffffffffffffffff1614611799576040517f08c379a000000000000000000000000000000000000000000000000000000000815260040180806020018281038252602b81526020018061253f602b913960400191505060405180910390fd5b806000806101000a81548173ffffffffffffffffffffffffffffffffffffffff021916908373ffffffffffffffffffffffffffffffffffffffff16021790555050565b600160009054906101000a900473ffffffffffffffffffffffffffffffffffffffff1681565b600260009054906101000a900473ffffffffffffffffffffffffffffffffffffffff1681565b600033905060006003848154811061183c57fe5b9060005260206000209060050201905060006004600086815260200190815260200160002060008473ffffffffffffffffffffffffffffffffffffffff1673ffffffffffffffffffffffffffffffffffffffff16815260200190815260200160002090506118a985610bf9565b60008160000154111561196957600061190382600101546118f5670de0b6b3a76400006118e787600301548760000154611c4890919063ffffffff16565b611cce90919063ffffffff16565b611b3d90919063ffffffff16565b90506000811115611967576119188482611d57565b8373ffffffffffffffffffffffffffffffffffffffff167fe2403640ba68fed3a2f88b7557551d1993f84b99bb10ff833f0cf8db0c5e0486826040518082815260200191505060405180910390a25b505b6000841115611aaa576119c38330868560000160009054906101000a900473ffffffffffffffffffffffffffffffffffffffff1673ffffffffffffffffffffffffffffffffffffffff1661207d909392919063ffffffff16565b600260009054906101000a900473ffffffffffffffffffffffffffffffffffffffff1673ffffffffffffffffffffffffffffffffffffffff168260000160009054906101000a900473ffffffffffffffffffffffffffffffffffffffff1673ffffffffffffffffffffffffffffffffffffffff161415611a8957611a7c611a69612710611a5b6126ac88611c4890919063ffffffff16565b611cce90919063ffffffff16565b8260000154611bc090919063ffffffff16565b8160000181905550611aa9565b611aa0848260000154611bc090919063ffffffff16565b81600001819055505b5b611adf670de0b6b3a7640000611ad184600301548460000154611c4890919063ffffffff16565b611cce90919063ffffffff16565b8160010181905550848373ffffffffffffffffffffffffffffffffffffffff167f90890809c654f11d6e72a28fa60149770a0d11ec6c92319d6ceb2bb0a4ea1a15866040518082815260200191505060405180910390a35050505050565b600082821115611bb5576040517f08c379a000000000000000000000000000000000000000000000000000000000815260040180806020018281038252601e8152602001807f536166654d6174683a207375627472616374696f6e206f766572666c6f77000081525060200191505060405180910390fd5b818303905092915050565b600080828401905083811015611c3e576040517f08c379a000000000000000000000000000000000000000000000000000000000815260040180806020018281038252601b8152602001807f536166654d6174683a206164646974696f6e206f766572666c6f77000000000081525060200191505060405180910390fd5b8091505092915050565b600080831415611c5b5760009050611cc8565b6000828402905082848281611c6c57fe5b0414611cc3576040517f08c379a00000000000000000000000000000000000000000000000000000000081526004018080602001828103825260218152602001806124f46021913960400191505060405180910390fd5b809150505b92915050565b6000808211611d45576040517f08c379a000000000000000000000000000000000000000000000000000000000815260040180806020018281038252601a8152602001807f536166654d6174683a206469766973696f6e206279207a65726f00000000000081525060200191505060405180910390fd5b818381611d4e57fe5b04905092915050565b6000600160009054906101000a900473ffffffffffffffffffffffffffffffffffffffff1673ffffffffffffffffffffffffffffffffffffffff166370a08231306040518263ffffffff1660e01b8152600401808273ffffffffffffffffffffffffffffffffffffffff16815260200191505060206040518083038186803b158015611de257600080fd5b505afa158015611df6573d6000803e3d6000fd5b505050506040513d6020811015611e0c57600080fd5b810190808051906020019092919050505090506000811115611ed15780821115611e8257611e7d8382600160009054906101000a900473ffffffffffffffffffffffffffffffffffffffff1673ffffffffffffffffffffffffffffffffffffffff16611ed69092919063ffffffff16565b611ed0565b611ecf8383600160009054906101000a900473ffffffffffffffffffffffffffffffffffffffff1673ffffffffffffffffffffffffffffffffffffffff16611ed69092919063ffffffff16565b5b5b505050565b611f738363a9059cbb60e01b8484604051602401808373ffffffffffffffffffffffffffffffffffffffff16815260200182815260200192505050604051602081830303815290604052907bffffffffffffffffffffffffffffffffffffffffffffffffffffffff19166020820180517bffffffffffffffffffffffffffffffffffffffffffffffffffffffff838183161783525050505061213e565b505050565b6000600380549050905060005b81811015612078578273ffffffffffffffffffffffffffffffffffffffff1660038281548110611fb157fe5b906000526020600020906005020160000160009054906101000a900473ffffffffffffffffffffffffffffffffffffffff1673ffffffffffffffffffffffffffffffffffffffff16141561206d576040517f08c379a000000000000000000000000000000000000000000000000000000000815260040180806020018281038252601f8152602001807f546f6d6247656e65736973506f6f6c3a206578697374696e6720706f6f6c3f0081525060200191505060405180910390fd5b806001019050611f85565b505050565b612138846323b872dd60e01b858585604051602401808473ffffffffffffffffffffffffffffffffffffffff1681526020018373ffffffffffffffffffffffffffffffffffffffff1681526020018281526020019350505050604051602081830303815290604052907bffffffffffffffffffffffffffffffffffffffffffffffffffffffff19166020820180517bffffffffffffffffffffffffffffffffffffffffffffffffffffffff838183161783525050505061213e565b50505050565b60606121a0826040518060400160405280602081526020017f5361666545524332303a206c6f772d6c6576656c2063616c6c206661696c65648152508573ffffffffffffffffffffffffffffffffffffffff1661222d9092919063ffffffff16565b9050600081511115612228578080602001905160208110156121c157600080fd5b8101908080519060200190929190505050612227576040517f08c379a000000000000000000000000000000000000000000000000000000000815260040180806020018281038252602a815260200180612515602a913960400191505060405180910390fd5b5b505050565b606061223c8484600085612245565b90509392505050565b6060824710156122a0576040517f08c379a00000000000000000000000000000000000000000000000000000000081526004018080602001828103825260268152602001806124ce6026913960400191505060405180910390fd5b6122a9856123ee565b61231b576040517f08c379a000000000000000000000000000000000000000000000000000000000815260040180806020018281038252601d8152602001807f416464726573733a2063616c6c20746f206e6f6e2d636f6e747261637400000081525060200191505060405180910390fd5b600060608673ffffffffffffffffffffffffffffffffffffffff1685876040518082805190602001908083835b6020831061236b5780518252602082019150602081019050602083039250612348565b6001836020036101000a03801982511681845116808217855250505050505090500191505060006040518083038185875af1925050503d80600081146123cd576040519150601f19603f3d011682016040523d82523d6000602084013e6123d2565b606091505b50915091506123e2828286612401565b92505050949350505050565b600080823b905060008111915050919050565b60608315612411578290506124c6565b6000835111156124245782518084602001fd5b816040517f08c379a00000000000000000000000000000000000000000000000000000000081526004018080602001828103825283818151815260200191508051906020019080838360005b8381101561248b578082015181840152602081019050612470565b50505050905090810190601f1680156124b85780820380516001836020036101000a031916815260200191505b509250505060405180910390fd5b939250505056fe416464726573733a20696e73756666696369656e742062616c616e636520666f722063616c6c536166654d6174683a206d756c7469706c69636174696f6e206f766572666c6f775361666545524332303a204552433230206f7065726174696f6e20646964206e6f742073756363656564546f6d6247656e65736973506f6f6c3a2063616c6c6572206973206e6f7420746865206f70657261746f72a264697066735822122005881c7fa6934df52a18744ca01683b7f3ef30c847a81bd64e083cd88f14cbca64736f6c634300060c0033",
  "immutableReferences": {},
  "source": "// SPDX-License-Identifier: MIT\r\n\r\npragma solidity 0.6.12;\r\n\r\nimport \"@openzeppelin/contracts/token/ERC20/IERC20.sol\";\r\nimport \"@openzeppelin/contracts/token/ERC20/SafeERC20.sol\";\r\nimport \"@openzeppelin/contracts/math/SafeMath.sol\";\r\n\r\n// Note that this pool has no minter key of TOMB (rewards).\r\n// Instead, the governance will call TOMB distributeReward method and send reward to this pool at the beginning.\r\ncontract TombGenesisRewardPool {\r\n    using SafeMath for uint256;\r\n    using SafeERC20 for IERC20;\r\n\r\n    // governance\r\n    address public operator;\r\n\r\n    // Info of each user.\r\n    struct UserInfo {\r\n        uint256 amount; // How many tokens the user has provided.\r\n        uint256 rewardDebt; // Reward debt. See explanation below.\r\n    }\r\n\r\n    // Info of each pool.\r\n    struct PoolInfo {\r\n        IERC20 token; // Address of LP token contract.\r\n        uint256 allocPoint; // How many allocation points assigned to this pool. TOMB to distribute.\r\n        uint256 lastRewardTime; // Last time that TOMB distribution occurs.\r\n        uint256 accTombPerShare; // Accumulated TOMB per share, times 1e18. See below.\r\n        bool isStarted; // if lastRewardBlock has passed\r\n    }\r\n\r\n    IERC20 public tomb;\r\n    address public shiba;\r\n\r\n    // Info of each pool.\r\n    PoolInfo[] public poolInfo;\r\n\r\n    // Info of each user that stakes LP tokens.\r\n    mapping(uint256 => mapping(address => UserInfo)) public userInfo;\r\n\r\n    // Total allocation points. Must be the sum of all allocation points in all pools.\r\n    uint256 public totalAllocPoint = 0;\r\n\r\n    // The time when TOMB mining starts.\r\n    uint256 public poolStartTime;\r\n\r\n    // The time when TOMB mining ends.\r\n    uint256 public poolEndTime;\r\n\r\n    // TESTNET\r\n    uint256 public tombPerSecond = 3.0555555 ether; // 11000 TOMB / (1h * 60min * 60s)\r\n    uint256 public runningTime = 24 hours; // 1 hours\r\n    uint256 public constant TOTAL_REWARDS = 11000 ether;\r\n    // END TESTNET\r\n\r\n    // MAINNET\r\n    // uint256 public tombPerSecond = 0.11574 ether; // 10000 TOMB / (24h * 60min * 60s)\r\n    // uint256 public runningTime = 1 days; // 1 days\r\n    // uint256 public constant TOTAL_REWARDS = 10000 ether;\r\n    // END MAINNET\r\n\r\n    event Deposit(address indexed user, uint256 indexed pid, uint256 amount);\r\n    event Withdraw(address indexed user, uint256 indexed pid, uint256 amount);\r\n    event EmergencyWithdraw(address indexed user, uint256 indexed pid, uint256 amount);\r\n    event RewardPaid(address indexed user, uint256 amount);\r\n\r\n    constructor(\r\n        address _tomb,\r\n        address _shiba\r\n    ) public {\r\n        if (_tomb != address(0)) tomb = IERC20(_tomb);\r\n        if (_shiba != address(0)) shiba = _shiba;\r\n        poolStartTime = block.timestamp;\r\n        poolEndTime = poolStartTime + runningTime;\r\n        operator = msg.sender;\r\n    }\r\n\r\n    modifier onlyOperator() {\r\n        require(operator == msg.sender, \"TombGenesisPool: caller is not the operator\");\r\n        _;\r\n    }\r\n\r\n    function checkPoolDuplicate(IERC20 _token) internal view {\r\n        uint256 length = poolInfo.length;\r\n        for (uint256 pid = 0; pid < length; ++pid) {\r\n            require(poolInfo[pid].token != _token, \"TombGenesisPool: existing pool?\");\r\n        }\r\n    }\r\n\r\n    // Add a new token to the pool. Can only be called by the owner.\r\n    function add(\r\n        uint256 _allocPoint,\r\n        IERC20 _token,\r\n        bool _withUpdate,\r\n        uint256 _lastRewardTime\r\n    ) public onlyOperator {\r\n        checkPoolDuplicate(_token);\r\n        if (_withUpdate) {\r\n            massUpdatePools();\r\n        }\r\n        if (block.timestamp < poolStartTime) {\r\n            // chef is sleeping\r\n            if (_lastRewardTime == 0) {\r\n                _lastRewardTime = poolStartTime;\r\n            } else {\r\n                if (_lastRewardTime < poolStartTime) {\r\n                    _lastRewardTime = poolStartTime;\r\n                }\r\n            }\r\n        } else {\r\n            // chef is cooking\r\n            if (_lastRewardTime == 0 || _lastRewardTime < block.timestamp) {\r\n                _lastRewardTime = block.timestamp;\r\n            }\r\n        }\r\n        bool _isStarted =\r\n        (_lastRewardTime <= poolStartTime) ||\r\n        (_lastRewardTime <= block.timestamp);\r\n        poolInfo.push(PoolInfo({\r\n            token : _token,\r\n            allocPoint : _allocPoint,\r\n            lastRewardTime : _lastRewardTime,\r\n            accTombPerShare : 0,\r\n            isStarted : _isStarted\r\n            }));\r\n        if (_isStarted) {\r\n            totalAllocPoint = totalAllocPoint.add(_allocPoint);\r\n        }\r\n    }\r\n\r\n    // Update the given pool's TOMB allocation point. Can only be called by the owner.\r\n    function set(uint256 _pid, uint256 _allocPoint) public onlyOperator {\r\n        massUpdatePools();\r\n        PoolInfo storage pool = poolInfo[_pid];\r\n        if (pool.isStarted) {\r\n            totalAllocPoint = totalAllocPoint.sub(pool.allocPoint).add(\r\n                _allocPoint\r\n            );\r\n        }\r\n        pool.allocPoint = _allocPoint;\r\n    }\r\n\r\n    // Return accumulate rewards over the given _from to _to block.\r\n    function getGeneratedReward(uint256 _fromTime, uint256 _toTime) public view returns (uint256) {\r\n        if (_fromTime >= _toTime) return 0;\r\n        if (_toTime >= poolEndTime) {\r\n            if (_fromTime >= poolEndTime) return 0;\r\n            if (_fromTime <= poolStartTime) return poolEndTime.sub(poolStartTime).mul(tombPerSecond);\r\n            return poolEndTime.sub(_fromTime).mul(tombPerSecond);\r\n        } else {\r\n            if (_toTime <= poolStartTime) return 0;\r\n            if (_fromTime <= poolStartTime) return _toTime.sub(poolStartTime).mul(tombPerSecond);\r\n            return _toTime.sub(_fromTime).mul(tombPerSecond);\r\n        }\r\n    }\r\n\r\n    // View function to see pending TOMB on frontend.\r\n    function pendingTOMB(uint256 _pid, address _user) external view returns (uint256) {\r\n        PoolInfo storage pool = poolInfo[_pid];\r\n        UserInfo storage user = userInfo[_pid][_user];\r\n        uint256 accTombPerShare = pool.accTombPerShare;\r\n        uint256 tokenSupply = pool.token.balanceOf(address(this));\r\n        if (block.timestamp > pool.lastRewardTime && tokenSupply != 0) {\r\n            uint256 _generatedReward = getGeneratedReward(pool.lastRewardTime, block.timestamp);\r\n            uint256 _tombReward = _generatedReward.mul(pool.allocPoint).div(totalAllocPoint);\r\n            accTombPerShare = accTombPerShare.add(_tombReward.mul(1e18).div(tokenSupply));\r\n        }\r\n        return user.amount.mul(accTombPerShare).div(1e18).sub(user.rewardDebt);\r\n    }\r\n\r\n    // Update reward variables for all pools. Be careful of gas spending!\r\n    function massUpdatePools() public {\r\n        uint256 length = poolInfo.length;\r\n        for (uint256 pid = 0; pid < length; ++pid) {\r\n            updatePool(pid);\r\n        }\r\n    }\r\n\r\n    // Update reward variables of the given pool to be up-to-date.\r\n    function updatePool(uint256 _pid) public {\r\n        PoolInfo storage pool = poolInfo[_pid];\r\n        if (block.timestamp <= pool.lastRewardTime) {\r\n            return;\r\n        }\r\n        uint256 tokenSupply = pool.token.balanceOf(address(this));\r\n        if (tokenSupply == 0) {\r\n            pool.lastRewardTime = block.timestamp;\r\n            return;\r\n        }\r\n        if (!pool.isStarted) {\r\n            pool.isStarted = true;\r\n            totalAllocPoint = totalAllocPoint.add(pool.allocPoint);\r\n        }\r\n        if (totalAllocPoint > 0) {\r\n            uint256 _generatedReward = getGeneratedReward(pool.lastRewardTime, block.timestamp);\r\n            uint256 _tombReward = _generatedReward.mul(pool.allocPoint).div(totalAllocPoint);\r\n            pool.accTombPerShare = pool.accTombPerShare.add(_tombReward.mul(1e18).div(tokenSupply));\r\n        }\r\n        pool.lastRewardTime = block.timestamp;\r\n    }\r\n\r\n    // Deposit LP tokens.\r\n    function deposit(uint256 _pid, uint256 _amount) public {\r\n        address _sender = msg.sender;\r\n        PoolInfo storage pool = poolInfo[_pid];\r\n        UserInfo storage user = userInfo[_pid][_sender];\r\n        updatePool(_pid);\r\n        if (user.amount > 0) {\r\n            uint256 _pending = user.amount.mul(pool.accTombPerShare).div(1e18).sub(user.rewardDebt);\r\n            if (_pending > 0) {\r\n                safeTombTransfer(_sender, _pending);\r\n                emit RewardPaid(_sender, _pending);\r\n            }\r\n        }\r\n        if (_amount > 0) {\r\n            pool.token.safeTransferFrom(_sender, address(this), _amount);\r\n            if(address(pool.token) == shiba) {\r\n                user.amount = user.amount.add(_amount.mul(9900).div(10000));\r\n            } else {\r\n                user.amount = user.amount.add(_amount);\r\n            }\r\n        }\r\n        user.rewardDebt = user.amount.mul(pool.accTombPerShare).div(1e18);\r\n        emit Deposit(_sender, _pid, _amount);\r\n    }\r\n\r\n    // Withdraw LP tokens.\r\n    function withdraw(uint256 _pid, uint256 _amount) public {\r\n        address _sender = msg.sender;\r\n        PoolInfo storage pool = poolInfo[_pid];\r\n        UserInfo storage user = userInfo[_pid][_sender];\r\n        require(user.amount >= _amount, \"withdraw: not good\");\r\n        updatePool(_pid);\r\n        uint256 _pending = user.amount.mul(pool.accTombPerShare).div(1e18).sub(user.rewardDebt);\r\n        if (_pending > 0) {\r\n            safeTombTransfer(_sender, _pending);\r\n            emit RewardPaid(_sender, _pending);\r\n        }\r\n        if (_amount > 0) {\r\n            user.amount = user.amount.sub(_amount);\r\n            pool.token.safeTransfer(_sender, _amount);\r\n        }\r\n        user.rewardDebt = user.amount.mul(pool.accTombPerShare).div(1e18);\r\n        emit Withdraw(_sender, _pid, _amount);\r\n    }\r\n\r\n    // Withdraw without caring about rewards. EMERGENCY ONLY.\r\n    function emergencyWithdraw(uint256 _pid) public {\r\n        PoolInfo storage pool = poolInfo[_pid];\r\n        UserInfo storage user = userInfo[_pid][msg.sender];\r\n        uint256 _amount = user.amount;\r\n        user.amount = 0;\r\n        user.rewardDebt = 0;\r\n        pool.token.safeTransfer(msg.sender, _amount);\r\n        emit EmergencyWithdraw(msg.sender, _pid, _amount);\r\n    }\r\n\r\n    // Safe TOMB transfer function, just in case if rounding error causes pool to not have enough TOMBs.\r\n    function safeTombTransfer(address _to, uint256 _amount) internal {\r\n        uint256 _tombBalance = tomb.balanceOf(address(this));\r\n        if (_tombBalance > 0) {\r\n            if (_amount > _tombBalance) {\r\n                tomb.safeTransfer(_to, _tombBalance);\r\n            } else {\r\n                tomb.safeTransfer(_to, _amount);\r\n            }\r\n        }\r\n    }\r\n\r\n    function setOperator(address _operator) external onlyOperator {\r\n        operator = _operator;\r\n    }\r\n\r\n    function governanceRecoverUnsupported(IERC20 _token, uint256 amount, address to) external onlyOperator {\r\n        if (block.timestamp < poolEndTime + 90 days) {\r\n            // do not allow to drain core token (TOMB or lps) if less than 90 days after pool ends\r\n            require(_token != tomb, \"tomb\");\r\n            uint256 length = poolInfo.length;\r\n            for (uint256 pid = 0; pid < length; ++pid) {\r\n                PoolInfo storage pool = poolInfo[pid];\r\n                require(_token != pool.token, \"pool.token\");\r\n            }\r\n        }\r\n        _token.safeTransfer(to, amount);\r\n    }\r\n}",
  "sourcePath": "C:\\Users\\kiera\\Desktop\\New folder\\TombFork\\contracts\\TombGenesisRewardPool.sol",
  "compiler": {
    "name": "solc",
    "version": "0.6.12+commit.27d51765.Emscripten.clang"
  },
  "schemaVersion": "3.4.3",
  "updatedAt": "2022-04-09T15:56:14.702Z",
  "networkType": "ethereum",
  "devdoc": {
    "kind": "dev",
    "methods": {},
    "version": 1
  },
  "userdoc": {
    "kind": "user",
    "methods": {},
    "version": 1
  }
}