{
  "contractName": "Tomb",
  "abi": [
    {
      "inputs": [
        {
          "internalType": "uint256",
          "name": "_taxRate",
          "type": "uint256"
        },
        {
          "internalType": "address",
          "name": "_taxCollectorAddress",
          "type": "address"
        }
      ],
      "stateMutability": "nonpayable",
      "type": "constructor"
    },
    {
      "anonymous": false,
      "inputs": [
        {
          "indexed": true,
          "internalType": "address",
          "name": "owner",
          "type": "address"
        },
        {
          "indexed": true,
          "internalType": "address",
          "name": "spender",
          "type": "address"
        },
        {
          "indexed": false,
          "internalType": "uint256",
          "name": "value",
          "type": "uint256"
        }
      ],
      "name": "Approval",
      "type": "event"
    },
    {
      "anonymous": false,
      "inputs": [
        {
          "indexed": true,
          "internalType": "address",
          "name": "previousOperator",
          "type": "address"
        },
        {
          "indexed": true,
          "internalType": "address",
          "name": "newOperator",
          "type": "address"
        }
      ],
      "name": "OperatorTransferred",
      "type": "event"
    },
    {
      "anonymous": false,
      "inputs": [
        {
          "indexed": true,
          "internalType": "address",
          "name": "previousOwner",
          "type": "address"
        },
        {
          "indexed": true,
          "internalType": "address",
          "name": "newOwner",
          "type": "address"
        }
      ],
      "name": "OwnershipTransferred",
      "type": "event"
    },
    {
      "anonymous": false,
      "inputs": [
        {
          "indexed": false,
          "internalType": "address",
          "name": "oldAddress",
          "type": "address"
        },
        {
          "indexed": false,
          "internalType": "address",
          "name": "newAddress",
          "type": "address"
        }
      ],
      "name": "TaxOfficeTransferred",
      "type": "event"
    },
    {
      "anonymous": false,
      "inputs": [
        {
          "indexed": true,
          "internalType": "address",
          "name": "from",
          "type": "address"
        },
        {
          "indexed": true,
          "internalType": "address",
          "name": "to",
          "type": "address"
        },
        {
          "indexed": false,
          "internalType": "uint256",
          "name": "value",
          "type": "uint256"
        }
      ],
      "name": "Transfer",
      "type": "event"
    },
    {
      "inputs": [],
      "name": "INITIAL_AIRDROP_WALLET_DISTRIBUTION",
      "outputs": [
        {
          "internalType": "uint256",
          "name": "",
          "type": "uint256"
        }
      ],
      "stateMutability": "view",
      "type": "function",
      "constant": true
    },
    {
      "inputs": [],
      "name": "INITIAL_GENESIS_POOL_DISTRIBUTION",
      "outputs": [
        {
          "internalType": "uint256",
          "name": "",
          "type": "uint256"
        }
      ],
      "stateMutability": "view",
      "type": "function",
      "constant": true
    },
    {
      "inputs": [],
      "name": "INITIAL_TOMB_POOL_DISTRIBUTION",
      "outputs": [
        {
          "internalType": "uint256",
          "name": "",
          "type": "uint256"
        }
      ],
      "stateMutability": "view",
      "type": "function",
      "constant": true
    },
    {
      "inputs": [
        {
          "internalType": "address",
          "name": "owner",
          "type": "address"
        },
        {
          "internalType": "address",
          "name": "spender",
          "type": "address"
        }
      ],
      "name": "allowance",
      "outputs": [
        {
          "internalType": "uint256",
          "name": "",
          "type": "uint256"
        }
      ],
      "stateMutability": "view",
      "type": "function",
      "constant": true
    },
    {
      "inputs": [
        {
          "internalType": "address",
          "name": "spender",
          "type": "address"
        },
        {
          "internalType": "uint256",
          "name": "amount",
          "type": "uint256"
        }
      ],
      "name": "approve",
      "outputs": [
        {
          "internalType": "bool",
          "name": "",
          "type": "bool"
        }
      ],
      "stateMutability": "nonpayable",
      "type": "function"
    },
    {
      "inputs": [],
      "name": "autoCalculateTax",
      "outputs": [
        {
          "internalType": "bool",
          "name": "",
          "type": "bool"
        }
      ],
      "stateMutability": "view",
      "type": "function",
      "constant": true
    },
    {
      "inputs": [
        {
          "internalType": "address",
          "name": "account",
          "type": "address"
        }
      ],
      "name": "balanceOf",
      "outputs": [
        {
          "internalType": "uint256",
          "name": "",
          "type": "uint256"
        }
      ],
      "stateMutability": "view",
      "type": "function",
      "constant": true
    },
    {
      "inputs": [],
      "name": "burnThreshold",
      "outputs": [
        {
          "internalType": "uint256",
          "name": "",
          "type": "uint256"
        }
      ],
      "stateMutability": "view",
      "type": "function",
      "constant": true
    },
    {
      "inputs": [],
      "name": "decimals",
      "outputs": [
        {
          "internalType": "uint8",
          "name": "",
          "type": "uint8"
        }
      ],
      "stateMutability": "view",
      "type": "function",
      "constant": true
    },
    {
      "inputs": [
        {
          "internalType": "address",
          "name": "spender",
          "type": "address"
        },
        {
          "internalType": "uint256",
          "name": "subtractedValue",
          "type": "uint256"
        }
      ],
      "name": "decreaseAllowance",
      "outputs": [
        {
          "internalType": "bool",
          "name": "",
          "type": "bool"
        }
      ],
      "stateMutability": "nonpayable",
      "type": "function"
    },
    {
      "inputs": [
        {
          "internalType": "address",
          "name": "",
          "type": "address"
        }
      ],
      "name": "excludedAddresses",
      "outputs": [
        {
          "internalType": "bool",
          "name": "",
          "type": "bool"
        }
      ],
      "stateMutability": "view",
      "type": "function",
      "constant": true
    },
    {
      "inputs": [
        {
          "internalType": "address",
          "name": "spender",
          "type": "address"
        },
        {
          "internalType": "uint256",
          "name": "addedValue",
          "type": "uint256"
        }
      ],
      "name": "increaseAllowance",
      "outputs": [
        {
          "internalType": "bool",
          "name": "",
          "type": "bool"
        }
      ],
      "stateMutability": "nonpayable",
      "type": "function"
    },
    {
      "inputs": [],
      "name": "isOperator",
      "outputs": [
        {
          "internalType": "bool",
          "name": "",
          "type": "bool"
        }
      ],
      "stateMutability": "view",
      "type": "function",
      "constant": true
    },
    {
      "inputs": [],
      "name": "name",
      "outputs": [
        {
          "internalType": "string",
          "name": "",
          "type": "string"
        }
      ],
      "stateMutability": "view",
      "type": "function",
      "constant": true
    },
    {
      "inputs": [],
      "name": "operator",
      "outputs": [
        {
          "internalType": "address",
          "name": "",
          "type": "address"
        }
      ],
      "stateMutability": "view",
      "type": "function",
      "constant": true
    },
    {
      "inputs": [],
      "name": "owner",
      "outputs": [
        {
          "internalType": "address",
          "name": "",
          "type": "address"
        }
      ],
      "stateMutability": "view",
      "type": "function",
      "constant": true
    },
    {
      "inputs": [],
      "name": "renounceOwnership",
      "outputs": [],
      "stateMutability": "nonpayable",
      "type": "function"
    },
    {
      "inputs": [],
      "name": "rewardPoolDistributed",
      "outputs": [
        {
          "internalType": "bool",
          "name": "",
          "type": "bool"
        }
      ],
      "stateMutability": "view",
      "type": "function",
      "constant": true
    },
    {
      "inputs": [],
      "name": "symbol",
      "outputs": [
        {
          "internalType": "string",
          "name": "",
          "type": "string"
        }
      ],
      "stateMutability": "view",
      "type": "function",
      "constant": true
    },
    {
      "inputs": [],
      "name": "taxCollectorAddress",
      "outputs": [
        {
          "internalType": "address",
          "name": "",
          "type": "address"
        }
      ],
      "stateMutability": "view",
      "type": "function",
      "constant": true
    },
    {
      "inputs": [],
      "name": "taxOffice",
      "outputs": [
        {
          "internalType": "address",
          "name": "",
          "type": "address"
        }
      ],
      "stateMutability": "view",
      "type": "function",
      "constant": true
    },
    {
      "inputs": [],
      "name": "taxRate",
      "outputs": [
        {
          "internalType": "uint256",
          "name": "",
          "type": "uint256"
        }
      ],
      "stateMutability": "view",
      "type": "function",
      "constant": true
    },
    {
      "inputs": [
        {
          "internalType": "uint256",
          "name": "",
          "type": "uint256"
        }
      ],
      "name": "taxTiersRates",
      "outputs": [
        {
          "internalType": "uint256",
          "name": "",
          "type": "uint256"
        }
      ],
      "stateMutability": "view",
      "type": "function",
      "constant": true
    },
    {
      "inputs": [
        {
          "internalType": "uint256",
          "name": "",
          "type": "uint256"
        }
      ],
      "name": "taxTiersTwaps",
      "outputs": [
        {
          "internalType": "uint256",
          "name": "",
          "type": "uint256"
        }
      ],
      "stateMutability": "view",
      "type": "function",
      "constant": true
    },
    {
      "inputs": [],
      "name": "tombOracle",
      "outputs": [
        {
          "internalType": "address",
          "name": "",
          "type": "address"
        }
      ],
      "stateMutability": "view",
      "type": "function",
      "constant": true
    },
    {
      "inputs": [],
      "name": "totalSupply",
      "outputs": [
        {
          "internalType": "uint256",
          "name": "",
          "type": "uint256"
        }
      ],
      "stateMutability": "view",
      "type": "function",
      "constant": true
    },
    {
      "inputs": [
        {
          "internalType": "address",
          "name": "recipient",
          "type": "address"
        },
        {
          "internalType": "uint256",
          "name": "amount",
          "type": "uint256"
        }
      ],
      "name": "transfer",
      "outputs": [
        {
          "internalType": "bool",
          "name": "",
          "type": "bool"
        }
      ],
      "stateMutability": "nonpayable",
      "type": "function"
    },
    {
      "inputs": [
        {
          "internalType": "address",
          "name": "newOperator_",
          "type": "address"
        }
      ],
      "name": "transferOperator",
      "outputs": [],
      "stateMutability": "nonpayable",
      "type": "function"
    },
    {
      "inputs": [
        {
          "internalType": "address",
          "name": "newOwner",
          "type": "address"
        }
      ],
      "name": "transferOwnership",
      "outputs": [],
      "stateMutability": "nonpayable",
      "type": "function"
    },
    {
      "inputs": [],
      "name": "getTaxTiersTwapsCount",
      "outputs": [
        {
          "internalType": "uint256",
          "name": "count",
          "type": "uint256"
        }
      ],
      "stateMutability": "view",
      "type": "function",
      "constant": true
    },
    {
      "inputs": [],
      "name": "getTaxTiersRatesCount",
      "outputs": [
        {
          "internalType": "uint256",
          "name": "count",
          "type": "uint256"
        }
      ],
      "stateMutability": "view",
      "type": "function",
      "constant": true
    },
    {
      "inputs": [
        {
          "internalType": "address",
          "name": "_address",
          "type": "address"
        }
      ],
      "name": "isAddressExcluded",
      "outputs": [
        {
          "internalType": "bool",
          "name": "",
          "type": "bool"
        }
      ],
      "stateMutability": "view",
      "type": "function",
      "constant": true
    },
    {
      "inputs": [
        {
          "internalType": "uint8",
          "name": "_index",
          "type": "uint8"
        },
        {
          "internalType": "uint256",
          "name": "_value",
          "type": "uint256"
        }
      ],
      "name": "setTaxTiersTwap",
      "outputs": [
        {
          "internalType": "bool",
          "name": "",
          "type": "bool"
        }
      ],
      "stateMutability": "nonpayable",
      "type": "function"
    },
    {
      "inputs": [
        {
          "internalType": "uint8",
          "name": "_index",
          "type": "uint8"
        },
        {
          "internalType": "uint256",
          "name": "_value",
          "type": "uint256"
        }
      ],
      "name": "setTaxTiersRate",
      "outputs": [
        {
          "internalType": "bool",
          "name": "",
          "type": "bool"
        }
      ],
      "stateMutability": "nonpayable",
      "type": "function"
    },
    {
      "inputs": [
        {
          "internalType": "uint256",
          "name": "_burnThreshold",
          "type": "uint256"
        }
      ],
      "name": "setBurnThreshold",
      "outputs": [
        {
          "internalType": "bool",
          "name": "",
          "type": "bool"
        }
      ],
      "stateMutability": "nonpayable",
      "type": "function"
    },
    {
      "inputs": [],
      "name": "enableAutoCalculateTax",
      "outputs": [],
      "stateMutability": "nonpayable",
      "type": "function"
    },
    {
      "inputs": [],
      "name": "disableAutoCalculateTax",
      "outputs": [],
      "stateMutability": "nonpayable",
      "type": "function"
    },
    {
      "inputs": [
        {
          "internalType": "address",
          "name": "_tombOracle",
          "type": "address"
        }
      ],
      "name": "setTombOracle",
      "outputs": [],
      "stateMutability": "nonpayable",
      "type": "function"
    },
    {
      "inputs": [
        {
          "internalType": "address",
          "name": "_taxOffice",
          "type": "address"
        }
      ],
      "name": "setTaxOffice",
      "outputs": [],
      "stateMutability": "nonpayable",
      "type": "function"
    },
    {
      "inputs": [
        {
          "internalType": "address",
          "name": "_taxCollectorAddress",
          "type": "address"
        }
      ],
      "name": "setTaxCollectorAddress",
      "outputs": [],
      "stateMutability": "nonpayable",
      "type": "function"
    },
    {
      "inputs": [
        {
          "internalType": "uint256",
          "name": "_taxRate",
          "type": "uint256"
        }
      ],
      "name": "setTaxRate",
      "outputs": [],
      "stateMutability": "nonpayable",
      "type": "function"
    },
    {
      "inputs": [
        {
          "internalType": "address",
          "name": "_address",
          "type": "address"
        }
      ],
      "name": "excludeAddress",
      "outputs": [
        {
          "internalType": "bool",
          "name": "",
          "type": "bool"
        }
      ],
      "stateMutability": "nonpayable",
      "type": "function"
    },
    {
      "inputs": [
        {
          "internalType": "address",
          "name": "_address",
          "type": "address"
        }
      ],
      "name": "includeAddress",
      "outputs": [
        {
          "internalType": "bool",
          "name": "",
          "type": "bool"
        }
      ],
      "stateMutability": "nonpayable",
      "type": "function"
    },
    {
      "inputs": [
        {
          "internalType": "address",
          "name": "recipient_",
          "type": "address"
        },
        {
          "internalType": "uint256",
          "name": "amount_",
          "type": "uint256"
        }
      ],
      "name": "mint",
      "outputs": [
        {
          "internalType": "bool",
          "name": "",
          "type": "bool"
        }
      ],
      "stateMutability": "nonpayable",
      "type": "function"
    },
    {
      "inputs": [
        {
          "internalType": "uint256",
          "name": "amount",
          "type": "uint256"
        }
      ],
      "name": "burn",
      "outputs": [],
      "stateMutability": "nonpayable",
      "type": "function"
    },
    {
      "inputs": [
        {
          "internalType": "address",
          "name": "account",
          "type": "address"
        },
        {
          "internalType": "uint256",
          "name": "amount",
          "type": "uint256"
        }
      ],
      "name": "burnFrom",
      "outputs": [],
      "stateMutability": "nonpayable",
      "type": "function"
    },
    {
      "inputs": [
        {
          "internalType": "address",
          "name": "sender",
          "type": "address"
        },
        {
          "internalType": "address",
          "name": "recipient",
          "type": "address"
        },
        {
          "internalType": "uint256",
          "name": "amount",
          "type": "uint256"
        }
      ],
      "name": "transferFrom",
      "outputs": [
        {
          "internalType": "bool",
          "name": "",
          "type": "bool"
        }
      ],
      "stateMutability": "nonpayable",
      "type": "function"
    },
    {
      "inputs": [
        {
          "internalType": "address",
          "name": "_genesisPool",
          "type": "address"
        },
        {
          "internalType": "address",
          "name": "_tombPool",
          "type": "address"
        },
        {
          "internalType": "address",
          "name": "_airdropWallet",
          "type": "address"
        }
      ],
      "name": "distributeReward",
      "outputs": [],
      "stateMutability": "nonpayable",
      "type": "function"
    },
    {
      "inputs": [
        {
          "internalType": "contract IERC20",
          "name": "_token",
          "type": "address"
        },
        {
          "internalType": "uint256",
          "name": "_amount",
          "type": "uint256"
        },
        {
          "internalType": "address",
          "name": "_to",
          "type": "address"
        }
      ],
      "name": "governanceRecoverUnsupported",
      "outputs": [],
      "stateMutability": "nonpayable",
      "type": "function"
    }
  ],
  "bytecode": "0x60806040526000600660146101000a81548160ff021916908315150217905550670f43fc2c04ee0000600a55604051806101c00160405280600067ffffffffffffffff1681526020016706f05b59d3b2000067ffffffffffffffff168152602001670853a0d2313c000067ffffffffffffffff1681526020016709b6e64a8ec6000067ffffffffffffffff168152602001670b1a2bc2ec50000067ffffffffffffffff168152602001670c7d713b49da000067ffffffffffffffff168152602001670d2f13f7789f000067ffffffffffffffff168152602001670de0b6b3a764000067ffffffffffffffff168152602001670e92596fd629000067ffffffffffffffff168152602001670f43fc2c04ee000067ffffffffffffffff1681526020016710a741a46278000067ffffffffffffffff16815260200167120a871cc002000067ffffffffffffffff16815260200167136dcc951d8c000067ffffffffffffffff1681526020016714d1120d7b16000067ffffffffffffffff16815250600c90600e6200019092919062000b17565b50604051806101c001604052806107d061ffff16815260200161076c61ffff16815260200161070861ffff1681526020016106a461ffff16815260200161064061ffff1681526020016105dc61ffff1681526020016105dc61ffff1681526020016105dc61ffff1681526020016105dc61ffff16815260200161057861ffff16815260200161038461ffff16815260200161019061ffff16815260200160c861ffff168152602001606461ffff16815250600d90600e6200025392919062000b75565b503480156200026157600080fd5b50604051620053f9380380620053f9833981810160405260408110156200028757600080fd5b8101908080519060200190929190805190602001909291905050506040518060400160405280600481526020017f544f4d42000000000000000000000000000000000000000000000000000000008152506040518060400160405280600481526020017f544f4d420000000000000000000000000000000000000000000000000000000081525081600390805190602001906200032692919062000bcd565b5080600490805190602001906200033f92919062000bcd565b506012600560006101000a81548160ff021916908360ff16021790555050506000620003706200065860201b60201c565b905080600560016101000a81548173ffffffffffffffffffffffffffffffffffffffff021916908373ffffffffffffffffffffffffffffffffffffffff1602179055508073ffffffffffffffffffffffffffffffffffffffff16600073ffffffffffffffffffffffffffffffffffffffff167f8be0079c531659141344cd1fd0a4f28419497f9722a3daafe3b4186f6b6457e060405160405180910390a3506200041f6200065860201b60201c565b600660006101000a81548173ffffffffffffffffffffffffffffffffffffffff021916908373ffffffffffffffffffffffffffffffffffffffff160217905550600660009054906101000a900473ffffffffffffffffffffffffffffffffffffffff1673ffffffffffffffffffffffffffffffffffffffff16600073ffffffffffffffffffffffffffffffffffffffff167f74da04524d50c64947f5dd5381ef1a4dca5cba8ed1d816243f9e48aa0b5617ed60405160405180910390a3612710821062000554576040517f08c379a000000000000000000000000000000000000000000000000000000000815260040180806020018281038252601b8152602001807f74617820657175616c206f722062696767657220746f2031303025000000000081525060200191505060405180910390fd5b600073ffffffffffffffffffffffffffffffffffffffff168173ffffffffffffffffffffffffffffffffffffffff161415620005dc576040517f08c379a000000000000000000000000000000000000000000000000000000000815260040180806020018281038252602e8152602001806200539f602e913960400191505060405180910390fd5b620005ed306200066060201b60201c565b506200060833670de0b6b3a76400006200084460201b60201c565b8160098190555080600b60006101000a81548173ffffffffffffffffffffffffffffffffffffffff021916908373ffffffffffffffffffffffffffffffffffffffff160217905550505062000c73565b600033905090565b60006200067262000a2260201b60201c565b80620006cb57503373ffffffffffffffffffffffffffffffffffffffff16600860009054906101000a900473ffffffffffffffffffffffffffffffffffffffff1673ffffffffffffffffffffffffffffffffffffffff16145b62000722576040517f08c379a000000000000000000000000000000000000000000000000000000000815260040180806020018281038252602c815260200180620053cd602c913960400191505060405180910390fd5b600e60008373ffffffffffffffffffffffffffffffffffffffff1673ffffffffffffffffffffffffffffffffffffffff16815260200190815260200160002060009054906101000a900460ff1615620007e3576040517f08c379a00000000000000000000000000000000000000000000000000000000081526004018080602001828103825260198152602001807f616464726573732063616e2774206265206578636c756465640000000000000081525060200191505060405180910390fd5b6001600e60008473ffffffffffffffffffffffffffffffffffffffff1673ffffffffffffffffffffffffffffffffffffffff16815260200190815260200160002060006101000a81548160ff02191690831515021790555060019050919050565b600073ffffffffffffffffffffffffffffffffffffffff168273ffffffffffffffffffffffffffffffffffffffff161415620008e8576040517f08c379a000000000000000000000000000000000000000000000000000000000815260040180806020018281038252601f8152602001807f45524332303a206d696e7420746f20746865207a65726f20616464726573730081525060200191505060405180910390fd5b620008fc6000838362000a8960201b60201c565b620009188160025462000a8e60201b620032cc1790919060201c565b60028190555062000976816000808573ffffffffffffffffffffffffffffffffffffffff1673ffffffffffffffffffffffffffffffffffffffff1681526020019081526020016000205462000a8e60201b620032cc1790919060201c565b6000808473ffffffffffffffffffffffffffffffffffffffff1673ffffffffffffffffffffffffffffffffffffffff168152602001908152602001600020819055508173ffffffffffffffffffffffffffffffffffffffff16600073ffffffffffffffffffffffffffffffffffffffff167fddf252ad1be2c89b69c2b068fc378daa952ba7f163c4a11628f55a4df523b3ef836040518082815260200191505060405180910390a35050565b6000600660009054906101000a900473ffffffffffffffffffffffffffffffffffffffff1673ffffffffffffffffffffffffffffffffffffffff1662000a6d6200065860201b60201c565b73ffffffffffffffffffffffffffffffffffffffff1614905090565b505050565b60008082840190508381101562000b0d576040517f08c379a000000000000000000000000000000000000000000000000000000000815260040180806020018281038252601b8152602001807f536166654d6174683a206164646974696f6e206f766572666c6f77000000000081525060200191505060405180910390fd5b8091505092915050565b82805482825590600052602060002090810192821562000b62579160200282015b8281111562000b61578251829067ffffffffffffffff1690559160200191906001019062000b38565b5b50905062000b71919062000c54565b5090565b82805482825590600052602060002090810192821562000bba579160200282015b8281111562000bb9578251829061ffff1690559160200191906001019062000b96565b5b50905062000bc9919062000c54565b5090565b828054600181600116156101000203166002900490600052602060002090601f016020900481019282601f1062000c1057805160ff191683800117855562000c41565b8280016001018555821562000c41579182015b8281111562000c4057825182559160200191906001019062000c23565b5b50905062000c50919062000c54565b5090565b5b8082111562000c6f57600081600090555060010162000c55565b5090565b61471c8062000c836000396000f3fe608060405234801561001057600080fd5b506004361061032b5760003560e01c806370a08231116101b2578063a6431bba116100f9578063dd62ed3e116100a2578063f2fde38b1161007c578063f2fde38b14610f33578063f774110314610f77578063ff87fc7c14610fab578063ffa8226e14610fb55761032b565b8063dd62ed3e14610e43578063ebca1bd914610ebb578063ee2a953514610f155761032b565b8063c3bdf613116100d3578063c3bdf61314610d87578063c6d69a3014610dbb578063cf011b2614610de95761032b565b8063a6431bba14610cb4578063a9059cbb14610cd2578063b87c5a4a14610d365761032b565b80638da5cb5b1161015b5780639662676c116101355780639662676c14610bec5780639d6b5f2114610c0c578063a457c2d714610c505761032b565b80638da5cb5b14610adb57806393995d4b14610b0f57806395d89b4114610b695761032b565b8063771a3a1d1161018c578063771a3a1d14610a4f57806379cc679014610a6d5780638d3cc81814610abb5761032b565b806370a08231146109a9578063715018a614610a0157806375be5ae114610a0b5761032b565b806342966c681161027657806354575af41161021f57806365bbacd9116101f957806365bbacd91461090a57806366206ce91461091457806369356d47146109655761032b565b806354575af414610826578063570ca735146108945780635c29908d146108c85761032b565b80634e20a02c116102505780634e20a02c146107665780634f6d38d014610784578063521181d5146107a25761032b565b806342966c68146106d657806342c6b4f1146107045780634456eda2146107465761032b565b8063313ce567116102d85780633e5f13d4116102b25780633e5f13d4146105fa5780633f07d76a1461062e57806340c10f19146106725761032b565b8063313ce5671461051b5780633758e6ce1461053c57806339509351146105965761032b565b806318160ddd1161030957806318160ddd1461043557806323b872dd1461045357806329605e77146104d75761032b565b806306fdde0314610330578063095ea7b3146103b35780631017bc3614610417575b600080fd5b610338610fd3565b6040518080602001828103825283818151815260200191508051906020019080838360005b8381101561037857808201518184015260208101905061035d565b50505050905090810190601f1680156103a55780820380516001836020036101000a031916815260200191505b509250505060405180910390f35b6103ff600480360360408110156103c957600080fd5b81019080803573ffffffffffffffffffffffffffffffffffffffff16906020019092919080359060200190929190505050611075565b60405180821515815260200191505060405180910390f35b61041f611093565b6040518082815260200191505060405180910390f35b61043d6110a1565b6040518082815260200191505060405180910390f35b6104bf6004803603606081101561046957600080fd5b81019080803573ffffffffffffffffffffffffffffffffffffffff169060200190929190803573ffffffffffffffffffffffffffffffffffffffff169060200190929190803590602001909291905050506110ab565b60405180821515815260200191505060405180910390f35b610519600480360360208110156104ed57600080fd5b81019080803573ffffffffffffffffffffffffffffffffffffffff1690602001909291905050506111c7565b005b610523611282565b604051808260ff16815260200191505060405180910390f35b61057e6004803603602081101561055257600080fd5b81019080803573ffffffffffffffffffffffffffffffffffffffff169060200190929190505050611299565b60405180821515815260200191505060405180910390f35b6105e2600480360360408110156105ac57600080fd5b81019080803573ffffffffffffffffffffffffffffffffffffffff16906020019092919080359060200190929190505050611471565b60405180821515815260200191505060405180910390f35b610602611524565b604051808273ffffffffffffffffffffffffffffffffffffffff16815260200191505060405180910390f35b6106706004803603602081101561064457600080fd5b81019080803573ffffffffffffffffffffffffffffffffffffffff16906020019092919050505061154a565b005b6106be6004803603604081101561068857600080fd5b81019080803573ffffffffffffffffffffffffffffffffffffffff16906020019092919080359060200190929190505050611756565b60405180821515815260200191505060405180910390f35b610702600480360360208110156106ec57600080fd5b810190808035906020019092919050505061182f565b005b6107306004803603602081101561071a57600080fd5b810190808035906020019092919050505061183b565b6040518082815260200191505060405180910390f35b61074e61185c565b60405180821515815260200191505060405180910390f35b61076e6118bb565b6040518082815260200191505060405180910390f35b61078c6118c9565b6040518082815260200191505060405180910390f35b610824600480360360608110156107b857600080fd5b81019080803573ffffffffffffffffffffffffffffffffffffffff169060200190929190803573ffffffffffffffffffffffffffffffffffffffff169060200190929190803573ffffffffffffffffffffffffffffffffffffffff1690602001909291905050506118cf565b005b6108926004803603606081101561083c57600080fd5b81019080803573ffffffffffffffffffffffffffffffffffffffff16906020019092919080359060200190929190803573ffffffffffffffffffffffffffffffffffffffff169060200190929190505050611c3d565b005b61089c611d95565b604051808273ffffffffffffffffffffffffffffffffffffffff16815260200191505060405180910390f35b6108f4600480360360208110156108de57600080fd5b8101908080359060200190929190505050611dbf565b6040518082815260200191505060405180910390f35b610912611de0565b005b61094d6004803603604081101561092a57600080fd5b81019080803560ff16906020019092919080359060200190929190505050611ec0565b60405180821515815260200191505060405180910390f35b6109a76004803603602081101561097b57600080fd5b81019080803573ffffffffffffffffffffffffffffffffffffffff16906020019092919050505061210f565b005b6109eb600480360360208110156109bf57600080fd5b81019080803573ffffffffffffffffffffffffffffffffffffffff16906020019092919050505061229c565b6040518082815260200191505060405180910390f35b610a096122e4565b005b610a4d60048036036020811015610a2157600080fd5b81019080803573ffffffffffffffffffffffffffffffffffffffff169060200190929190505050612454565b005b610a576125d3565b6040518082815260200191505060405180910390f35b610ab960048036036040811015610a8357600080fd5b81019080803573ffffffffffffffffffffffffffffffffffffffff169060200190929190803590602001909291905050506125d9565b005b610ac361268d565b60405180821515815260200191505060405180910390f35b610ae36126a0565b604051808273ffffffffffffffffffffffffffffffffffffffff16815260200191505060405180910390f35b610b5160048036036020811015610b2557600080fd5b81019080803573ffffffffffffffffffffffffffffffffffffffff1690602001909291905050506126ca565b60405180821515815260200191505060405180910390f35b610b716128a1565b6040518080602001828103825283818151815260200191508051906020019080838360005b83811015610bb1578082015181840152602081019050610b96565b50505050905090810190601f168015610bde5780820380516001836020036101000a031916815260200191505b509250505060405180910390f35b610bf4612943565b60405180821515815260200191505060405180910390f35b610c3860048036036020811015610c2257600080fd5b8101908080359060200190929190505050612956565b60405180821515815260200191505060405180910390f35b610c9c60048036036040811015610c6657600080fd5b81019080803573ffffffffffffffffffffffffffffffffffffffff16906020019092919080359060200190929190505050612a27565b60405180821515815260200191505060405180910390f35b610cbc612af4565b6040518082815260200191505060405180910390f35b610d1e60048036036040811015610ce857600080fd5b81019080803573ffffffffffffffffffffffffffffffffffffffff16906020019092919080359060200190929190505050612b01565b60405180821515815260200191505060405180910390f35b610d6f60048036036040811015610d4c57600080fd5b81019080803560ff16906020019092919080359060200190929190505050612b1f565b60405180821515815260200191505060405180910390f35b610d8f612ce9565b604051808273ffffffffffffffffffffffffffffffffffffffff16815260200191505060405180910390f35b610de760048036036020811015610dd157600080fd5b8101908080359060200190929190505050612d0f565b005b610e2b60048036036020811015610dff57600080fd5b81019080803573ffffffffffffffffffffffffffffffffffffffff169060200190929190505050612eb9565b60405180821515815260200191505060405180910390f35b610ea560048036036040811015610e5957600080fd5b81019080803573ffffffffffffffffffffffffffffffffffffffff169060200190929190803573ffffffffffffffffffffffffffffffffffffffff169060200190929190505050612ed9565b6040518082815260200191505060405180910390f35b610efd60048036036020811015610ed157600080fd5b81019080803573ffffffffffffffffffffffffffffffffffffffff169060200190929190505050612f60565b60405180821515815260200191505060405180910390f35b610f1d612fb6565b6040518082815260200191505060405180910390f35b610f7560048036036020811015610f4957600080fd5b81019080803573ffffffffffffffffffffffffffffffffffffffff169060200190929190505050612fc3565b005b610f7f6131b8565b604051808273ffffffffffffffffffffffffffffffffffffffff16815260200191505060405180910390f35b610fb36131de565b005b610fbd6132be565b6040518082815260200191505060405180910390f35b606060038054600181600116156101000203166002900480601f01602080910402602001604051908101604052809291908181526020018280546001816001161561010002031660029004801561106b5780601f106110405761010080835404028352916020019161106b565b820191906000526020600020905b81548152906001019060200180831161104e57829003601f168201915b5050505050905090565b6000611089611082613354565b848461335c565b6001905092915050565b691da56a4b0835bf80000081565b6000600254905090565b600080600090506000600b60149054906101000a900460ff16156110f15760006110d3613553565b90506110de81613692565b9250600a548110156110ef57600191505b505b60008214806111495750600e60008773ffffffffffffffffffffffffffffffffffffffff1673ffffffffffffffffffffffffffffffffffffffff16815260200190815260200160002060009054906101000a900460ff165b1561115e576111598686866137e1565b61116c565b61116a86868684613aa2565b505b6111ba86611178613354565b6111b5876040518060600160405280602881526020016144f2602891396111a68c6111a1613354565b612ed9565b613b439092919063ffffffff16565b61335c565b6001925050509392505050565b6111cf613354565b73ffffffffffffffffffffffffffffffffffffffff166111ed6126a0565b73ffffffffffffffffffffffffffffffffffffffff1614611276576040517f08c379a00000000000000000000000000000000000000000000000000000000081526004018080602001828103825260208152602001807f4f776e61626c653a2063616c6c6572206973206e6f7420746865206f776e657281525060200191505060405180910390fd5b61127f81613bfd565b50565b6000600560009054906101000a900460ff16905090565b60006112a361185c565b806112fb57503373ffffffffffffffffffffffffffffffffffffffff16600860009054906101000a900473ffffffffffffffffffffffffffffffffffffffff1673ffffffffffffffffffffffffffffffffffffffff16145b611350576040517f08c379a000000000000000000000000000000000000000000000000000000000815260040180806020018281038252602c815260200180614646602c913960400191505060405180910390fd5b600e60008373ffffffffffffffffffffffffffffffffffffffff1673ffffffffffffffffffffffffffffffffffffffff16815260200190815260200160002060009054906101000a900460ff1615611410576040517f08c379a00000000000000000000000000000000000000000000000000000000081526004018080602001828103825260198152602001807f616464726573732063616e2774206265206578636c756465640000000000000081525060200191505060405180910390fd5b6001600e60008473ffffffffffffffffffffffffffffffffffffffff1673ffffffffffffffffffffffffffffffffffffffff16815260200190815260200160002060006101000a81548160ff02191690831515021790555060019050919050565b600061151a61147e613354565b84611515856001600061148f613354565b73ffffffffffffffffffffffffffffffffffffffff1673ffffffffffffffffffffffffffffffffffffffff16815260200190815260200160002060008973ffffffffffffffffffffffffffffffffffffffff1673ffffffffffffffffffffffffffffffffffffffff168152602001908152602001600020546132cc90919063ffffffff16565b61335c565b6001905092915050565b600860009054906101000a900473ffffffffffffffffffffffffffffffffffffffff1681565b61155261185c565b806115aa57503373ffffffffffffffffffffffffffffffffffffffff16600860009054906101000a900473ffffffffffffffffffffffffffffffffffffffff1673ffffffffffffffffffffffffffffffffffffffff16145b6115ff576040517f08c379a000000000000000000000000000000000000000000000000000000000815260040180806020018281038252602c815260200180614646602c913960400191505060405180910390fd5b600073ffffffffffffffffffffffffffffffffffffffff168173ffffffffffffffffffffffffffffffffffffffff161415611685576040517f08c379a000000000000000000000000000000000000000000000000000000000815260040180806020018281038252602681526020018061447e6026913960400191505060405180910390fd5b7f75237613d1cfb394eb7979839ecbeacaca4592ef0cf96791979625803948a601600860009054906101000a900473ffffffffffffffffffffffffffffffffffffffff1682604051808373ffffffffffffffffffffffffffffffffffffffff1681526020018273ffffffffffffffffffffffffffffffffffffffff1681526020019250505060405180910390a180600860006101000a81548173ffffffffffffffffffffffffffffffffffffffff021916908373ffffffffffffffffffffffffffffffffffffffff16021790555050565b60003373ffffffffffffffffffffffffffffffffffffffff16600660009054906101000a900473ffffffffffffffffffffffffffffffffffffffff1673ffffffffffffffffffffffffffffffffffffffff16146117fe576040517f08c379a000000000000000000000000000000000000000000000000000000000815260040180806020018281038252602481526020018061456c6024913960400191505060405180910390fd5b60006118098461229c565b90506118158484613d22565b60006118208561229c565b90508181119250505092915050565b61183881613ee9565b50565b600c818154811061184857fe5b906000526020600020016000915090505481565b6000600660009054906101000a900473ffffffffffffffffffffffffffffffffffffffff1673ffffffffffffffffffffffffffffffffffffffff1661189f613354565b73ffffffffffffffffffffffffffffffffffffffff1614905090565b6902544faa778090e0000081565b600a5481565b3373ffffffffffffffffffffffffffffffffffffffff16600660009054906101000a900473ffffffffffffffffffffffffffffffffffffffff1673ffffffffffffffffffffffffffffffffffffffff1614611975576040517f08c379a000000000000000000000000000000000000000000000000000000000815260040180806020018281038252602481526020018061456c6024913960400191505060405180910390fd5b600660149054906101000a900460ff16156119f8576040517f08c379a00000000000000000000000000000000000000000000000000000000081526004018080602001828103825260188152602001807f6f6e6c792063616e2064697374726962757465206f6e6365000000000000000081525060200191505060405180910390fd5b600073ffffffffffffffffffffffffffffffffffffffff168373ffffffffffffffffffffffffffffffffffffffff161415611a9b576040517f08c379a000000000000000000000000000000000000000000000000000000000815260040180806020018281038252600d8152602001807f215f67656e65736973506f6f6c0000000000000000000000000000000000000081525060200191505060405180910390fd5b600073ffffffffffffffffffffffffffffffffffffffff168273ffffffffffffffffffffffffffffffffffffffff161415611b3e576040517f08c379a000000000000000000000000000000000000000000000000000000000815260040180806020018281038252600a8152602001807f215f746f6d62506f6f6c0000000000000000000000000000000000000000000081525060200191505060405180910390fd5b600073ffffffffffffffffffffffffffffffffffffffff168173ffffffffffffffffffffffffffffffffffffffff161415611be1576040517f08c379a000000000000000000000000000000000000000000000000000000000815260040180806020018281038252600f8152602001807f215f61697264726f7057616c6c6574000000000000000000000000000000000081525060200191505060405180910390fd5b6001600660146101000a81548160ff021916908315150217905550611c10836902544faa778090e00000613d22565b611c2482691da56a4b0835bf800000613d22565b611c38816901e7e4171bf4d3a00000613d22565b505050565b3373ffffffffffffffffffffffffffffffffffffffff16600660009054906101000a900473ffffffffffffffffffffffffffffffffffffffff1673ffffffffffffffffffffffffffffffffffffffff1614611ce3576040517f08c379a000000000000000000000000000000000000000000000000000000000815260040180806020018281038252602481526020018061456c6024913960400191505060405180910390fd5b8273ffffffffffffffffffffffffffffffffffffffff1663a9059cbb82846040518363ffffffff1660e01b8152600401808373ffffffffffffffffffffffffffffffffffffffff16815260200182815260200192505050602060405180830381600087803b158015611d5457600080fd5b505af1158015611d68573d6000803e3d6000fd5b505050506040513d6020811015611d7e57600080fd5b810190808051906020019092919050505050505050565b6000600660009054906101000a900473ffffffffffffffffffffffffffffffffffffffff16905090565b600d8181548110611dcc57fe5b906000526020600020016000915090505481565b3373ffffffffffffffffffffffffffffffffffffffff16600860009054906101000a900473ffffffffffffffffffffffffffffffffffffffff1673ffffffffffffffffffffffffffffffffffffffff1614611ea3576040517f08c379a000000000000000000000000000000000000000000000000000000000815260040180806020018281038252601c8152602001807f43616c6c6572206973206e6f742074686520746178206f66666963650000000081525060200191505060405180910390fd5b6000600b60146101000a81548160ff021916908315150217905550565b60003373ffffffffffffffffffffffffffffffffffffffff16600860009054906101000a900473ffffffffffffffffffffffffffffffffffffffff1673ffffffffffffffffffffffffffffffffffffffff1614611f85576040517f08c379a000000000000000000000000000000000000000000000000000000000815260040180806020018281038252601c8152602001807f43616c6c6572206973206e6f742074686520746178206f66666963650000000081525060200191505060405180910390fd5b60008360ff161015611fff576040517f08c379a000000000000000000000000000000000000000000000000000000000815260040180806020018281038252601d8152602001807f496e6465782068617320746f20626520686967686572207468616e203000000081525060200191505060405180910390fd5b612007612af4565b8360ff1610612061576040517f08c379a000000000000000000000000000000000000000000000000000000000815260040180806020018281038252602a815260200180614590602a913960400191505060405180910390fd5b60008360ff16111561209757600c6001840360ff168154811061208057fe5b9060005260206000200154821161209657600080fd5b5b6120b260016120a4612af4565b613efd90919063ffffffff16565b8360ff1610156120e657600c6001840160ff16815481106120cf57fe5b906000526020600020015482106120e557600080fd5b5b81600c8460ff16815481106120f757fe5b90600052602060002001819055506001905092915050565b3373ffffffffffffffffffffffffffffffffffffffff16600860009054906101000a900473ffffffffffffffffffffffffffffffffffffffff1673ffffffffffffffffffffffffffffffffffffffff16146121d2576040517f08c379a000000000000000000000000000000000000000000000000000000000815260040180806020018281038252601c8152602001807f43616c6c6572206973206e6f742074686520746178206f66666963650000000081525060200191505060405180910390fd5b600073ffffffffffffffffffffffffffffffffffffffff168173ffffffffffffffffffffffffffffffffffffffff161415612258576040517f08c379a000000000000000000000000000000000000000000000000000000000815260040180806020018281038252602e81526020018061451a602e913960400191505060405180910390fd5b80600b60006101000a81548173ffffffffffffffffffffffffffffffffffffffff021916908373ffffffffffffffffffffffffffffffffffffffff16021790555050565b60008060008373ffffffffffffffffffffffffffffffffffffffff1673ffffffffffffffffffffffffffffffffffffffff168152602001908152602001600020549050919050565b6122ec613354565b73ffffffffffffffffffffffffffffffffffffffff1661230a6126a0565b73ffffffffffffffffffffffffffffffffffffffff1614612393576040517f08c379a00000000000000000000000000000000000000000000000000000000081526004018080602001828103825260208152602001807f4f776e61626c653a2063616c6c6572206973206e6f7420746865206f776e657281525060200191505060405180910390fd5b600073ffffffffffffffffffffffffffffffffffffffff16600560019054906101000a900473ffffffffffffffffffffffffffffffffffffffff1673ffffffffffffffffffffffffffffffffffffffff167f8be0079c531659141344cd1fd0a4f28419497f9722a3daafe3b4186f6b6457e060405160405180910390a36000600560016101000a81548173ffffffffffffffffffffffffffffffffffffffff021916908373ffffffffffffffffffffffffffffffffffffffff160217905550565b61245c61185c565b806124b457503373ffffffffffffffffffffffffffffffffffffffff16600860009054906101000a900473ffffffffffffffffffffffffffffffffffffffff1673ffffffffffffffffffffffffffffffffffffffff16145b612509576040517f08c379a000000000000000000000000000000000000000000000000000000000815260040180806020018281038252602c815260200180614646602c913960400191505060405180910390fd5b600073ffffffffffffffffffffffffffffffffffffffff168173ffffffffffffffffffffffffffffffffffffffff16141561258f576040517f08c379a00000000000000000000000000000000000000000000000000000000081526004018080602001828103825260228152602001806145db6022913960400191505060405180910390fd5b80600760006101000a81548173ffffffffffffffffffffffffffffffffffffffff021916908373ffffffffffffffffffffffffffffffffffffffff16021790555050565b60095481565b3373ffffffffffffffffffffffffffffffffffffffff16600660009054906101000a900473ffffffffffffffffffffffffffffffffffffffff1673ffffffffffffffffffffffffffffffffffffffff161461267f576040517f08c379a000000000000000000000000000000000000000000000000000000000815260040180806020018281038252602481526020018061456c6024913960400191505060405180910390fd5b6126898282613f80565b5050565b600b60149054906101000a900460ff1681565b6000600560019054906101000a900473ffffffffffffffffffffffffffffffffffffffff16905090565b60006126d461185c565b8061272c57503373ffffffffffffffffffffffffffffffffffffffff16600860009054906101000a900473ffffffffffffffffffffffffffffffffffffffff1673ffffffffffffffffffffffffffffffffffffffff16145b612781576040517f08c379a000000000000000000000000000000000000000000000000000000000815260040180806020018281038252602c815260200180614646602c913960400191505060405180910390fd5b600e60008373ffffffffffffffffffffffffffffffffffffffff1673ffffffffffffffffffffffffffffffffffffffff16815260200190815260200160002060009054906101000a900460ff16612840576040517f08c379a00000000000000000000000000000000000000000000000000000000081526004018080602001828103825260198152602001807f616464726573732063616e277420626520696e636c756465640000000000000081525060200191505060405180910390fd5b6000600e60008473ffffffffffffffffffffffffffffffffffffffff1673ffffffffffffffffffffffffffffffffffffffff16815260200190815260200160002060006101000a81548160ff02191690831515021790555060019050919050565b606060048054600181600116156101000203166002900480601f0160208091040260200160405190810160405280929190818152602001828054600181600116156101000203166002900480156129395780601f1061290e57610100808354040283529160200191612939565b820191906000526020600020905b81548152906001019060200180831161291c57829003601f168201915b5050505050905090565b600660149054906101000a900460ff1681565b60003373ffffffffffffffffffffffffffffffffffffffff16600860009054906101000a900473ffffffffffffffffffffffffffffffffffffffff1673ffffffffffffffffffffffffffffffffffffffff1614612a1b576040517f08c379a000000000000000000000000000000000000000000000000000000000815260040180806020018281038252601c8152602001807f43616c6c6572206973206e6f742074686520746178206f66666963650000000081525060200191505060405180910390fd5b81600a81905550919050565b6000612aea612a34613354565b84612ae5856040518060600160405280602581526020016146c26025913960016000612a5e613354565b73ffffffffffffffffffffffffffffffffffffffff1673ffffffffffffffffffffffffffffffffffffffff16815260200190815260200160002060008a73ffffffffffffffffffffffffffffffffffffffff1673ffffffffffffffffffffffffffffffffffffffff16815260200190815260200160002054613b439092919063ffffffff16565b61335c565b6001905092915050565b6000600c80549050905090565b6000612b15612b0e613354565b84846137e1565b6001905092915050565b60003373ffffffffffffffffffffffffffffffffffffffff16600860009054906101000a900473ffffffffffffffffffffffffffffffffffffffff1673ffffffffffffffffffffffffffffffffffffffff1614612be4576040517f08c379a000000000000000000000000000000000000000000000000000000000815260040180806020018281038252601c8152602001807f43616c6c6572206973206e6f742074686520746178206f66666963650000000081525060200191505060405180910390fd5b60008360ff161015612c5e576040517f08c379a000000000000000000000000000000000000000000000000000000000815260040180806020018281038252601d8152602001807f496e6465782068617320746f20626520686967686572207468616e203000000081525060200191505060405180910390fd5b612c66612fb6565b8360ff1610612cc0576040517f08c379a000000000000000000000000000000000000000000000000000000000815260040180806020018281038252602a815260200180614590602a913960400191505060405180910390fd5b81600d8460ff1681548110612cd157fe5b90600052602060002001819055506001905092915050565b600b60009054906101000a900473ffffffffffffffffffffffffffffffffffffffff1681565b3373ffffffffffffffffffffffffffffffffffffffff16600860009054906101000a900473ffffffffffffffffffffffffffffffffffffffff1673ffffffffffffffffffffffffffffffffffffffff1614612dd2576040517f08c379a000000000000000000000000000000000000000000000000000000000815260040180806020018281038252601c8152602001807f43616c6c6572206973206e6f742074686520746178206f66666963650000000081525060200191505060405180910390fd5b600b60149054906101000a900460ff1615612e38576040517f08c379a00000000000000000000000000000000000000000000000000000000081526004018080602001828103825260248152602001806145fd6024913960400191505060405180910390fd5b6127108110612eaf576040517f08c379a000000000000000000000000000000000000000000000000000000000815260040180806020018281038252601b8152602001807f74617820657175616c206f722062696767657220746f2031303025000000000081525060200191505060405180910390fd5b8060098190555050565b600e6020528060005260406000206000915054906101000a900460ff1681565b6000600160008473ffffffffffffffffffffffffffffffffffffffff1673ffffffffffffffffffffffffffffffffffffffff16815260200190815260200160002060008373ffffffffffffffffffffffffffffffffffffffff1673ffffffffffffffffffffffffffffffffffffffff16815260200190815260200160002054905092915050565b6000600e60008373ffffffffffffffffffffffffffffffffffffffff1673ffffffffffffffffffffffffffffffffffffffff16815260200190815260200160002060009054906101000a900460ff169050919050565b6000600d80549050905090565b612fcb613354565b73ffffffffffffffffffffffffffffffffffffffff16612fe96126a0565b73ffffffffffffffffffffffffffffffffffffffff1614613072576040517f08c379a00000000000000000000000000000000000000000000000000000000081526004018080602001828103825260208152602001807f4f776e61626c653a2063616c6c6572206973206e6f7420746865206f776e657281525060200191505060405180910390fd5b600073ffffffffffffffffffffffffffffffffffffffff168173ffffffffffffffffffffffffffffffffffffffff1614156130f8576040517f08c379a00000000000000000000000000000000000000000000000000000000081526004018080602001828103825260268152602001806144106026913960400191505060405180910390fd5b8073ffffffffffffffffffffffffffffffffffffffff16600560019054906101000a900473ffffffffffffffffffffffffffffffffffffffff1673ffffffffffffffffffffffffffffffffffffffff167f8be0079c531659141344cd1fd0a4f28419497f9722a3daafe3b4186f6b6457e060405160405180910390a380600560016101000a81548173ffffffffffffffffffffffffffffffffffffffff021916908373ffffffffffffffffffffffffffffffffffffffff16021790555050565b600760009054906101000a900473ffffffffffffffffffffffffffffffffffffffff1681565b3373ffffffffffffffffffffffffffffffffffffffff16600860009054906101000a900473ffffffffffffffffffffffffffffffffffffffff1673ffffffffffffffffffffffffffffffffffffffff16146132a1576040517f08c379a000000000000000000000000000000000000000000000000000000000815260040180806020018281038252601c8152602001807f43616c6c6572206973206e6f742074686520746178206f66666963650000000081525060200191505060405180910390fd5b6001600b60146101000a81548160ff021916908315150217905550565b6901e7e4171bf4d3a0000081565b60008082840190508381101561334a576040517f08c379a000000000000000000000000000000000000000000000000000000000815260040180806020018281038252601b8152602001807f536166654d6174683a206164646974696f6e206f766572666c6f77000000000081525060200191505060405180910390fd5b8091505092915050565b600033905090565b600073ffffffffffffffffffffffffffffffffffffffff168373ffffffffffffffffffffffffffffffffffffffff1614156133e2576040517f08c379a00000000000000000000000000000000000000000000000000000000081526004018080602001828103825260248152602001806146726024913960400191505060405180910390fd5b600073ffffffffffffffffffffffffffffffffffffffff168273ffffffffffffffffffffffffffffffffffffffff161415613468576040517f08c379a00000000000000000000000000000000000000000000000000000000081526004018080602001828103825260228152602001806144366022913960400191505060405180910390fd5b80600160008573ffffffffffffffffffffffffffffffffffffffff1673ffffffffffffffffffffffffffffffffffffffff16815260200190815260200160002060008473ffffffffffffffffffffffffffffffffffffffff1673ffffffffffffffffffffffffffffffffffffffff168152602001908152602001600020819055508173ffffffffffffffffffffffffffffffffffffffff168373ffffffffffffffffffffffffffffffffffffffff167f8c5be1e5ebec7d5bd14f71427d1e84f3dd0314c0f7b2291e5b200ac8c7c3b925836040518082815260200191505060405180910390a3505050565b6000600760009054906101000a900473ffffffffffffffffffffffffffffffffffffffff1673ffffffffffffffffffffffffffffffffffffffff16633ddac95330670de0b6b3a76400006040518363ffffffff1660e01b8152600401808373ffffffffffffffffffffffffffffffffffffffff1681526020018281526020019250505060206040518083038186803b1580156135ee57600080fd5b505afa92505050801561362257506040513d602081101561360e57600080fd5b810190808051906020019092919050505060015b613677576040517f08c379a000000000000000000000000000000000000000000000000000000000815260040180806020018281038252602c815260200180614696602c913960400191505060405180910390fd5b8071ffffffffffffffffffffffffffffffffffff1691505090565b6000600b60149054906101000a900460ff16156137db5760006136c960016136b8612af4565b60ff16613fe290919063ffffffff16565b90505b60008160ff16106137d957600c8160ff16815481106136e757fe5b906000526020600020015483106137cd57612710600d8260ff168154811061370b57fe5b906000526020600020015410613789576040517f08c379a000000000000000000000000000000000000000000000000000000000815260040180806020018281038252601b8152602001807f74617820657175616c206f722062696767657220746f2031303025000000000081525060200191505060405180910390fd5b600d8160ff168154811061379957fe5b9060005260206000200154600981905550600d8160ff16815481106137ba57fe5b90600052602060002001549150506137dc565b806001900390506136cc565b505b5b919050565b600073ffffffffffffffffffffffffffffffffffffffff168373ffffffffffffffffffffffffffffffffffffffff161415613867576040517f08c379a00000000000000000000000000000000000000000000000000000000081526004018080602001828103825260258152602001806146216025913960400191505060405180910390fd5b600073ffffffffffffffffffffffffffffffffffffffff168273ffffffffffffffffffffffffffffffffffffffff1614156138ed576040517f08c379a00000000000000000000000000000000000000000000000000000000081526004018080602001828103825260238152602001806143cb6023913960400191505060405180910390fd5b6138f883838361402c565b61396381604051806060016040528060268152602001614458602691396000808773ffffffffffffffffffffffffffffffffffffffff1673ffffffffffffffffffffffffffffffffffffffff16815260200190815260200160002054613b439092919063ffffffff16565b6000808573ffffffffffffffffffffffffffffffffffffffff1673ffffffffffffffffffffffffffffffffffffffff168152602001908152602001600020819055506139f6816000808573ffffffffffffffffffffffffffffffffffffffff1673ffffffffffffffffffffffffffffffffffffffff168152602001908152602001600020546132cc90919063ffffffff16565b6000808473ffffffffffffffffffffffffffffffffffffffff1673ffffffffffffffffffffffffffffffffffffffff168152602001908152602001600020819055508173ffffffffffffffffffffffffffffffffffffffff168373ffffffffffffffffffffffffffffffffffffffff167fddf252ad1be2c89b69c2b068fc378daa952ba7f163c4a11628f55a4df523b3ef836040518082815260200191505060405180910390a3505050565b600080613ace612710613ac06009548761403190919063ffffffff16565b6140b790919063ffffffff16565b90506000613ae58286613efd90919063ffffffff16565b90508315613afc57613af78783613f80565b613b2a565b613b2987600b60009054906101000a900473ffffffffffffffffffffffffffffffffffffffff16846137e1565b5b613b358787836137e1565b600192505050949350505050565b6000838311158290613bf0576040517f08c379a00000000000000000000000000000000000000000000000000000000081526004018080602001828103825283818151815260200191508051906020019080838360005b83811015613bb5578082015181840152602081019050613b9a565b50505050905090810190601f168015613be25780820380516001836020036101000a031916815260200191505b509250505060405180910390fd5b5082840390509392505050565b600073ffffffffffffffffffffffffffffffffffffffff168173ffffffffffffffffffffffffffffffffffffffff161415613c83576040517f08c379a000000000000000000000000000000000000000000000000000000000815260040180806020018281038252602d8152602001806144a4602d913960400191505060405180910390fd5b8073ffffffffffffffffffffffffffffffffffffffff16600073ffffffffffffffffffffffffffffffffffffffff167f74da04524d50c64947f5dd5381ef1a4dca5cba8ed1d816243f9e48aa0b5617ed60405160405180910390a380600660006101000a81548173ffffffffffffffffffffffffffffffffffffffff021916908373ffffffffffffffffffffffffffffffffffffffff16021790555050565b600073ffffffffffffffffffffffffffffffffffffffff168273ffffffffffffffffffffffffffffffffffffffff161415613dc5576040517f08c379a000000000000000000000000000000000000000000000000000000000815260040180806020018281038252601f8152602001807f45524332303a206d696e7420746f20746865207a65726f20616464726573730081525060200191505060405180910390fd5b613dd16000838361402c565b613de6816002546132cc90919063ffffffff16565b600281905550613e3d816000808573ffffffffffffffffffffffffffffffffffffffff1673ffffffffffffffffffffffffffffffffffffffff168152602001908152602001600020546132cc90919063ffffffff16565b6000808473ffffffffffffffffffffffffffffffffffffffff1673ffffffffffffffffffffffffffffffffffffffff168152602001908152602001600020819055508173ffffffffffffffffffffffffffffffffffffffff16600073ffffffffffffffffffffffffffffffffffffffff167fddf252ad1be2c89b69c2b068fc378daa952ba7f163c4a11628f55a4df523b3ef836040518082815260200191505060405180910390a35050565b613efa613ef4613354565b82614140565b50565b600082821115613f75576040517f08c379a000000000000000000000000000000000000000000000000000000000815260040180806020018281038252601e8152602001807f536166654d6174683a207375627472616374696f6e206f766572666c6f77000081525060200191505060405180910390fd5b818303905092915050565b6000613fbf8260405180606001604052806024815260200161454860249139613fb086613fab613354565b612ed9565b613b439092919063ffffffff16565b9050613fd383613fcd613354565b8361335c565b613fdd8383614140565b505050565b600061402483836040518060400160405280601e81526020017f536166654d6174683a207375627472616374696f6e206f766572666c6f770000815250614304565b905092915050565b505050565b60008083141561404457600090506140b1565b600082840290508284828161405557fe5b04146140ac576040517f08c379a00000000000000000000000000000000000000000000000000000000081526004018080602001828103825260218152602001806144d16021913960400191505060405180910390fd5b809150505b92915050565b600080821161412e576040517f08c379a000000000000000000000000000000000000000000000000000000000815260040180806020018281038252601a8152602001807f536166654d6174683a206469766973696f6e206279207a65726f00000000000081525060200191505060405180910390fd5b81838161413757fe5b04905092915050565b600073ffffffffffffffffffffffffffffffffffffffff168273ffffffffffffffffffffffffffffffffffffffff1614156141c6576040517f08c379a00000000000000000000000000000000000000000000000000000000081526004018080602001828103825260218152602001806145ba6021913960400191505060405180910390fd5b6141d28260008361402c565b61423d816040518060600160405280602281526020016143ee602291396000808673ffffffffffffffffffffffffffffffffffffffff1673ffffffffffffffffffffffffffffffffffffffff16815260200190815260200160002054613b439092919063ffffffff16565b6000808473ffffffffffffffffffffffffffffffffffffffff1673ffffffffffffffffffffffffffffffffffffffff1681526020019081526020016000208190555061429481600254613efd90919063ffffffff16565b600281905550600073ffffffffffffffffffffffffffffffffffffffff168273ffffffffffffffffffffffffffffffffffffffff167fddf252ad1be2c89b69c2b068fc378daa952ba7f163c4a11628f55a4df523b3ef836040518082815260200191505060405180910390a35050565b60008360ff168360ff16111582906143b7576040517f08c379a00000000000000000000000000000000000000000000000000000000081526004018080602001828103825283818151815260200191508051906020019080838360005b8381101561437c578082015181840152602081019050614361565b50505050905090810190601f1680156143a95780820380516001836020036101000a031916815260200191505b509250505060405180910390fd5b506000838503905080915050939250505056fe45524332303a207472616e7366657220746f20746865207a65726f206164647265737345524332303a206275726e20616d6f756e7420657863656564732062616c616e63654f776e61626c653a206e6577206f776e657220697320746865207a65726f206164647265737345524332303a20617070726f766520746f20746865207a65726f206164647265737345524332303a207472616e7366657220616d6f756e7420657863656564732062616c616e6365746178206f666669636520616464726573732063616e6e6f74206265203020616464726573736f70657261746f723a207a65726f206164647265737320676976656e20666f72206e6577206f70657261746f72536166654d6174683a206d756c7469706c69636174696f6e206f766572666c6f7745524332303a207472616e7366657220616d6f756e74206578636565647320616c6c6f77616e636574617820636f6c6c6563746f722061646472657373206d757374206265206e6f6e2d7a65726f206164647265737345524332303a206275726e20616d6f756e74206578636565647320616c6c6f77616e63656f70657261746f723a2063616c6c6572206973206e6f7420746865206f70657261746f72496e6465782068617320746f206c6f776572207468616e20636f756e74206f662074617820746965727345524332303a206275726e2066726f6d20746865207a65726f20616464726573736f7261636c6520616464726573732063616e6e6f74206265203020616464726573736175746f2063616c63756c617465207461782063616e6e6f7420626520656e61626c656445524332303a207472616e736665722066726f6d20746865207a65726f206164647265737343616c6c6572206973206e6f7420746865206f70657261746f72206f722074686520746178206f666669636545524332303a20617070726f76652066726f6d20746865207a65726f2061646472657373546f6d623a206661696c656420746f20666574636820544f4d422070726963652066726f6d204f7261636c6545524332303a2064656372656173656420616c6c6f77616e63652062656c6f77207a65726fa264697066735822122069b41646430b1d561c022c3e2051d6269a857f2532aabbce5610b49a28cdee9464736f6c634300060c003374617820636f6c6c6563746f722061646472657373206d757374206265206e6f6e2d7a65726f206164647265737343616c6c6572206973206e6f7420746865206f70657261746f72206f722074686520746178206f6666696365",
  "immutableReferences": {},
  "source": "// SPDX-License-Identifier: MIT\r\n\r\npragma solidity 0.6.12;\r\n\r\nimport \"@openzeppelin/contracts/token/ERC20/ERC20Burnable.sol\";\r\nimport \"@openzeppelin/contracts/math/Math.sol\";\r\n\r\nimport \"./lib/SafeMath8.sol\";\r\nimport \"./owner/Operator.sol\";\r\nimport \"./interfaces/IOracle.sol\";\r\n\r\n/*\r\n  ______                __       _______\r\n /_  __/___  ____ ___  / /_     / ____(_)___  ____ _____  ________\r\n  / / / __ \\/ __ `__ \\/ __ \\   / /_  / / __ \\/ __ `/ __ \\/ ___/ _ \\\r\n / / / /_/ / / / / / / /_/ /  / __/ / / / / / /_/ / / / / /__/  __/\r\n/_/  \\____/_/ /_/ /_/_.___/  /_/   /_/_/ /_/\\__,_/_/ /_/\\___/\\___/\r\n\r\n    http://tomb.finance\r\n*/\r\ncontract Tomb is ERC20Burnable, Operator {\r\n    using SafeMath8 for uint8;\r\n    using SafeMath for uint256;\r\n\r\n    // Initial distribution for the first 24h genesis pools\r\n    uint256 public constant INITIAL_GENESIS_POOL_DISTRIBUTION = 11000 ether;\r\n    // Initial distribution for the day 2-5 TOMB-WFTM LP -> TOMB pool\r\n    uint256 public constant INITIAL_TOMB_POOL_DISTRIBUTION = 140000 ether;\r\n    // Distribution for airdrops wallet\r\n    uint256 public constant INITIAL_AIRDROP_WALLET_DISTRIBUTION = 9000 ether;\r\n\r\n    // Have the rewards been distributed to the pools\r\n    bool public rewardPoolDistributed = false;\r\n\r\n    /* ================= Taxation =============== */\r\n    // Address of the Oracle\r\n    address public tombOracle;\r\n    // Address of the Tax Office\r\n    address public taxOffice;\r\n\r\n    // Current tax rate\r\n    uint256 public taxRate;\r\n    // Price threshold below which taxes will get burned\r\n    uint256 public burnThreshold = 1.10e18;\r\n    // Address of the tax collector wallet\r\n    address public taxCollectorAddress;\r\n\r\n    // Should the taxes be calculated using the tax tiers\r\n    bool public autoCalculateTax;\r\n\r\n    // Tax Tiers\r\n    uint256[] public taxTiersTwaps = [0, 5e17, 6e17, 7e17, 8e17, 9e17, 9.5e17, 1e18, 1.05e18, 1.10e18, 1.20e18, 1.30e18, 1.40e18, 1.50e18];\r\n    uint256[] public taxTiersRates = [2000, 1900, 1800, 1700, 1600, 1500, 1500, 1500, 1500, 1400, 900, 400, 200, 100];\r\n\r\n    // Sender addresses excluded from Tax\r\n    mapping(address => bool) public excludedAddresses;\r\n\r\n    event TaxOfficeTransferred(address oldAddress, address newAddress);\r\n\r\n    modifier onlyTaxOffice() {\r\n        require(taxOffice == msg.sender, \"Caller is not the tax office\");\r\n        _;\r\n    }\r\n\r\n    modifier onlyOperatorOrTaxOffice() {\r\n        require(isOperator() || taxOffice == msg.sender, \"Caller is not the operator or the tax office\");\r\n        _;\r\n    }\r\n\r\n    /**\r\n     * @notice Constructs the TOMB ERC-20 contract.\r\n     */\r\n    constructor(uint256 _taxRate, address _taxCollectorAddress) public ERC20(\"TOMB\", \"TOMB\") {\r\n        // Mints 1 TOMB to contract creator for initial pool setup\r\n        require(_taxRate < 10000, \"tax equal or bigger to 100%\");\r\n        require(_taxCollectorAddress != address(0), \"tax collector address must be non-zero address\");\r\n\r\n        excludeAddress(address(this));\r\n\r\n        _mint(msg.sender, 1 ether);\r\n        taxRate = _taxRate;\r\n        taxCollectorAddress = _taxCollectorAddress;\r\n    }\r\n\r\n    /* ============= Taxation ============= */\r\n\r\n    function getTaxTiersTwapsCount() public view returns (uint256 count) {\r\n        return taxTiersTwaps.length;\r\n    }\r\n\r\n    function getTaxTiersRatesCount() public view returns (uint256 count) {\r\n        return taxTiersRates.length;\r\n    }\r\n\r\n    function isAddressExcluded(address _address) public view returns (bool) {\r\n        return excludedAddresses[_address];\r\n    }\r\n\r\n    function setTaxTiersTwap(uint8 _index, uint256 _value) public onlyTaxOffice returns (bool) {\r\n        require(_index >= 0, \"Index has to be higher than 0\");\r\n        require(_index < getTaxTiersTwapsCount(), \"Index has to lower than count of tax tiers\");\r\n        if (_index > 0) {\r\n            require(_value > taxTiersTwaps[_index - 1]);\r\n        }\r\n        if (_index < getTaxTiersTwapsCount().sub(1)) {\r\n            require(_value < taxTiersTwaps[_index + 1]);\r\n        }\r\n        taxTiersTwaps[_index] = _value;\r\n        return true;\r\n    }\r\n\r\n    function setTaxTiersRate(uint8 _index, uint256 _value) public onlyTaxOffice returns (bool) {\r\n        require(_index >= 0, \"Index has to be higher than 0\");\r\n        require(_index < getTaxTiersRatesCount(), \"Index has to lower than count of tax tiers\");\r\n        taxTiersRates[_index] = _value;\r\n        return true;\r\n    }\r\n\r\n    function setBurnThreshold(uint256 _burnThreshold) public onlyTaxOffice returns (bool) {\r\n        burnThreshold = _burnThreshold;\r\n    }\r\n\r\n    function _getTombPrice() internal view returns (uint256 _tombPrice) {\r\n        try IOracle(tombOracle).consult(address(this), 1e18) returns (uint144 _price) {\r\n            return uint256(_price);\r\n        } catch {\r\n            revert(\"Tomb: failed to fetch TOMB price from Oracle\");\r\n        }\r\n    }\r\n\r\n    function _updateTaxRate(uint256 _tombPrice) internal returns (uint256){\r\n        if (autoCalculateTax) {\r\n            for (uint8 tierId = uint8(getTaxTiersTwapsCount()).sub(1); tierId >= 0; --tierId) {\r\n                if (_tombPrice >= taxTiersTwaps[tierId]) {\r\n                    require(taxTiersRates[tierId] < 10000, \"tax equal or bigger to 100%\");\r\n                    taxRate = taxTiersRates[tierId];\r\n                    return taxTiersRates[tierId];\r\n                }\r\n            }\r\n        }\r\n    }\r\n\r\n    function enableAutoCalculateTax() public onlyTaxOffice {\r\n        autoCalculateTax = true;\r\n    }\r\n\r\n    function disableAutoCalculateTax() public onlyTaxOffice {\r\n        autoCalculateTax = false;\r\n    }\r\n\r\n    function setTombOracle(address _tombOracle) public onlyOperatorOrTaxOffice {\r\n        require(_tombOracle != address(0), \"oracle address cannot be 0 address\");\r\n        tombOracle = _tombOracle;\r\n    }\r\n\r\n    function setTaxOffice(address _taxOffice) public onlyOperatorOrTaxOffice {\r\n        require(_taxOffice != address(0), \"tax office address cannot be 0 address\");\r\n        emit TaxOfficeTransferred(taxOffice, _taxOffice);\r\n        taxOffice = _taxOffice;\r\n    }\r\n\r\n    function setTaxCollectorAddress(address _taxCollectorAddress) public onlyTaxOffice {\r\n        require(_taxCollectorAddress != address(0), \"tax collector address must be non-zero address\");\r\n        taxCollectorAddress = _taxCollectorAddress;\r\n    }\r\n\r\n    function setTaxRate(uint256 _taxRate) public onlyTaxOffice {\r\n        require(!autoCalculateTax, \"auto calculate tax cannot be enabled\");\r\n        require(_taxRate < 10000, \"tax equal or bigger to 100%\");\r\n        taxRate = _taxRate;\r\n    }\r\n\r\n    function excludeAddress(address _address) public onlyOperatorOrTaxOffice returns (bool) {\r\n        require(!excludedAddresses[_address], \"address can't be excluded\");\r\n        excludedAddresses[_address] = true;\r\n        return true;\r\n    }\r\n\r\n    function includeAddress(address _address) public onlyOperatorOrTaxOffice returns (bool) {\r\n        require(excludedAddresses[_address], \"address can't be included\");\r\n        excludedAddresses[_address] = false;\r\n        return true;\r\n    }\r\n\r\n    /**\r\n     * @notice Operator mints TOMB to a recipient\r\n     * @param recipient_ The address of recipient\r\n     * @param amount_ The amount of TOMB to mint to\r\n     * @return whether the process has been done\r\n     */\r\n    function mint(address recipient_, uint256 amount_) public onlyOperator returns (bool) {\r\n        uint256 balanceBefore = balanceOf(recipient_);\r\n        _mint(recipient_, amount_);\r\n        uint256 balanceAfter = balanceOf(recipient_);\r\n\r\n        return balanceAfter > balanceBefore;\r\n    }\r\n\r\n    function burn(uint256 amount) public override {\r\n        super.burn(amount);\r\n    }\r\n\r\n    function burnFrom(address account, uint256 amount) public override onlyOperator {\r\n        super.burnFrom(account, amount);\r\n    }\r\n\r\n    function transferFrom(\r\n        address sender,\r\n        address recipient,\r\n        uint256 amount\r\n    ) public override returns (bool) {\r\n        uint256 currentTaxRate = 0;\r\n        bool burnTax = false;\r\n\r\n        if (autoCalculateTax) {\r\n            uint256 currentTombPrice = _getTombPrice();\r\n            currentTaxRate = _updateTaxRate(currentTombPrice);\r\n            if (currentTombPrice < burnThreshold) {\r\n                burnTax = true;\r\n            }\r\n        }\r\n\r\n\r\n        if (currentTaxRate == 0 || excludedAddresses[sender]) {\r\n            _transfer(sender, recipient, amount);\r\n        } else {\r\n            _transferWithTax(sender, recipient, amount, burnTax);\r\n        }\r\n\r\n        _approve(sender, _msgSender(), allowance(sender, _msgSender()).sub(amount, \"ERC20: transfer amount exceeds allowance\"));\r\n        return true;\r\n    }\r\n\r\n    function _transferWithTax(\r\n        address sender,\r\n        address recipient,\r\n        uint256 amount,\r\n        bool burnTax\r\n    ) internal returns (bool) {\r\n        uint256 taxAmount = amount.mul(taxRate).div(10000);\r\n        uint256 amountAfterTax = amount.sub(taxAmount);\r\n\r\n        if(burnTax) {\r\n            // Burn tax\r\n            super.burnFrom(sender, taxAmount);\r\n        } else {\r\n            // Transfer tax to tax collector\r\n            _transfer(sender, taxCollectorAddress, taxAmount);\r\n        }\r\n\r\n        // Transfer amount after tax to recipient\r\n        _transfer(sender, recipient, amountAfterTax);\r\n\r\n        return true;\r\n    }\r\n\r\n    /**\r\n     * @notice distribute to reward pool (only once)\r\n     */\r\n    function distributeReward(\r\n        address _genesisPool,\r\n        address _tombPool,\r\n        address _airdropWallet\r\n    ) external onlyOperator {\r\n        require(!rewardPoolDistributed, \"only can distribute once\");\r\n        require(_genesisPool != address(0), \"!_genesisPool\");\r\n        require(_tombPool != address(0), \"!_tombPool\");\r\n        require(_airdropWallet != address(0), \"!_airdropWallet\");\r\n        rewardPoolDistributed = true;\r\n        _mint(_genesisPool, INITIAL_GENESIS_POOL_DISTRIBUTION);\r\n        _mint(_tombPool, INITIAL_TOMB_POOL_DISTRIBUTION);\r\n        _mint(_airdropWallet, INITIAL_AIRDROP_WALLET_DISTRIBUTION);\r\n    }\r\n\r\n    function governanceRecoverUnsupported(\r\n        IERC20 _token,\r\n        uint256 _amount,\r\n        address _to\r\n    ) external onlyOperator {\r\n        _token.transfer(_to, _amount);\r\n    }\r\n}",
  "sourcePath": "C:\\Users\\kiera\\Desktop\\New folder\\TombFork\\contracts\\Tomb.sol",
  "compiler": {
    "name": "solc",
    "version": "0.6.12+commit.27d51765.Emscripten.clang"
  },
  "schemaVersion": "3.4.3",
  "updatedAt": "2022-04-09T16:42:14.945Z",
  "networkType": "ethereum",
  "devdoc": {
    "kind": "dev",
    "methods": {
      "allowance(address,address)": {
        "details": "See {IERC20-allowance}."
      },
      "approve(address,uint256)": {
        "details": "See {IERC20-approve}. Requirements: - `spender` cannot be the zero address."
      },
      "balanceOf(address)": {
        "details": "See {IERC20-balanceOf}."
      },
      "burn(uint256)": {
        "details": "Destroys `amount` tokens from the caller. See {ERC20-_burn}."
      },
      "burnFrom(address,uint256)": {
        "details": "Destroys `amount` tokens from `account`, deducting from the caller's allowance. See {ERC20-_burn} and {ERC20-allowance}. Requirements: - the caller must have allowance for ``accounts``'s tokens of at least `amount`."
      },
      "decimals()": {
        "details": "Returns the number of decimals used to get its user representation. For example, if `decimals` equals `2`, a balance of `505` tokens should be displayed to a user as `5,05` (`505 / 10 ** 2`). Tokens usually opt for a value of 18, imitating the relationship between Ether and Wei. This is the value {ERC20} uses, unless {_setupDecimals} is called. NOTE: This information is only used for _display_ purposes: it in no way affects any of the arithmetic of the contract, including {IERC20-balanceOf} and {IERC20-transfer}."
      },
      "decreaseAllowance(address,uint256)": {
        "details": "Atomically decreases the allowance granted to `spender` by the caller. This is an alternative to {approve} that can be used as a mitigation for problems described in {IERC20-approve}. Emits an {Approval} event indicating the updated allowance. Requirements: - `spender` cannot be the zero address. - `spender` must have allowance for the caller of at least `subtractedValue`."
      },
      "increaseAllowance(address,uint256)": {
        "details": "Atomically increases the allowance granted to `spender` by the caller. This is an alternative to {approve} that can be used as a mitigation for problems described in {IERC20-approve}. Emits an {Approval} event indicating the updated allowance. Requirements: - `spender` cannot be the zero address."
      },
      "mint(address,uint256)": {
        "params": {
          "amount_": "The amount of TOMB to mint to",
          "recipient_": "The address of recipient"
        },
        "returns": {
          "_0": "whether the process has been done"
        }
      },
      "name()": {
        "details": "Returns the name of the token."
      },
      "owner()": {
        "details": "Returns the address of the current owner."
      },
      "renounceOwnership()": {
        "details": "Leaves the contract without owner. It will not be possible to call `onlyOwner` functions anymore. Can only be called by the current owner. NOTE: Renouncing ownership will leave the contract without an owner, thereby removing any functionality that is only available to the owner."
      },
      "symbol()": {
        "details": "Returns the symbol of the token, usually a shorter version of the name."
      },
      "totalSupply()": {
        "details": "See {IERC20-totalSupply}."
      },
      "transfer(address,uint256)": {
        "details": "See {IERC20-transfer}. Requirements: - `recipient` cannot be the zero address. - the caller must have a balance of at least `amount`."
      },
      "transferFrom(address,address,uint256)": {
        "details": "See {IERC20-transferFrom}. Emits an {Approval} event indicating the updated allowance. This is not required by the EIP. See the note at the beginning of {ERC20}. Requirements: - `sender` and `recipient` cannot be the zero address. - `sender` must have a balance of at least `amount`. - the caller must have allowance for ``sender``'s tokens of at least `amount`."
      },
      "transferOwnership(address)": {
        "details": "Transfers ownership of the contract to a new account (`newOwner`). Can only be called by the current owner."
      }
    },
    "version": 1
  },
  "userdoc": {
    "kind": "user",
    "methods": {
      "constructor": "Constructs the TOMB ERC-20 contract.",
      "distributeReward(address,address,address)": {
        "notice": "distribute to reward pool (only once)"
      },
      "mint(address,uint256)": {
        "notice": "Operator mints TOMB to a recipient"
      }
    },
    "version": 1
  }
}