{
  "contractName": "Treasury",
  "abi": [
    {
      "anonymous": false,
      "inputs": [
        {
          "indexed": true,
          "internalType": "address",
          "name": "from",
          "type": "address"
        },
        {
          "indexed": false,
          "internalType": "uint256",
          "name": "tombAmount",
          "type": "uint256"
        },
        {
          "indexed": false,
          "internalType": "uint256",
          "name": "bondAmount",
          "type": "uint256"
        }
      ],
      "name": "BoughtBonds",
      "type": "event"
    },
    {
      "anonymous": false,
      "inputs": [
        {
          "indexed": true,
          "internalType": "address",
          "name": "from",
          "type": "address"
        },
        {
          "indexed": false,
          "internalType": "uint256",
          "name": "bondAmount",
          "type": "uint256"
        }
      ],
      "name": "BurnedBonds",
      "type": "event"
    },
    {
      "anonymous": false,
      "inputs": [
        {
          "indexed": false,
          "internalType": "uint256",
          "name": "timestamp",
          "type": "uint256"
        },
        {
          "indexed": false,
          "internalType": "uint256",
          "name": "seigniorage",
          "type": "uint256"
        }
      ],
      "name": "DaoFundFunded",
      "type": "event"
    },
    {
      "anonymous": false,
      "inputs": [
        {
          "indexed": false,
          "internalType": "uint256",
          "name": "timestamp",
          "type": "uint256"
        },
        {
          "indexed": false,
          "internalType": "uint256",
          "name": "seigniorage",
          "type": "uint256"
        }
      ],
      "name": "DevFundFunded",
      "type": "event"
    },
    {
      "anonymous": false,
      "inputs": [
        {
          "indexed": true,
          "internalType": "address",
          "name": "executor",
          "type": "address"
        },
        {
          "indexed": false,
          "internalType": "uint256",
          "name": "at",
          "type": "uint256"
        }
      ],
      "name": "Initialized",
      "type": "event"
    },
    {
      "anonymous": false,
      "inputs": [
        {
          "indexed": false,
          "internalType": "uint256",
          "name": "timestamp",
          "type": "uint256"
        },
        {
          "indexed": false,
          "internalType": "uint256",
          "name": "seigniorage",
          "type": "uint256"
        }
      ],
      "name": "MasonryFunded",
      "type": "event"
    },
    {
      "anonymous": false,
      "inputs": [
        {
          "indexed": true,
          "internalType": "address",
          "name": "from",
          "type": "address"
        },
        {
          "indexed": false,
          "internalType": "uint256",
          "name": "tombAmount",
          "type": "uint256"
        },
        {
          "indexed": false,
          "internalType": "uint256",
          "name": "bondAmount",
          "type": "uint256"
        }
      ],
      "name": "RedeemedBonds",
      "type": "event"
    },
    {
      "anonymous": false,
      "inputs": [
        {
          "indexed": false,
          "internalType": "uint256",
          "name": "timestamp",
          "type": "uint256"
        },
        {
          "indexed": false,
          "internalType": "uint256",
          "name": "seigniorage",
          "type": "uint256"
        }
      ],
      "name": "TreasuryFunded",
      "type": "event"
    },
    {
      "inputs": [],
      "name": "PERIOD",
      "outputs": [
        {
          "internalType": "uint256",
          "name": "",
          "type": "uint256"
        }
      ],
      "stateMutability": "view",
      "type": "function"
    },
    {
      "inputs": [],
      "name": "bondDepletionFloorPercent",
      "outputs": [
        {
          "internalType": "uint256",
          "name": "",
          "type": "uint256"
        }
      ],
      "stateMutability": "view",
      "type": "function"
    },
    {
      "inputs": [],
      "name": "bootstrapEpochs",
      "outputs": [
        {
          "internalType": "uint256",
          "name": "",
          "type": "uint256"
        }
      ],
      "stateMutability": "view",
      "type": "function"
    },
    {
      "inputs": [],
      "name": "bootstrapSupplyExpansionPercent",
      "outputs": [
        {
          "internalType": "uint256",
          "name": "",
          "type": "uint256"
        }
      ],
      "stateMutability": "view",
      "type": "function"
    },
    {
      "inputs": [],
      "name": "daoFund",
      "outputs": [
        {
          "internalType": "address",
          "name": "",
          "type": "address"
        }
      ],
      "stateMutability": "view",
      "type": "function"
    },
    {
      "inputs": [],
      "name": "daoFundSharedPercent",
      "outputs": [
        {
          "internalType": "uint256",
          "name": "",
          "type": "uint256"
        }
      ],
      "stateMutability": "view",
      "type": "function"
    },
    {
      "inputs": [],
      "name": "devFund",
      "outputs": [
        {
          "internalType": "address",
          "name": "",
          "type": "address"
        }
      ],
      "stateMutability": "view",
      "type": "function"
    },
    {
      "inputs": [],
      "name": "devFundSharedPercent",
      "outputs": [
        {
          "internalType": "uint256",
          "name": "",
          "type": "uint256"
        }
      ],
      "stateMutability": "view",
      "type": "function"
    },
    {
      "inputs": [],
      "name": "discountPercent",
      "outputs": [
        {
          "internalType": "uint256",
          "name": "",
          "type": "uint256"
        }
      ],
      "stateMutability": "view",
      "type": "function"
    },
    {
      "inputs": [],
      "name": "epoch",
      "outputs": [
        {
          "internalType": "uint256",
          "name": "",
          "type": "uint256"
        }
      ],
      "stateMutability": "view",
      "type": "function"
    },
    {
      "inputs": [],
      "name": "epochSupplyContractionLeft",
      "outputs": [
        {
          "internalType": "uint256",
          "name": "",
          "type": "uint256"
        }
      ],
      "stateMutability": "view",
      "type": "function"
    },
    {
      "inputs": [
        {
          "internalType": "uint256",
          "name": "",
          "type": "uint256"
        }
      ],
      "name": "excludedFromTotalSupply",
      "outputs": [
        {
          "internalType": "address",
          "name": "",
          "type": "address"
        }
      ],
      "stateMutability": "view",
      "type": "function"
    },
    {
      "inputs": [],
      "name": "initialized",
      "outputs": [
        {
          "internalType": "bool",
          "name": "",
          "type": "bool"
        }
      ],
      "stateMutability": "view",
      "type": "function"
    },
    {
      "inputs": [],
      "name": "masonry",
      "outputs": [
        {
          "internalType": "address",
          "name": "",
          "type": "address"
        }
      ],
      "stateMutability": "view",
      "type": "function"
    },
    {
      "inputs": [],
      "name": "maxDebtRatioPercent",
      "outputs": [
        {
          "internalType": "uint256",
          "name": "",
          "type": "uint256"
        }
      ],
      "stateMutability": "view",
      "type": "function"
    },
    {
      "inputs": [],
      "name": "maxDiscountRate",
      "outputs": [
        {
          "internalType": "uint256",
          "name": "",
          "type": "uint256"
        }
      ],
      "stateMutability": "view",
      "type": "function"
    },
    {
      "inputs": [
        {
          "internalType": "uint256",
          "name": "",
          "type": "uint256"
        }
      ],
      "name": "maxExpansionTiers",
      "outputs": [
        {
          "internalType": "uint256",
          "name": "",
          "type": "uint256"
        }
      ],
      "stateMutability": "view",
      "type": "function"
    },
    {
      "inputs": [],
      "name": "maxPremiumRate",
      "outputs": [
        {
          "internalType": "uint256",
          "name": "",
          "type": "uint256"
        }
      ],
      "stateMutability": "view",
      "type": "function"
    },
    {
      "inputs": [],
      "name": "maxSupplyContractionPercent",
      "outputs": [
        {
          "internalType": "uint256",
          "name": "",
          "type": "uint256"
        }
      ],
      "stateMutability": "view",
      "type": "function"
    },
    {
      "inputs": [],
      "name": "maxSupplyExpansionPercent",
      "outputs": [
        {
          "internalType": "uint256",
          "name": "",
          "type": "uint256"
        }
      ],
      "stateMutability": "view",
      "type": "function"
    },
    {
      "inputs": [],
      "name": "mintingFactorForPayingDebt",
      "outputs": [
        {
          "internalType": "uint256",
          "name": "",
          "type": "uint256"
        }
      ],
      "stateMutability": "view",
      "type": "function"
    },
    {
      "inputs": [],
      "name": "operator",
      "outputs": [
        {
          "internalType": "address",
          "name": "",
          "type": "address"
        }
      ],
      "stateMutability": "view",
      "type": "function"
    },
    {
      "inputs": [],
      "name": "premiumPercent",
      "outputs": [
        {
          "internalType": "uint256",
          "name": "",
          "type": "uint256"
        }
      ],
      "stateMutability": "view",
      "type": "function"
    },
    {
      "inputs": [],
      "name": "premiumThreshold",
      "outputs": [
        {
          "internalType": "uint256",
          "name": "",
          "type": "uint256"
        }
      ],
      "stateMutability": "view",
      "type": "function"
    },
    {
      "inputs": [],
      "name": "previousEpochTombPrice",
      "outputs": [
        {
          "internalType": "uint256",
          "name": "",
          "type": "uint256"
        }
      ],
      "stateMutability": "view",
      "type": "function"
    },
    {
      "inputs": [],
      "name": "seigniorageExpansionFloorPercent",
      "outputs": [
        {
          "internalType": "uint256",
          "name": "",
          "type": "uint256"
        }
      ],
      "stateMutability": "view",
      "type": "function"
    },
    {
      "inputs": [],
      "name": "seigniorageSaved",
      "outputs": [
        {
          "internalType": "uint256",
          "name": "",
          "type": "uint256"
        }
      ],
      "stateMutability": "view",
      "type": "function"
    },
    {
      "inputs": [],
      "name": "startTime",
      "outputs": [
        {
          "internalType": "uint256",
          "name": "",
          "type": "uint256"
        }
      ],
      "stateMutability": "view",
      "type": "function"
    },
    {
      "inputs": [
        {
          "internalType": "uint256",
          "name": "",
          "type": "uint256"
        }
      ],
      "name": "supplyTiers",
      "outputs": [
        {
          "internalType": "uint256",
          "name": "",
          "type": "uint256"
        }
      ],
      "stateMutability": "view",
      "type": "function"
    },
    {
      "inputs": [],
      "name": "tbond",
      "outputs": [
        {
          "internalType": "address",
          "name": "",
          "type": "address"
        }
      ],
      "stateMutability": "view",
      "type": "function"
    },
    {
      "inputs": [],
      "name": "tomb",
      "outputs": [
        {
          "internalType": "address",
          "name": "",
          "type": "address"
        }
      ],
      "stateMutability": "view",
      "type": "function"
    },
    {
      "inputs": [],
      "name": "tombOracle",
      "outputs": [
        {
          "internalType": "address",
          "name": "",
          "type": "address"
        }
      ],
      "stateMutability": "view",
      "type": "function"
    },
    {
      "inputs": [],
      "name": "tombPriceCeiling",
      "outputs": [
        {
          "internalType": "uint256",
          "name": "",
          "type": "uint256"
        }
      ],
      "stateMutability": "view",
      "type": "function"
    },
    {
      "inputs": [],
      "name": "tombPriceOne",
      "outputs": [
        {
          "internalType": "uint256",
          "name": "",
          "type": "uint256"
        }
      ],
      "stateMutability": "view",
      "type": "function"
    },
    {
      "inputs": [],
      "name": "tshare",
      "outputs": [
        {
          "internalType": "address",
          "name": "",
          "type": "address"
        }
      ],
      "stateMutability": "view",
      "type": "function"
    },
    {
      "inputs": [],
      "name": "isInitialized",
      "outputs": [
        {
          "internalType": "bool",
          "name": "",
          "type": "bool"
        }
      ],
      "stateMutability": "view",
      "type": "function"
    },
    {
      "inputs": [],
      "name": "nextEpochPoint",
      "outputs": [
        {
          "internalType": "uint256",
          "name": "",
          "type": "uint256"
        }
      ],
      "stateMutability": "view",
      "type": "function"
    },
    {
      "inputs": [],
      "name": "getTombPrice",
      "outputs": [
        {
          "internalType": "uint256",
          "name": "tombPrice",
          "type": "uint256"
        }
      ],
      "stateMutability": "view",
      "type": "function"
    },
    {
      "inputs": [],
      "name": "getTombUpdatedPrice",
      "outputs": [
        {
          "internalType": "uint256",
          "name": "_tombPrice",
          "type": "uint256"
        }
      ],
      "stateMutability": "view",
      "type": "function"
    },
    {
      "inputs": [],
      "name": "getReserve",
      "outputs": [
        {
          "internalType": "uint256",
          "name": "",
          "type": "uint256"
        }
      ],
      "stateMutability": "view",
      "type": "function"
    },
    {
      "inputs": [],
      "name": "getBurnableTombLeft",
      "outputs": [
        {
          "internalType": "uint256",
          "name": "_burnableTombLeft",
          "type": "uint256"
        }
      ],
      "stateMutability": "view",
      "type": "function"
    },
    {
      "inputs": [],
      "name": "getRedeemableBonds",
      "outputs": [
        {
          "internalType": "uint256",
          "name": "_redeemableBonds",
          "type": "uint256"
        }
      ],
      "stateMutability": "view",
      "type": "function"
    },
    {
      "inputs": [],
      "name": "getBondDiscountRate",
      "outputs": [
        {
          "internalType": "uint256",
          "name": "_rate",
          "type": "uint256"
        }
      ],
      "stateMutability": "view",
      "type": "function"
    },
    {
      "inputs": [],
      "name": "getBondPremiumRate",
      "outputs": [
        {
          "internalType": "uint256",
          "name": "_rate",
          "type": "uint256"
        }
      ],
      "stateMutability": "view",
      "type": "function"
    },
    {
      "inputs": [
        {
          "internalType": "address",
          "name": "_tomb",
          "type": "address"
        },
        {
          "internalType": "address",
          "name": "_tbond",
          "type": "address"
        },
        {
          "internalType": "address",
          "name": "_tshare",
          "type": "address"
        },
        {
          "internalType": "address",
          "name": "_tombOracle",
          "type": "address"
        },
        {
          "internalType": "address",
          "name": "_masonry",
          "type": "address"
        },
        {
          "internalType": "uint256",
          "name": "_startTime",
          "type": "uint256"
        }
      ],
      "name": "initialize",
      "outputs": [],
      "stateMutability": "nonpayable",
      "type": "function"
    },
    {
      "inputs": [
        {
          "internalType": "address",
          "name": "_operator",
          "type": "address"
        }
      ],
      "name": "setOperator",
      "outputs": [],
      "stateMutability": "nonpayable",
      "type": "function"
    },
    {
      "inputs": [
        {
          "internalType": "address",
          "name": "_masonry",
          "type": "address"
        }
      ],
      "name": "setMasonry",
      "outputs": [],
      "stateMutability": "nonpayable",
      "type": "function"
    },
    {
      "inputs": [
        {
          "internalType": "address",
          "name": "_tombOracle",
          "type": "address"
        }
      ],
      "name": "setTombOracle",
      "outputs": [],
      "stateMutability": "nonpayable",
      "type": "function"
    },
    {
      "inputs": [
        {
          "internalType": "uint256",
          "name": "_tombPriceCeiling",
          "type": "uint256"
        }
      ],
      "name": "setTombPriceCeiling",
      "outputs": [],
      "stateMutability": "nonpayable",
      "type": "function"
    },
    {
      "inputs": [
        {
          "internalType": "uint256",
          "name": "_maxSupplyExpansionPercent",
          "type": "uint256"
        }
      ],
      "name": "setMaxSupplyExpansionPercents",
      "outputs": [],
      "stateMutability": "nonpayable",
      "type": "function"
    },
    {
      "inputs": [
        {
          "internalType": "uint8",
          "name": "_index",
          "type": "uint8"
        },
        {
          "internalType": "uint256",
          "name": "_value",
          "type": "uint256"
        }
      ],
      "name": "setSupplyTiersEntry",
      "outputs": [
        {
          "internalType": "bool",
          "name": "",
          "type": "bool"
        }
      ],
      "stateMutability": "nonpayable",
      "type": "function"
    },
    {
      "inputs": [
        {
          "internalType": "uint8",
          "name": "_index",
          "type": "uint8"
        },
        {
          "internalType": "uint256",
          "name": "_value",
          "type": "uint256"
        }
      ],
      "name": "setMaxExpansionTiersEntry",
      "outputs": [
        {
          "internalType": "bool",
          "name": "",
          "type": "bool"
        }
      ],
      "stateMutability": "nonpayable",
      "type": "function"
    },
    {
      "inputs": [
        {
          "internalType": "uint256",
          "name": "_bondDepletionFloorPercent",
          "type": "uint256"
        }
      ],
      "name": "setBondDepletionFloorPercent",
      "outputs": [],
      "stateMutability": "nonpayable",
      "type": "function"
    },
    {
      "inputs": [
        {
          "internalType": "uint256",
          "name": "_maxSupplyContractionPercent",
          "type": "uint256"
        }
      ],
      "name": "setMaxSupplyContractionPercent",
      "outputs": [],
      "stateMutability": "nonpayable",
      "type": "function"
    },
    {
      "inputs": [
        {
          "internalType": "uint256",
          "name": "_maxDebtRatioPercent",
          "type": "uint256"
        }
      ],
      "name": "setMaxDebtRatioPercent",
      "outputs": [],
      "stateMutability": "nonpayable",
      "type": "function"
    },
    {
      "inputs": [
        {
          "internalType": "uint256",
          "name": "_bootstrapEpochs",
          "type": "uint256"
        },
        {
          "internalType": "uint256",
          "name": "_bootstrapSupplyExpansionPercent",
          "type": "uint256"
        }
      ],
      "name": "setBootstrap",
      "outputs": [],
      "stateMutability": "nonpayable",
      "type": "function"
    },
    {
      "inputs": [
        {
          "internalType": "address",
          "name": "_daoFund",
          "type": "address"
        },
        {
          "internalType": "uint256",
          "name": "_daoFundSharedPercent",
          "type": "uint256"
        },
        {
          "internalType": "address",
          "name": "_devFund",
          "type": "address"
        },
        {
          "internalType": "uint256",
          "name": "_devFundSharedPercent",
          "type": "uint256"
        }
      ],
      "name": "setExtraFunds",
      "outputs": [],
      "stateMutability": "nonpayable",
      "type": "function"
    },
    {
      "inputs": [
        {
          "internalType": "uint256",
          "name": "_maxDiscountRate",
          "type": "uint256"
        }
      ],
      "name": "setMaxDiscountRate",
      "outputs": [],
      "stateMutability": "nonpayable",
      "type": "function"
    },
    {
      "inputs": [
        {
          "internalType": "uint256",
          "name": "_maxPremiumRate",
          "type": "uint256"
        }
      ],
      "name": "setMaxPremiumRate",
      "outputs": [],
      "stateMutability": "nonpayable",
      "type": "function"
    },
    {
      "inputs": [
        {
          "internalType": "uint256",
          "name": "_discountPercent",
          "type": "uint256"
        }
      ],
      "name": "setDiscountPercent",
      "outputs": [],
      "stateMutability": "nonpayable",
      "type": "function"
    },
    {
      "inputs": [
        {
          "internalType": "uint256",
          "name": "_premiumThreshold",
          "type": "uint256"
        }
      ],
      "name": "setPremiumThreshold",
      "outputs": [],
      "stateMutability": "nonpayable",
      "type": "function"
    },
    {
      "inputs": [
        {
          "internalType": "uint256",
          "name": "_premiumPercent",
          "type": "uint256"
        }
      ],
      "name": "setPremiumPercent",
      "outputs": [],
      "stateMutability": "nonpayable",
      "type": "function"
    },
    {
      "inputs": [
        {
          "internalType": "uint256",
          "name": "_mintingFactorForPayingDebt",
          "type": "uint256"
        }
      ],
      "name": "setMintingFactorForPayingDebt",
      "outputs": [],
      "stateMutability": "nonpayable",
      "type": "function"
    },
    {
      "inputs": [],
      "name": "getTombCirculatingSupply",
      "outputs": [
        {
          "internalType": "uint256",
          "name": "",
          "type": "uint256"
        }
      ],
      "stateMutability": "view",
      "type": "function"
    },
    {
      "inputs": [
        {
          "internalType": "uint256",
          "name": "_tombAmount",
          "type": "uint256"
        },
        {
          "internalType": "uint256",
          "name": "targetPrice",
          "type": "uint256"
        }
      ],
      "name": "buyBonds",
      "outputs": [],
      "stateMutability": "nonpayable",
      "type": "function"
    },
    {
      "inputs": [
        {
          "internalType": "uint256",
          "name": "_bondAmount",
          "type": "uint256"
        },
        {
          "internalType": "uint256",
          "name": "targetPrice",
          "type": "uint256"
        }
      ],
      "name": "redeemBonds",
      "outputs": [],
      "stateMutability": "nonpayable",
      "type": "function"
    },
    {
      "inputs": [],
      "name": "allocateSeigniorage",
      "outputs": [],
      "stateMutability": "nonpayable",
      "type": "function"
    },
    {
      "inputs": [
        {
          "internalType": "contract IERC20",
          "name": "_token",
          "type": "address"
        },
        {
          "internalType": "uint256",
          "name": "_amount",
          "type": "uint256"
        },
        {
          "internalType": "address",
          "name": "_to",
          "type": "address"
        }
      ],
      "name": "governanceRecoverUnsupported",
      "outputs": [],
      "stateMutability": "nonpayable",
      "type": "function"
    },
    {
      "inputs": [
        {
          "internalType": "address",
          "name": "_operator",
          "type": "address"
        }
      ],
      "name": "masonrySetOperator",
      "outputs": [],
      "stateMutability": "nonpayable",
      "type": "function"
    },
    {
      "inputs": [
        {
          "internalType": "uint256",
          "name": "_withdrawLockupEpochs",
          "type": "uint256"
        },
        {
          "internalType": "uint256",
          "name": "_rewardLockupEpochs",
          "type": "uint256"
        }
      ],
      "name": "masonrySetLockUp",
      "outputs": [],
      "stateMutability": "nonpayable",
      "type": "function"
    },
    {
      "inputs": [
        {
          "internalType": "uint256",
          "name": "amount",
          "type": "uint256"
        }
      ],
      "name": "masonryAllocateSeigniorage",
      "outputs": [],
      "stateMutability": "nonpayable",
      "type": "function"
    },
    {
      "inputs": [
        {
          "internalType": "address",
          "name": "_token",
          "type": "address"
        },
        {
          "internalType": "uint256",
          "name": "_amount",
          "type": "uint256"
        },
        {
          "internalType": "address",
          "name": "_to",
          "type": "address"
        }
      ],
      "name": "masonryGovernanceRecoverUnsupported",
      "outputs": [],
      "stateMutability": "nonpayable",
      "type": "function"
    }
  ],
  "bytecode": "0x60806040526000600160146101000a81548160ff021916908315150217905550600060035560006004556040518060600160405280739a896d3c54d7e45b558bd5fff26bf1e8c031f93b73ffffffffffffffffffffffffffffffffffffffff1673ffffffffffffffffffffffffffffffffffffffff16815260200173a7b9123f4b15fe0ff01f469ff5eab2b41296dc0e73ffffffffffffffffffffffffffffffffffffffff1673ffffffffffffffffffffffffffffffffffffffff16815260200173a7b16703470055881e7ee093e9b0bf537f29cd4d73ffffffffffffffffffffffffffffffffffffffff1673ffffffffffffffffffffffffffffffffffffffff168152506005906003620001169291906200012b565b503480156200012457600080fd5b50620001f7565b828054828255906000526020600020908101928215620001a7579160200282015b82811115620001a65782518260006101000a81548173ffffffffffffffffffffffffffffffffffffffff021916908373ffffffffffffffffffffffffffffffffffffffff160217905550916020019190600101906200014c565b5b509050620001b69190620001ba565b5090565b5b80821115620001f357600081816101000a81549073ffffffffffffffffffffffffffffffffffffffff021916905550600101620001bb565b5090565b61775180620002076000396000f3fe608060405234801561001057600080fd5b50600436106104a85760003560e01c806382cad8381161026b578063b981cdf311610150578063d4b14944116100c8578063e90b245411610097578063f14698de1161007c578063f14698de1461119f578063f7741103146111bd578063fcb6f008146111f1576104a8565b8063e90b24541461114d578063ee6822a71461116b576104a8565b8063d4b149441461107c578063d5d3b26c146110cd578063d98f249514611111578063da3ed4191461112f576104a8565b8063c5967c261161011f578063c8412d0211610104578063c8412d0214611012578063c8f987f314611030578063cecce38e1461104e576104a8565b8063c5967c2614610fd6578063c5cc772d14610ff4576104a8565b8063b981cdf314610ec8578063bcc81f1914610efc578063be266d5414610f74578063c040f23a14610fa2576104a8565b806395b6ef0c116101e3578063a204452b116101b2578063b3ab15fb11610197578063b3ab15fb14610e48578063b4d1d79514610e8c578063b8a878f914610eaa576104a8565b8063a204452b14610dfc578063b3406cfc14610e2a576104a8565b806395b6ef0c14610c7c57806398b762a114610d4a5780639982002514610d78578063a0487eea14610dba576104a8565b80638d934f741161023a57806391bbfed51161021f57806391bbfed514610b85578063940e606414610bbd578063951357d414610c0e576104a8565b80638d934f7414610b33578063900cf0cf14610b67576104a8565b806382cad83814610a71578063874106cc14610ac95780638a6426e714610ae75780638c664db614610b05576104a8565b80634294cf8e116103915780635a0fc79c1161030957806372c054f9116102d857806375be5ae1116102bd57806375be5ae1146109f157806378e9792514610a3557806381d11eaf14610a53576104a8565b806372c054f91461099b578063734f7096146109b9576104a8565b80635a0fc79c146108fb5780635b7561791461091957806362ac58e41461092357806363f96cf414610967576104a8565b806354f04a1111610360578063570ca73511610345578063570ca7351461087b578063591663e1146108af57806359bf5d39146108dd576104a8565b806354f04a111461082557806355ebdeef1461085d576104a8565b80634294cf8e146107375780634390d2a814610755578063499f3f191461078957806354575af4146107b7576104a8565b8063158ef93e116104245780632e9c7b65116103f35780633ed9ae25116103d85780633ed9ae25146106bd5780634013a08e146106eb57806340af7ba514610709576104a8565b80632e9c7b651461067f578063392e53cd1461069d576104a8565b8063158ef93e1461060557806319a983491461062557806322f832cd1461064357806329ef191914610661576104a8565b80630cac939c1161047b5780630db7eb0b116104605780630db7eb0b14610581578063118ebbf91461059f578063154ec2db146105d7576104a8565b80630cac939c146105455780630cf6017514610563576104a8565b806303be7e76146104ad57806304e5c7b1146104cb57806309bb4f92146104f95780630b5bcec714610517575b600080fd5b6104b561120f565b6040518082815260200191505060405180910390f35b6104f7600480360360208110156104e157600080fd5b8101908080359060200190929190505050611215565b005b61050161137a565b6040518082815260200191505060405180910390f35b6105436004803603602081101561052d57600080fd5b81019080803590602001909291905050506114db565b005b61054d6115f3565b6040518082815260200191505060405180910390f35b61056b611752565b6040518082815260200191505060405180910390f35b61058961182e565b6040518082815260200191505060405180910390f35b6105d5600480360360408110156105b557600080fd5b810190808035906020019092919080359060200190929190505050611902565b005b610603600480360360208110156105ed57600080fd5b810190808035906020019092919050505061235a565b005b61060d612482565b60405180821515815260200191505060405180910390f35b61062d612495565b6040518082815260200191505060405180910390f35b61064b61249b565b6040518082815260200191505060405180910390f35b6106696124a1565b6040518082815260200191505060405180910390f35b6106876124a7565b6040518082815260200191505060405180910390f35b6106a56124ad565b60405180821515815260200191505060405180910390f35b6106e9600480360360208110156106d357600080fd5b81019080803590602001909291905050506124c4565b005b6106f3612620565b6040518082815260200191505060405180910390f35b6107356004803603602081101561071f57600080fd5b8101908080359060200190929190505050612626565b005b61073f61274e565b6040518082815260200191505060405180910390f35b61075d612754565b604051808273ffffffffffffffffffffffffffffffffffffffff16815260200191505060405180910390f35b6107b56004803603602081101561079f57600080fd5b810190808035906020019092919050505061277a565b005b610823600480360360608110156107cd57600080fd5b81019080803573ffffffffffffffffffffffffffffffffffffffff16906020019092919080359060200190929190803573ffffffffffffffffffffffffffffffffffffffff169060200190929190505050612893565b005b61085b6004803603604081101561083b57600080fd5b810190808035906020019092919080359060200190929190505050612bb5565b005b610865613728565b6040518082815260200191505060405180910390f35b61088361372e565b604051808273ffffffffffffffffffffffffffffffffffffffff16815260200191505060405180910390f35b6108db600480360360208110156108c557600080fd5b8101908080359060200190929190505050613754565b005b6108e561388a565b6040518082815260200191505060405180910390f35b610903613894565b6040518082815260200191505060405180910390f35b61092161389a565b005b6109656004803603602081101561093957600080fd5b81019080803573ffffffffffffffffffffffffffffffffffffffff16906020019092919050505061432c565b005b61096f614478565b604051808273ffffffffffffffffffffffffffffffffffffffff16815260200191505060405180910390f35b6109a361449e565b6040518082815260200191505060405180910390f35b6109ef600480360360408110156109cf57600080fd5b8101908080359060200190929190803590602001909291905050506145c9565b005b610a3360048036036020811015610a0757600080fd5b81019080803573ffffffffffffffffffffffffffffffffffffffff169060200190929190505050614708565b005b610a3d6147f2565b6040518082815260200191505060405180910390f35b610a5b6147f8565b6040518082815260200191505060405180910390f35b610a9d60048036036020811015610a8757600080fd5b81019080803590602001909291905050506147fe565b604051808273ffffffffffffffffffffffffffffffffffffffff16815260200191505060405180910390f35b610ad161483a565b6040518082815260200191505060405180910390f35b610aef614840565b6040518082815260200191505060405180910390f35b610b3160048036036020811015610b1b57600080fd5b8101908080359060200190929190505050614a18565b005b610b3b614b4e565b604051808273ffffffffffffffffffffffffffffffffffffffff16815260200191505060405180910390f35b610b6f614b74565b6040518082815260200191505060405180910390f35b610bbb60048036036040811015610b9b57600080fd5b810190808035906020019092919080359060200190929190505050614b7a565b005b610bf660048036036040811015610bd357600080fd5b81019080803560ff16906020019092919080359060200190929190505050614d11565b60405180821515815260200191505060405180910390f35b610c7a60048036036060811015610c2457600080fd5b81019080803573ffffffffffffffffffffffffffffffffffffffff16906020019092919080359060200190929190803573ffffffffffffffffffffffffffffffffffffffff169060200190929190505050614f24565b005b610d48600480360360c0811015610c9257600080fd5b81019080803573ffffffffffffffffffffffffffffffffffffffff169060200190929190803573ffffffffffffffffffffffffffffffffffffffff169060200190929190803573ffffffffffffffffffffffffffffffffffffffff169060200190929190803573ffffffffffffffffffffffffffffffffffffffff169060200190929190803573ffffffffffffffffffffffffffffffffffffffff16906020019092919080359060200190929190505050615098565b005b610d7660048036036020811015610d6057600080fd5b810190808035906020019092919050505061560e565b005b610da460048036036020811015610d8e57600080fd5b81019080803590602001909291905050506156be565b6040518082815260200191505060405180910390f35b610de660048036036020811015610dd057600080fd5b81019080803590602001909291905050506156df565b6040518082815260200191505060405180910390f35b610e2860048036036020811015610e1257600080fd5b8101908080359060200190929190505050615700565b005b610e326157b0565b6040518082815260200191505060405180910390f35b610e8a60048036036020811015610e5e57600080fd5b81019080803573ffffffffffffffffffffffffffffffffffffffff1690602001909291905050506157b6565b005b610e946158a0565b6040518082815260200191505060405180910390f35b610eb26158a6565b6040518082815260200191505060405180910390f35b610ed06158ac565b604051808273ffffffffffffffffffffffffffffffffffffffff16815260200191505060405180910390f35b610f7260048036036080811015610f1257600080fd5b81019080803573ffffffffffffffffffffffffffffffffffffffff16906020019092919080359060200190929190803573ffffffffffffffffffffffffffffffffffffffff169060200190929190803590602001909291905050506158d2565b005b610fa060048036036020811015610f8a57600080fd5b8101908080359060200190929190505050615c44565b005b610faa615d7a565b604051808273ffffffffffffffffffffffffffffffffffffffff16815260200191505060405180910390f35b610fde615da0565b6040518082815260200191505060405180910390f35b610ffc615dd2565b6040518082815260200191505060405180910390f35b61101a615f33565b6040518082815260200191505060405180910390f35b611038615f39565b6040518082815260200191505060405180910390f35b61107a6004803603602081101561106457600080fd5b8101908080359060200190929190505050615f3f565b005b6110b56004803603604081101561109257600080fd5b81019080803560ff16906020019092919080359060200190929190505050616074565b60405180821515815260200191505060405180910390f35b61110f600480360360208110156110e357600080fd5b81019080803573ffffffffffffffffffffffffffffffffffffffff1690602001909291905050506162a0565b005b61111961638a565b6040518082815260200191505060405180910390f35b611137616390565b6040518082815260200191505060405180910390f35b611155616396565b6040518082815260200191505060405180910390f35b61117361639c565b604051808273ffffffffffffffffffffffffffffffffffffffff16815260200191505060405180910390f35b6111a76163c2565b6040518082815260200191505060405180910390f35b6111c56163c8565b604051808273ffffffffffffffffffffffffffffffffffffffff16815260200191505060405180910390f35b6111f96163ee565b6040518082815260200191505060405180910390f35b60215481565b3373ffffffffffffffffffffffffffffffffffffffff16600160009054906101000a900473ffffffffffffffffffffffffffffffffffffffff1673ffffffffffffffffffffffffffffffffffffffff16146112bb576040517f08c379a00000000000000000000000000000000000000000000000000000000081526004018080602001828103825260248152602001806175e86024913960400191505060405180910390fd5b600c54811015611316576040517f08c379a000000000000000000000000000000000000000000000000000000000815260040180806020018281038252602a815260200180617420602a913960400191505060405180910390fd5b6096811115611370576040517f08c379a00000000000000000000000000000000000000000000000000000000081526004018080602001828103825260248152602001806174ae6024913960400191505060405180910390fd5b80601b8190555050565b6000600a60009054906101000a900473ffffffffffffffffffffffffffffffffffffffff1673ffffffffffffffffffffffffffffffffffffffff16633ddac953600660009054906101000a900473ffffffffffffffffffffffffffffffffffffffff16670de0b6b3a76400006040518363ffffffff1660e01b8152600401808373ffffffffffffffffffffffffffffffffffffffff1681526020018281526020019250505060206040518083038186803b15801561143757600080fd5b505afa92505050801561146b57506040513d602081101561145757600080fd5b810190808051906020019092919050505060015b6114c0576040517f08c379a00000000000000000000000000000000000000000000000000000000081526004018080602001828103825260368152602001806174786036913960400191505060405180910390fd5b8071ffffffffffffffffffffffffffffffffffff1691505090565b3373ffffffffffffffffffffffffffffffffffffffff16600160009054906101000a900473ffffffffffffffffffffffffffffffffffffffff1673ffffffffffffffffffffffffffffffffffffffff1614611581576040517f08c379a00000000000000000000000000000000000000000000000000000000081526004018080602001828103825260248152602001806175e86024913960400191505060405180910390fd5b600a811015801561159457506103e88111155b6115e9576040517f08c379a00000000000000000000000000000000000000000000000000000000081526004018080602001828103825260288152602001806175976028913960400191505060405180910390fd5b8060108190555050565b6000806115fe61137a565b9050600b54811161174e576000611613614840565b90506000611640612710611632601454856163f490919063ffffffff16565b61647a90919063ffffffff16565b90506000600760009054906101000a900473ffffffffffffffffffffffffffffffffffffffff1673ffffffffffffffffffffffffffffffffffffffff166318160ddd6040518163ffffffff1660e01b815260040160206040518083038186803b1580156116ac57600080fd5b505afa1580156116c0573d6000803e3d6000fd5b505050506040513d60208110156116d657600080fd5b810190808051906020019092919050505090508082111561174a576000611706828461650390919063ffffffff16565b90506000611737670de0b6b3a764000061172988856163f490919063ffffffff16565b61647a90919063ffffffff16565b905061174560045482616586565b965050505b5050505b5090565b60008061175d61137a565b9050600b54811161182a576000601a54141561177d57600b549150611829565b60006117ae826117a0670de0b6b3a7640000600b546163f490919063ffffffff16565b61647a90919063ffffffff16565b905060006117ef6127106117e1601a546117d3600b548761650390919063ffffffff16565b6163f490919063ffffffff16565b61647a90919063ffffffff16565b905061180681600b5461659f90919063ffffffff16565b9350600060185411801561181b575060185484115b156118265760185493505b50505b5b5090565b60008061183961137a565b9050600c548111156118fe5760006118716064611863601b54600b546163f490919063ffffffff16565b61647a90919063ffffffff16565b90508082106118f65760006118b96127106118ab601c5461189d600b548861650390919063ffffffff16565b6163f490919063ffffffff16565b61647a90919063ffffffff16565b90506118d081600b5461659f90919063ffffffff16565b935060006019541180156118e5575060195484115b156118f05760195493505b506118fc565b600b5492505b505b5090565b61190a616627565b15611960576040517f08c379a00000000000000000000000000000000000000000000000000000000081526004018080602001828103825260268152602001806176366026913960400191505060405180910390fd5b61196861668b565b156119be576040517f08c379a00000000000000000000000000000000000000000000000000000000081526004018080602001828103825260268152602001806176366026913960400191505060405180910390fd5b600254421015611a36576040517f08c379a00000000000000000000000000000000000000000000000000000000081526004018080602001828103825260198152602001807f54726561737572793a206e6f742073746172746564207965740000000000000081525060200191505060405180910390fd5b3073ffffffffffffffffffffffffffffffffffffffff16600660009054906101000a900473ffffffffffffffffffffffffffffffffffffffff1673ffffffffffffffffffffffffffffffffffffffff1663570ca7356040518163ffffffff1660e01b815260040160206040518083038186803b158015611ab557600080fd5b505afa158015611ac9573d6000803e3d6000fd5b505050506040513d6020811015611adf57600080fd5b810190808051906020019092919050505073ffffffffffffffffffffffffffffffffffffffff16148015611be057503073ffffffffffffffffffffffffffffffffffffffff16600760009054906101000a900473ffffffffffffffffffffffffffffffffffffffff1673ffffffffffffffffffffffffffffffffffffffff1663570ca7356040518163ffffffff1660e01b815260040160206040518083038186803b158015611b8d57600080fd5b505afa158015611ba1573d6000803e3d6000fd5b505050506040513d6020811015611bb757600080fd5b810190808051906020019092919050505073ffffffffffffffffffffffffffffffffffffffff16145b8015611cb957503073ffffffffffffffffffffffffffffffffffffffff16600860009054906101000a900473ffffffffffffffffffffffffffffffffffffffff1673ffffffffffffffffffffffffffffffffffffffff1663570ca7356040518163ffffffff1660e01b815260040160206040518083038186803b158015611c6657600080fd5b505afa158015611c7a573d6000803e3d6000fd5b505050506040513d6020811015611c9057600080fd5b810190808051906020019092919050505073ffffffffffffffffffffffffffffffffffffffff16145b8015611d9257503073ffffffffffffffffffffffffffffffffffffffff16600960009054906101000a900473ffffffffffffffffffffffffffffffffffffffff1673ffffffffffffffffffffffffffffffffffffffff1663570ca7356040518163ffffffff1660e01b815260040160206040518083038186803b158015611d3f57600080fd5b505afa158015611d53573d6000803e3d6000fd5b505050506040513d6020811015611d6957600080fd5b810190808051906020019092919050505073ffffffffffffffffffffffffffffffffffffffff16145b611e04576040517f08c379a000000000000000000000000000000000000000000000000000000000815260040180806020018281038252601e8152602001807f54726561737572793a206e656564206d6f7265207065726d697373696f6e000081525060200191505060405180910390fd5b60008211611e5d576040517f08c379a000000000000000000000000000000000000000000000000000000000815260040180806020018281038252602e81526020018061744a602e913960400191505060405180910390fd5b6000611e6761137a565b9050818114611ede576040517f08c379a000000000000000000000000000000000000000000000000000000000815260040180806020018281038252601a8152602001807f54726561737572793a20544f4d42207072696365206d6f76656400000000000081525060200191505060405180910390fd5b600c548111611f38576040517f08c379a00000000000000000000000000000000000000000000000000000000081526004018080602001828103825260328152602001806176926032913960400191505060405180910390fd5b6000611f4261182e565b905060008111611fba576040517f08c379a000000000000000000000000000000000000000000000000000000000815260040180806020018281038252601b8152602001807f54726561737572793a20696e76616c696420626f6e642072617465000000000081525060200191505060405180910390fd5b6000611fe9670de0b6b3a7640000611fdb84886163f490919063ffffffff16565b61647a90919063ffffffff16565b905080600660009054906101000a900473ffffffffffffffffffffffffffffffffffffffff1673ffffffffffffffffffffffffffffffffffffffff166370a08231306040518263ffffffff1660e01b8152600401808273ffffffffffffffffffffffffffffffffffffffff16815260200191505060206040518083038186803b15801561207557600080fd5b505afa158015612089573d6000803e3d6000fd5b505050506040513d602081101561209f57600080fd5b81019080805190602001909291905050501015612107576040517f08c379a00000000000000000000000000000000000000000000000000000000081526004018080602001828103825260258152602001806174f86025913960400191505060405180910390fd5b612127612116600d5483616586565b600d5461650390919063ffffffff16565b600d81905550600760009054906101000a900473ffffffffffffffffffffffffffffffffffffffff1673ffffffffffffffffffffffffffffffffffffffff166379cc679033876040518363ffffffff1660e01b8152600401808373ffffffffffffffffffffffffffffffffffffffff16815260200182815260200192505050600060405180830381600087803b1580156121c057600080fd5b505af11580156121d4573d6000803e3d6000fd5b505050506122253382600660009054906101000a900473ffffffffffffffffffffffffffffffffffffffff1673ffffffffffffffffffffffffffffffffffffffff166166ef9092919063ffffffff16565b61222d616791565b3373ffffffffffffffffffffffffffffffffffffffff167f51e0d16595cabc591e64da08e45bb223577e5b9a39cd947b4ddc3472b2dd88788287604051808381526020018281526020019250505060405180910390a2505050600160008043815260200190815260200160002060003273ffffffffffffffffffffffffffffffffffffffff1673ffffffffffffffffffffffffffffffffffffffff16815260200190815260200160002060006101000a81548160ff021916908315150217905550600160008043815260200190815260200160002060003373ffffffffffffffffffffffffffffffffffffffff1673ffffffffffffffffffffffffffffffffffffffff16815260200190815260200160002060006101000a81548160ff0219169083151502179055505050565b3373ffffffffffffffffffffffffffffffffffffffff16600160009054906101000a900473ffffffffffffffffffffffffffffffffffffffff1673ffffffffffffffffffffffffffffffffffffffff1614612400576040517f08c379a00000000000000000000000000000000000000000000000000000000081526004018080602001828103825260248152602001806175e86024913960400191505060405180910390fd5b614e20811115612478576040517f08c379a000000000000000000000000000000000000000000000000000000000815260040180806020018281038252601d8152602001807f5f646973636f756e7450657263656e74206973206f766572203230302500000081525060200191505060405180910390fd5b80601a8190555050565b600160149054906101000a900460ff1681565b600c5481565b60125481565b601a5481565b60195481565b6000600160149054906101000a900460ff16905090565b3373ffffffffffffffffffffffffffffffffffffffff16600160009054906101000a900473ffffffffffffffffffffffffffffffffffffffff1673ffffffffffffffffffffffffffffffffffffffff161461256a576040517f08c379a00000000000000000000000000000000000000000000000000000000081526004018080602001828103825260248152602001806175e86024913960400191505060405180910390fd5b600b5481101580156125a457506125a060646125926078600b546163f490919063ffffffff16565b61647a90919063ffffffff16565b8111155b612616576040517f08c379a000000000000000000000000000000000000000000000000000000000815260040180806020018281038252600c8152602001807f6f7574206f662072616e6765000000000000000000000000000000000000000081525060200191505060405180910390fd5b80600c8190555050565b601d5481565b3373ffffffffffffffffffffffffffffffffffffffff16600160009054906101000a900473ffffffffffffffffffffffffffffffffffffffff1673ffffffffffffffffffffffffffffffffffffffff16146126cc576040517f08c379a00000000000000000000000000000000000000000000000000000000081526004018080602001828103825260248152602001806175e86024913960400191505060405180910390fd5b614e20811115612744576040517f08c379a000000000000000000000000000000000000000000000000000000000815260040180806020018281038252601c8152602001807f5f7072656d69756d50657263656e74206973206f76657220323030250000000081525060200191505060405180910390fd5b80601c8190555050565b600b5481565b602060009054906101000a900473ffffffffffffffffffffffffffffffffffffffff1681565b3373ffffffffffffffffffffffffffffffffffffffff16600160009054906101000a900473ffffffffffffffffffffffffffffffffffffffff1673ffffffffffffffffffffffffffffffffffffffff1614612820576040517f08c379a00000000000000000000000000000000000000000000000000000000081526004018080602001828103825260248152602001806175e86024913960400191505060405180910390fd5b61271081101580156128345750614e208111155b612889576040517f08c379a000000000000000000000000000000000000000000000000000000000815260040180806020018281038252602981526020018061756e6029913960400191505060405180910390fd5b80601d8190555050565b3373ffffffffffffffffffffffffffffffffffffffff16600160009054906101000a900473ffffffffffffffffffffffffffffffffffffffff1673ffffffffffffffffffffffffffffffffffffffff1614612939576040517f08c379a00000000000000000000000000000000000000000000000000000000081526004018080602001828103825260248152602001806175e86024913960400191505060405180910390fd5b600660009054906101000a900473ffffffffffffffffffffffffffffffffffffffff1673ffffffffffffffffffffffffffffffffffffffff168373ffffffffffffffffffffffffffffffffffffffff1614156129fd576040517f08c379a00000000000000000000000000000000000000000000000000000000081526004018080602001828103825260048152602001807f746f6d620000000000000000000000000000000000000000000000000000000081525060200191505060405180910390fd5b600760009054906101000a900473ffffffffffffffffffffffffffffffffffffffff1673ffffffffffffffffffffffffffffffffffffffff168373ffffffffffffffffffffffffffffffffffffffff161415612ac1576040517f08c379a00000000000000000000000000000000000000000000000000000000081526004018080602001828103825260048152602001807f626f6e640000000000000000000000000000000000000000000000000000000081525060200191505060405180910390fd5b600860009054906101000a900473ffffffffffffffffffffffffffffffffffffffff1673ffffffffffffffffffffffffffffffffffffffff168373ffffffffffffffffffffffffffffffffffffffff161415612b85576040517f08c379a00000000000000000000000000000000000000000000000000000000081526004018080602001828103825260058152602001807f736861726500000000000000000000000000000000000000000000000000000081525060200191505060405180910390fd5b612bb081838573ffffffffffffffffffffffffffffffffffffffff166166ef9092919063ffffffff16565b505050565b612bbd616627565b15612c13576040517f08c379a00000000000000000000000000000000000000000000000000000000081526004018080602001828103825260268152602001806176366026913960400191505060405180910390fd5b612c1b61668b565b15612c71576040517f08c379a00000000000000000000000000000000000000000000000000000000081526004018080602001828103825260268152602001806176366026913960400191505060405180910390fd5b600254421015612ce9576040517f08c379a00000000000000000000000000000000000000000000000000000000081526004018080602001828103825260198152602001807f54726561737572793a206e6f742073746172746564207965740000000000000081525060200191505060405180910390fd5b3073ffffffffffffffffffffffffffffffffffffffff16600660009054906101000a900473ffffffffffffffffffffffffffffffffffffffff1673ffffffffffffffffffffffffffffffffffffffff1663570ca7356040518163ffffffff1660e01b815260040160206040518083038186803b158015612d6857600080fd5b505afa158015612d7c573d6000803e3d6000fd5b505050506040513d6020811015612d9257600080fd5b810190808051906020019092919050505073ffffffffffffffffffffffffffffffffffffffff16148015612e9357503073ffffffffffffffffffffffffffffffffffffffff16600760009054906101000a900473ffffffffffffffffffffffffffffffffffffffff1673ffffffffffffffffffffffffffffffffffffffff1663570ca7356040518163ffffffff1660e01b815260040160206040518083038186803b158015612e4057600080fd5b505afa158015612e54573d6000803e3d6000fd5b505050506040513d6020811015612e6a57600080fd5b810190808051906020019092919050505073ffffffffffffffffffffffffffffffffffffffff16145b8015612f6c57503073ffffffffffffffffffffffffffffffffffffffff16600860009054906101000a900473ffffffffffffffffffffffffffffffffffffffff1673ffffffffffffffffffffffffffffffffffffffff1663570ca7356040518163ffffffff1660e01b815260040160206040518083038186803b158015612f1957600080fd5b505afa158015612f2d573d6000803e3d6000fd5b505050506040513d6020811015612f4357600080fd5b810190808051906020019092919050505073ffffffffffffffffffffffffffffffffffffffff16145b801561304557503073ffffffffffffffffffffffffffffffffffffffff16600960009054906101000a900473ffffffffffffffffffffffffffffffffffffffff1673ffffffffffffffffffffffffffffffffffffffff1663570ca7356040518163ffffffff1660e01b815260040160206040518083038186803b158015612ff257600080fd5b505afa158015613006573d6000803e3d6000fd5b505050506040513d602081101561301c57600080fd5b810190808051906020019092919050505073ffffffffffffffffffffffffffffffffffffffff16145b6130b7576040517f08c379a000000000000000000000000000000000000000000000000000000000815260040180806020018281038252601e8152602001807f54726561737572793a206e656564206d6f7265207065726d697373696f6e000081525060200191505060405180910390fd5b60008211613110576040517f08c379a000000000000000000000000000000000000000000000000000000000815260040180806020018281038252603081526020018061753e6030913960400191505060405180910390fd5b600061311a61137a565b9050818114613191576040517f08c379a000000000000000000000000000000000000000000000000000000000815260040180806020018281038252601a8152602001807f54726561737572793a20544f4d42207072696365206d6f76656400000000000081525060200191505060405180910390fd5b600b5481106131eb576040517f08c379a00000000000000000000000000000000000000000000000000000000081526004018080602001828103825260328152602001806176926032913960400191505060405180910390fd5b600454831115613246576040517f08c379a000000000000000000000000000000000000000000000000000000000815260040180806020018281038252602a8152602001806176c4602a913960400191505060405180910390fd5b6000613250611752565b9050600081116132c8576040517f08c379a000000000000000000000000000000000000000000000000000000000815260040180806020018281038252601b8152602001807f54726561737572793a20696e76616c696420626f6e642072617465000000000081525060200191505060405180910390fd5b60006132f7670de0b6b3a76400006132e984886163f490919063ffffffff16565b61647a90919063ffffffff16565b90506000613303614840565b905060006133bc83600760009054906101000a900473ffffffffffffffffffffffffffffffffffffffff1673ffffffffffffffffffffffffffffffffffffffff166318160ddd6040518163ffffffff1660e01b815260040160206040518083038186803b15801561337357600080fd5b505afa158015613387573d6000803e3d6000fd5b505050506040513d602081101561339d57600080fd5b810190808051906020019092919050505061659f90919063ffffffff16565b90506133e76127106133d9601454856163f490919063ffffffff16565b61647a90919063ffffffff16565b81111561345c576040517f08c379a00000000000000000000000000000000000000000000000000000000081526004018080602001828103825260138152602001807f6f766572206d6178206465627420726174696f0000000000000000000000000081525060200191505060405180910390fd5b600660009054906101000a900473ffffffffffffffffffffffffffffffffffffffff1673ffffffffffffffffffffffffffffffffffffffff166379cc679033896040518363ffffffff1660e01b8152600401808373ffffffffffffffffffffffffffffffffffffffff16815260200182815260200192505050600060405180830381600087803b1580156134ef57600080fd5b505af1158015613503573d6000803e3d6000fd5b50505050600760009054906101000a900473ffffffffffffffffffffffffffffffffffffffff1673ffffffffffffffffffffffffffffffffffffffff166340c10f1933856040518363ffffffff1660e01b8152600401808373ffffffffffffffffffffffffffffffffffffffff16815260200182815260200192505050602060405180830381600087803b15801561359a57600080fd5b505af11580156135ae573d6000803e3d6000fd5b505050506040513d60208110156135c457600080fd5b8101908080519060200190929190505050506135eb8760045461650390919063ffffffff16565b6004819055506135f9616791565b3373ffffffffffffffffffffffffffffffffffffffff167f73017f1b70789e2e66759eeb3c7ec11f59e6eedb55d921cfaec5410dd42a47998885604051808381526020018281526020019250505060405180910390a25050505050600160008043815260200190815260200160002060003273ffffffffffffffffffffffffffffffffffffffff1673ffffffffffffffffffffffffffffffffffffffff16815260200190815260200160002060006101000a81548160ff021916908315150217905550600160008043815260200190815260200160002060003373ffffffffffffffffffffffffffffffffffffffff1673ffffffffffffffffffffffffffffffffffffffff16815260200190815260200160002060006101000a81548160ff0219169083151502179055505050565b601f5481565b600160009054906101000a900473ffffffffffffffffffffffffffffffffffffffff1681565b3373ffffffffffffffffffffffffffffffffffffffff16600160009054906101000a900473ffffffffffffffffffffffffffffffffffffffff1673ffffffffffffffffffffffffffffffffffffffff16146137fa576040517f08c379a00000000000000000000000000000000000000000000000000000000081526004018080602001828103825260248152602001806175e86024913960400191505060405180910390fd5b6103e8811015801561380e57506127108111155b613880576040517f08c379a000000000000000000000000000000000000000000000000000000000815260040180806020018281038252600c8152602001807f6f7574206f662072616e6765000000000000000000000000000000000000000081525060200191505060405180910390fd5b8060148190555050565b6000600d54905090565b600d5481565b6138a2616627565b156138f8576040517f08c379a00000000000000000000000000000000000000000000000000000000081526004018080602001828103825260268152602001806176366026913960400191505060405180910390fd5b61390061668b565b15613956576040517f08c379a00000000000000000000000000000000000000000000000000000000081526004018080602001828103825260268152602001806176366026913960400191505060405180910390fd5b6002544210156139ce576040517f08c379a00000000000000000000000000000000000000000000000000000000081526004018080602001828103825260198152602001807f54726561737572793a206e6f742073746172746564207965740000000000000081525060200191505060405180910390fd5b6139d6615da0565b421015613a4b576040517f08c379a00000000000000000000000000000000000000000000000000000000081526004018080602001828103825260188152602001807f54726561737572793a206e6f74206f70656e656420796574000000000000000081525060200191505060405180910390fd5b3073ffffffffffffffffffffffffffffffffffffffff16600660009054906101000a900473ffffffffffffffffffffffffffffffffffffffff1673ffffffffffffffffffffffffffffffffffffffff1663570ca7356040518163ffffffff1660e01b815260040160206040518083038186803b158015613aca57600080fd5b505afa158015613ade573d6000803e3d6000fd5b505050506040513d6020811015613af457600080fd5b810190808051906020019092919050505073ffffffffffffffffffffffffffffffffffffffff16148015613bf557503073ffffffffffffffffffffffffffffffffffffffff16600760009054906101000a900473ffffffffffffffffffffffffffffffffffffffff1673ffffffffffffffffffffffffffffffffffffffff1663570ca7356040518163ffffffff1660e01b815260040160206040518083038186803b158015613ba257600080fd5b505afa158015613bb6573d6000803e3d6000fd5b505050506040513d6020811015613bcc57600080fd5b810190808051906020019092919050505073ffffffffffffffffffffffffffffffffffffffff16145b8015613cce57503073ffffffffffffffffffffffffffffffffffffffff16600860009054906101000a900473ffffffffffffffffffffffffffffffffffffffff1673ffffffffffffffffffffffffffffffffffffffff1663570ca7356040518163ffffffff1660e01b815260040160206040518083038186803b158015613c7b57600080fd5b505afa158015613c8f573d6000803e3d6000fd5b505050506040513d6020811015613ca557600080fd5b810190808051906020019092919050505073ffffffffffffffffffffffffffffffffffffffff16145b8015613da757503073ffffffffffffffffffffffffffffffffffffffff16600960009054906101000a900473ffffffffffffffffffffffffffffffffffffffff1673ffffffffffffffffffffffffffffffffffffffff1663570ca7356040518163ffffffff1660e01b815260040160206040518083038186803b158015613d5457600080fd5b505afa158015613d68573d6000803e3d6000fd5b505050506040513d6020811015613d7e57600080fd5b810190808051906020019092919050505073ffffffffffffffffffffffffffffffffffffffff16145b613e19576040517f08c379a000000000000000000000000000000000000000000000000000000000815260040180806020018281038252601e8152602001807f54726561737572793a206e656564206d6f7265207065726d697373696f6e000081525060200191505060405180910390fd5b613e21616791565b613e2961137a565b6017819055506000613e4d600d54613e3f614840565b61650390919063ffffffff16565b90506015546003541015613e9157613e8c613e87612710613e79601654856163f490919063ffffffff16565b61647a90919063ffffffff16565b616818565b6141ef565b600c5460175411156141ee576000600760009054906101000a900473ffffffffffffffffffffffffffffffffffffffff1673ffffffffffffffffffffffffffffffffffffffff166318160ddd6040518163ffffffff1660e01b815260040160206040518083038186803b158015613f0757600080fd5b505afa158015613f1b573d6000803e3d6000fd5b505050506040513d6020811015613f3157600080fd5b810190808051906020019092919050505090506000613f5d600b5460175461650390919063ffffffff16565b90506000806000613f85655af3107a4000613f7788616d8e565b6163f490919063ffffffff16565b905080841115613f93578093505b613fbc612710613fae601154886163f490919063ffffffff16565b61647a90919063ffffffff16565b600d5410613ff857613ff1670de0b6b3a7640000613fe386896163f490919063ffffffff16565b61647a90919063ffffffff16565b91506140a2565b6000614027670de0b6b3a7640000614019878a6163f490919063ffffffff16565b61647a90919063ffffffff16565b9050614052612710614044601254846163f490919063ffffffff16565b61647a90919063ffffffff16565b9250614067838261650390919063ffffffff16565b93506000601d5411156140a05761409d61271061408f601d54876163f490919063ffffffff16565b61647a90919063ffffffff16565b93505b505b60008211156140b5576140b482616818565b5b60008311156141e8576140d383600d5461659f90919063ffffffff16565b600d81905550600660009054906101000a900473ffffffffffffffffffffffffffffffffffffffff1673ffffffffffffffffffffffffffffffffffffffff166340c10f1930856040518363ffffffff1660e01b8152600401808373ffffffffffffffffffffffffffffffffffffffff16815260200182815260200192505050602060405180830381600087803b15801561416c57600080fd5b505af1158015614180573d6000803e3d6000fd5b505050506040513d602081101561419657600080fd5b8101908080519060200190929190505050507ff705142bf09f04297640495ddf7c59b7fd6f51894c5aea9602d631cf05f0efc24284604051808381526020018281526020019250505060405180910390a15b50505050505b5b50614206600160035461659f90919063ffffffff16565b600381905550600c5461421761137a565b116142515761424c61271061423e601354614230614840565b6163f490919063ffffffff16565b61647a90919063ffffffff16565b614254565b60005b600481905550600160008043815260200190815260200160002060003273ffffffffffffffffffffffffffffffffffffffff1673ffffffffffffffffffffffffffffffffffffffff16815260200190815260200160002060006101000a81548160ff021916908315150217905550600160008043815260200190815260200160002060003373ffffffffffffffffffffffffffffffffffffffff1673ffffffffffffffffffffffffffffffffffffffff16815260200190815260200160002060006101000a81548160ff021916908315150217905550565b3373ffffffffffffffffffffffffffffffffffffffff16600160009054906101000a900473ffffffffffffffffffffffffffffffffffffffff1673ffffffffffffffffffffffffffffffffffffffff16146143d2576040517f08c379a00000000000000000000000000000000000000000000000000000000081526004018080602001828103825260248152602001806175e86024913960400191505060405180910390fd5b600960009054906101000a900473ffffffffffffffffffffffffffffffffffffffff1673ffffffffffffffffffffffffffffffffffffffff1663b3ab15fb826040518263ffffffff1660e01b8152600401808273ffffffffffffffffffffffffffffffffffffffff168152602001915050600060405180830381600087803b15801561445d57600080fd5b505af1158015614471573d6000803e3d6000fd5b5050505050565b600960009054906101000a900473ffffffffffffffffffffffffffffffffffffffff1681565b6000806144a961137a565b9050600c548111156145c5576000600660009054906101000a900473ffffffffffffffffffffffffffffffffffffffff1673ffffffffffffffffffffffffffffffffffffffff166370a08231306040518263ffffffff1660e01b8152600401808273ffffffffffffffffffffffffffffffffffffffff16815260200191505060206040518083038186803b15801561454057600080fd5b505afa158015614554573d6000803e3d6000fd5b505050506040513d602081101561456a57600080fd5b81019080805190602001909291905050509050600061458761182e565b905060008111156145c2576145bf816145b1670de0b6b3a7640000856163f490919063ffffffff16565b61647a90919063ffffffff16565b93505b50505b5090565b3373ffffffffffffffffffffffffffffffffffffffff16600160009054906101000a900473ffffffffffffffffffffffffffffffffffffffff1673ffffffffffffffffffffffffffffffffffffffff161461466f576040517f08c379a00000000000000000000000000000000000000000000000000000000081526004018080602001828103825260248152602001806175e86024913960400191505060405180910390fd5b600960009054906101000a900473ffffffffffffffffffffffffffffffffffffffff1673ffffffffffffffffffffffffffffffffffffffff16632ffaaa0983836040518363ffffffff1660e01b81526004018083815260200182815260200192505050600060405180830381600087803b1580156146ec57600080fd5b505af1158015614700573d6000803e3d6000fd5b505050505050565b3373ffffffffffffffffffffffffffffffffffffffff16600160009054906101000a900473ffffffffffffffffffffffffffffffffffffffff1673ffffffffffffffffffffffffffffffffffffffff16146147ae576040517f08c379a00000000000000000000000000000000000000000000000000000000081526004018080602001828103825260248152602001806175e86024913960400191505060405180910390fd5b80600a60006101000a81548173ffffffffffffffffffffffffffffffffffffffff021916908373ffffffffffffffffffffffffffffffffffffffff16021790555050565b60025481565b60115481565b6005818154811061480b57fe5b906000526020600020016000915054906101000a900473ffffffffffffffffffffffffffffffffffffffff1681565b60165481565b600080600660009054906101000a900473ffffffffffffffffffffffffffffffffffffffff16905060008173ffffffffffffffffffffffffffffffffffffffff166318160ddd6040518163ffffffff1660e01b815260040160206040518083038186803b1580156148b057600080fd5b505afa1580156148c4573d6000803e3d6000fd5b505050506040513d60208110156148da57600080fd5b810190808051906020019092919050505090506000805b6005805490508160ff1610156149fc576149ef8473ffffffffffffffffffffffffffffffffffffffff166370a0823160058460ff168154811061493057fe5b9060005260206000200160009054906101000a900473ffffffffffffffffffffffffffffffffffffffff166040518263ffffffff1660e01b8152600401808273ffffffffffffffffffffffffffffffffffffffff16815260200191505060206040518083038186803b1580156149a557600080fd5b505afa1580156149b9573d6000803e3d6000fd5b505050506040513d60208110156149cf57600080fd5b81019080805190602001909291905050508361659f90919063ffffffff16565b91508060010190506148f1565b50614a10818361650390919063ffffffff16565b935050505090565b3373ffffffffffffffffffffffffffffffffffffffff16600160009054906101000a900473ffffffffffffffffffffffffffffffffffffffff1673ffffffffffffffffffffffffffffffffffffffff1614614abe576040517f08c379a00000000000000000000000000000000000000000000000000000000081526004018080602001828103825260248152602001806175e86024913960400191505060405180910390fd5b6101f48110158015614ad257506127108111155b614b44576040517f08c379a000000000000000000000000000000000000000000000000000000000815260040180806020018281038252600c8152602001807f6f7574206f662072616e6765000000000000000000000000000000000000000081525060200191505060405180910390fd5b8060118190555050565b601e60009054906101000a900473ffffffffffffffffffffffffffffffffffffffff1681565b60035481565b3373ffffffffffffffffffffffffffffffffffffffff16600160009054906101000a900473ffffffffffffffffffffffffffffffffffffffff1673ffffffffffffffffffffffffffffffffffffffff1614614c20576040517f08c379a00000000000000000000000000000000000000000000000000000000081526004018080602001828103825260248152602001806175e86024913960400191505060405180910390fd5b6078821115614c97576040517f08c379a000000000000000000000000000000000000000000000000000000000815260040180806020018281038252601e8152602001807f5f626f6f74737472617045706f6368733a206f7574206f662072616e6765000081525060200191505060405180910390fd5b60648110158015614caa57506103e88111155b614cff576040517f08c379a000000000000000000000000000000000000000000000000000000000815260040180806020018281038252602e8152602001806176ee602e913960400191505060405180910390fd5b81601581905550806016819055505050565b60003373ffffffffffffffffffffffffffffffffffffffff16600160009054906101000a900473ffffffffffffffffffffffffffffffffffffffff1673ffffffffffffffffffffffffffffffffffffffff1614614db9576040517f08c379a00000000000000000000000000000000000000000000000000000000081526004018080602001828103825260248152602001806175e86024913960400191505060405180910390fd5b60008360ff161015614e33576040517f08c379a000000000000000000000000000000000000000000000000000000000815260040180806020018281038252601d8152602001807f496e6465782068617320746f20626520686967686572207468616e203000000081525060200191505060405180910390fd5b60098360ff1610614e8f576040517f08c379a00000000000000000000000000000000000000000000000000000000081526004018080602001828103825260298152602001806175bf6029913960400191505060405180910390fd5b60008360ff161115614ec557600e6001840360ff1681548110614eae57fe5b90600052602060002001548211614ec457600080fd5b5b60088360ff161015614efb57600e6001840160ff1681548110614ee457fe5b90600052602060002001548210614efa57600080fd5b5b81600e8460ff1681548110614f0c57fe5b90600052602060002001819055506001905092915050565b3373ffffffffffffffffffffffffffffffffffffffff16600160009054906101000a900473ffffffffffffffffffffffffffffffffffffffff1673ffffffffffffffffffffffffffffffffffffffff1614614fca576040517f08c379a00000000000000000000000000000000000000000000000000000000081526004018080602001828103825260248152602001806175e86024913960400191505060405180910390fd5b600960009054906101000a900473ffffffffffffffffffffffffffffffffffffffff1673ffffffffffffffffffffffffffffffffffffffff166354575af48484846040518463ffffffff1660e01b8152600401808473ffffffffffffffffffffffffffffffffffffffff1681526020018381526020018273ffffffffffffffffffffffffffffffffffffffff1681526020019350505050600060405180830381600087803b15801561507b57600080fd5b505af115801561508f573d6000803e3d6000fd5b50505050505050565b600160149054906101000a900460ff161561511b576040517f08c379a000000000000000000000000000000000000000000000000000000000815260040180806020018281038252601d8152602001807f54726561737572793a20616c726561647920696e697469616c697a656400000081525060200191505060405180910390fd5b85600660006101000a81548173ffffffffffffffffffffffffffffffffffffffff021916908373ffffffffffffffffffffffffffffffffffffffff16021790555084600760006101000a81548173ffffffffffffffffffffffffffffffffffffffff021916908373ffffffffffffffffffffffffffffffffffffffff16021790555083600860006101000a81548173ffffffffffffffffffffffffffffffffffffffff021916908373ffffffffffffffffffffffffffffffffffffffff16021790555082600a60006101000a81548173ffffffffffffffffffffffffffffffffffffffff021916908373ffffffffffffffffffffffffffffffffffffffff16021790555081600960006101000a81548173ffffffffffffffffffffffffffffffffffffffff021916908373ffffffffffffffffffffffffffffffffffffffff16021790555080600281905550670de0b6b3a7640000600b8190555061529f60646152916065600b546163f490919063ffffffff16565b61647a90919063ffffffff16565b600c8190555060405180610120016040528060006affffffffffffffffffffff1681526020016969e10de76676d08000006affffffffffffffffffffff16815260200169d3c21bcecceda10000006affffffffffffffffffffff1681526020016a013da329b63364718000006affffffffffffffffffffff1681526020016a01a784379d99db420000006affffffffffffffffffffff1681526020016a0422ca8b0a00a4250000006affffffffffffffffffffff1681526020016a084595161401484a0000006affffffffffffffffffffff1681526020016a108b2a2c280290940000006affffffffffffffffffffff1681526020016a295be96e640669720000006affffffffffffffffffffff16815250600e9060096153c1929190617353565b506040518061012001604052806101c261ffff16815260200161019061ffff16815260200161015e61ffff16815260200161012c61ffff16815260200160fa61ffff16815260200160c861ffff168152602001609661ffff168152602001607d61ffff168152602001606461ffff16815250600f9060096154439291906173af565b50610190601081905550612710601181905550610dac60128190555061012c601381905550610dac601481905550606e601b81905550611b58601c81905550601c6015819055506101c2601681905550600660009054906101000a900473ffffffffffffffffffffffffffffffffffffffff1673ffffffffffffffffffffffffffffffffffffffff166370a08231306040518263ffffffff1660e01b8152600401808273ffffffffffffffffffffffffffffffffffffffff16815260200191505060206040518083038186803b15801561551c57600080fd5b505afa158015615530573d6000803e3d6000fd5b505050506040513d602081101561554657600080fd5b8101908080519060200190929190505050600d8190555060018060146101000a81548160ff02191690831515021790555033600160006101000a81548173ffffffffffffffffffffffffffffffffffffffff021916908373ffffffffffffffffffffffffffffffffffffffff1602179055503373ffffffffffffffffffffffffffffffffffffffff167f25ff68dd81b34665b5ba7e553ee5511bf6812e12adb4a7e2c0d9e26b3099ce79436040518082815260200191505060405180910390a2505050505050565b3373ffffffffffffffffffffffffffffffffffffffff16600160009054906101000a900473ffffffffffffffffffffffffffffffffffffffff1673ffffffffffffffffffffffffffffffffffffffff16146156b4576040517f08c379a00000000000000000000000000000000000000000000000000000000081526004018080602001828103825260248152602001806175e86024913960400191505060405180910390fd5b8060188190555050565b600e81815481106156cb57fe5b906000526020600020016000915090505481565b600f81815481106156ec57fe5b906000526020600020016000915090505481565b3373ffffffffffffffffffffffffffffffffffffffff16600160009054906101000a900473ffffffffffffffffffffffffffffffffffffffff1673ffffffffffffffffffffffffffffffffffffffff16146157a6576040517f08c379a00000000000000000000000000000000000000000000000000000000081526004018080602001828103825260248152602001806175e86024913960400191505060405180910390fd5b8060198190555050565b60175481565b3373ffffffffffffffffffffffffffffffffffffffff16600160009054906101000a900473ffffffffffffffffffffffffffffffffffffffff1673ffffffffffffffffffffffffffffffffffffffff161461585c576040517f08c379a00000000000000000000000000000000000000000000000000000000081526004018080602001828103825260248152602001806175e86024913960400191505060405180910390fd5b80600160006101000a81548173ffffffffffffffffffffffffffffffffffffffff021916908373ffffffffffffffffffffffffffffffffffffffff16021790555050565b61546081565b60185481565b600760009054906101000a900473ffffffffffffffffffffffffffffffffffffffff1681565b3373ffffffffffffffffffffffffffffffffffffffff16600160009054906101000a900473ffffffffffffffffffffffffffffffffffffffff1673ffffffffffffffffffffffffffffffffffffffff1614615978576040517f08c379a00000000000000000000000000000000000000000000000000000000081526004018080602001828103825260248152602001806175e86024913960400191505060405180910390fd5b600073ffffffffffffffffffffffffffffffffffffffff168473ffffffffffffffffffffffffffffffffffffffff161415615a1b576040517f08c379a00000000000000000000000000000000000000000000000000000000081526004018080602001828103825260048152602001807f7a65726f0000000000000000000000000000000000000000000000000000000081525060200191505060405180910390fd5b610bb8831115615a93576040517f08c379a000000000000000000000000000000000000000000000000000000000815260040180806020018281038252600c8152602001807f6f7574206f662072616e6765000000000000000000000000000000000000000081525060200191505060405180910390fd5b600073ffffffffffffffffffffffffffffffffffffffff168273ffffffffffffffffffffffffffffffffffffffff161415615b36576040517f08c379a00000000000000000000000000000000000000000000000000000000081526004018080602001828103825260048152602001807f7a65726f0000000000000000000000000000000000000000000000000000000081525060200191505060405180910390fd5b6103e8811115615bae576040517f08c379a000000000000000000000000000000000000000000000000000000000815260040180806020018281038252600c8152602001807f6f7574206f662072616e6765000000000000000000000000000000000000000081525060200191505060405180910390fd5b83601e60006101000a81548173ffffffffffffffffffffffffffffffffffffffff021916908373ffffffffffffffffffffffffffffffffffffffff16021790555082601f8190555081602060006101000a81548173ffffffffffffffffffffffffffffffffffffffff021916908373ffffffffffffffffffffffffffffffffffffffff1602179055508060218190555050505050565b3373ffffffffffffffffffffffffffffffffffffffff16600160009054906101000a900473ffffffffffffffffffffffffffffffffffffffff1673ffffffffffffffffffffffffffffffffffffffff1614615cea576040517f08c379a00000000000000000000000000000000000000000000000000000000081526004018080602001828103825260248152602001806175e86024913960400191505060405180910390fd5b600960009054906101000a900473ffffffffffffffffffffffffffffffffffffffff1673ffffffffffffffffffffffffffffffffffffffff166397ffe1d7826040518263ffffffff1660e01b815260040180828152602001915050600060405180830381600087803b158015615d5f57600080fd5b505af1158015615d73573d6000803e3d6000fd5b5050505050565b600660009054906101000a900473ffffffffffffffffffffffffffffffffffffffff1681565b6000615dcd615dbc6154606003546163f490919063ffffffff16565b60025461659f90919063ffffffff16565b905090565b6000600a60009054906101000a900473ffffffffffffffffffffffffffffffffffffffff1673ffffffffffffffffffffffffffffffffffffffff16636808a128600660009054906101000a900473ffffffffffffffffffffffffffffffffffffffff16670de0b6b3a76400006040518363ffffffff1660e01b8152600401808373ffffffffffffffffffffffffffffffffffffffff1681526020018281526020019250505060206040518083038186803b158015615e8f57600080fd5b505afa925050508015615ec357506040513d6020811015615eaf57600080fd5b810190808051906020019092919050505060015b615f18576040517f08c379a00000000000000000000000000000000000000000000000000000000081526004018080602001828103825260368152602001806174786036913960400191505060405180910390fd5b8071ffffffffffffffffffffffffffffffffffff1691505090565b601c5481565b601b5481565b3373ffffffffffffffffffffffffffffffffffffffff16600160009054906101000a900473ffffffffffffffffffffffffffffffffffffffff1673ffffffffffffffffffffffffffffffffffffffff1614615fe5576040517f08c379a00000000000000000000000000000000000000000000000000000000081526004018080602001828103825260248152602001806175e86024913960400191505060405180910390fd5b60648110158015615ff857506105dc8111155b61606a576040517f08c379a000000000000000000000000000000000000000000000000000000000815260040180806020018281038252600c8152602001807f6f7574206f662072616e6765000000000000000000000000000000000000000081525060200191505060405180910390fd5b8060138190555050565b60003373ffffffffffffffffffffffffffffffffffffffff16600160009054906101000a900473ffffffffffffffffffffffffffffffffffffffff1673ffffffffffffffffffffffffffffffffffffffff161461611c576040517f08c379a00000000000000000000000000000000000000000000000000000000081526004018080602001828103825260248152602001806175e86024913960400191505060405180910390fd5b60008360ff161015616196576040517f08c379a000000000000000000000000000000000000000000000000000000000815260040180806020018281038252601d8152602001807f496e6465782068617320746f20626520686967686572207468616e203000000081525060200191505060405180910390fd5b60098360ff16106161f2576040517f08c379a00000000000000000000000000000000000000000000000000000000081526004018080602001828103825260298152602001806175bf6029913960400191505060405180910390fd5b600a821015801561620557506103e88211155b616277576040517f08c379a00000000000000000000000000000000000000000000000000000000081526004018080602001828103825260148152602001807f5f76616c75653a206f7574206f662072616e676500000000000000000000000081525060200191505060405180910390fd5b81600f8460ff168154811061628857fe5b90600052602060002001819055506001905092915050565b3373ffffffffffffffffffffffffffffffffffffffff16600160009054906101000a900473ffffffffffffffffffffffffffffffffffffffff1673ffffffffffffffffffffffffffffffffffffffff1614616346576040517f08c379a00000000000000000000000000000000000000000000000000000000081526004018080602001828103825260248152602001806175e86024913960400191505060405180910390fd5b80600960006101000a81548173ffffffffffffffffffffffffffffffffffffffff021916908373ffffffffffffffffffffffffffffffffffffffff16021790555050565b60105481565b60145481565b60135481565b600860009054906101000a900473ffffffffffffffffffffffffffffffffffffffff1681565b60155481565b600a60009054906101000a900473ffffffffffffffffffffffffffffffffffffffff1681565b60045481565b6000808314156164075760009050616474565b600082840290508284828161641857fe5b041461646f576040517f08c379a000000000000000000000000000000000000000000000000000000000815260040180806020018281038252602181526020018061751d6021913960400191505060405180910390fd5b809150505b92915050565b60008082116164f1576040517f08c379a000000000000000000000000000000000000000000000000000000000815260040180806020018281038252601a8152602001807f536166654d6174683a206469766973696f6e206279207a65726f00000000000081525060200191505060405180910390fd5b8183816164fa57fe5b04905092915050565b60008282111561657b576040517f08c379a000000000000000000000000000000000000000000000000000000000815260040180806020018281038252601e8152602001807f536166654d6174683a207375627472616374696f6e206f766572666c6f77000081525060200191505060405180910390fd5b818303905092915050565b60008183106165955781616597565b825b905092915050565b60008082840190508381101561661d576040517f08c379a000000000000000000000000000000000000000000000000000000000815260040180806020018281038252601b8152602001807f536166654d6174683a206164646974696f6e206f766572666c6f77000000000081525060200191505060405180910390fd5b8091505092915050565b600080600043815260200190815260200160002060003273ffffffffffffffffffffffffffffffffffffffff1673ffffffffffffffffffffffffffffffffffffffff16815260200190815260200160002060009054906101000a900460ff16905090565b600080600043815260200190815260200160002060003373ffffffffffffffffffffffffffffffffffffffff1673ffffffffffffffffffffffffffffffffffffffff16815260200190815260200160002060009054906101000a900460ff16905090565b61678c8363a9059cbb60e01b8484604051602401808373ffffffffffffffffffffffffffffffffffffffff16815260200182815260200192505050604051602081830303815290604052907bffffffffffffffffffffffffffffffffffffffffffffffffffffffff19166020820180517bffffffffffffffffffffffffffffffffffffffffffffffffffffffff8381831617835250505050616dff565b505050565b600a60009054906101000a900473ffffffffffffffffffffffffffffffffffffffff1673ffffffffffffffffffffffffffffffffffffffff1663a2e620456040518163ffffffff1660e01b8152600401600060405180830381600087803b1580156167fb57600080fd5b505af192505050801561680c575060015b61681557616816565b5b565b600660009054906101000a900473ffffffffffffffffffffffffffffffffffffffff1673ffffffffffffffffffffffffffffffffffffffff166340c10f1930836040518363ffffffff1660e01b8152600401808373ffffffffffffffffffffffffffffffffffffffff16815260200182815260200192505050602060405180830381600087803b1580156168ab57600080fd5b505af11580156168bf573d6000803e3d6000fd5b505050506040513d60208110156168d557600080fd5b810190808051906020019092919050505050600080601f541115616a4f5761691c61271061690e601f54856163f490919063ffffffff16565b61647a90919063ffffffff16565b9050600660009054906101000a900473ffffffffffffffffffffffffffffffffffffffff1673ffffffffffffffffffffffffffffffffffffffff1663a9059cbb601e60009054906101000a900473ffffffffffffffffffffffffffffffffffffffff16836040518363ffffffff1660e01b8152600401808373ffffffffffffffffffffffffffffffffffffffff16815260200182815260200192505050602060405180830381600087803b1580156169d357600080fd5b505af11580156169e7573d6000803e3d6000fd5b505050506040513d60208110156169fd57600080fd5b8101908080519060200190929190505050507fcb3f34aaa3445b461e6da5492dc89e5c257a59fa598131f3b6bbc97a3638e4094282604051808381526020018281526020019250505060405180910390a15b6000806021541115616bb757616a84612710616a76602154866163f490919063ffffffff16565b61647a90919063ffffffff16565b9050600660009054906101000a900473ffffffffffffffffffffffffffffffffffffffff1673ffffffffffffffffffffffffffffffffffffffff1663a9059cbb602060009054906101000a900473ffffffffffffffffffffffffffffffffffffffff16836040518363ffffffff1660e01b8152600401808373ffffffffffffffffffffffffffffffffffffffff16815260200182815260200192505050602060405180830381600087803b158015616b3b57600080fd5b505af1158015616b4f573d6000803e3d6000fd5b505050506040513d6020811015616b6557600080fd5b8101908080519060200190929190505050507fdc8b715b18523e58b7fd0da53259dfa91efd91df4a854d94b136e3333a3b93954282604051808381526020018281526020019250505060405180910390a15b616bdc81616bce848661650390919063ffffffff16565b61650390919063ffffffff16565b9250616c4e600960009054906101000a900473ffffffffffffffffffffffffffffffffffffffff166000600660009054906101000a900473ffffffffffffffffffffffffffffffffffffffff1673ffffffffffffffffffffffffffffffffffffffff16616eee9092919063ffffffff16565b616cbd600960009054906101000a900473ffffffffffffffffffffffffffffffffffffffff1684600660009054906101000a900473ffffffffffffffffffffffffffffffffffffffff1673ffffffffffffffffffffffffffffffffffffffff16616eee9092919063ffffffff16565b600960009054906101000a900473ffffffffffffffffffffffffffffffffffffffff1673ffffffffffffffffffffffffffffffffffffffff166397ffe1d7846040518263ffffffff1660e01b815260040180828152602001915050600060405180830381600087803b158015616d3257600080fd5b505af1158015616d46573d6000803e3d6000fd5b505050507fa72fa2f263b243b0f0e1fec5f3d49d33de573d15929b6b730c6b8ab3838c1c4d4284604051808381526020018281526020019250505060405180910390a1505050565b600080600890505b60008160ff1610616df457600e8160ff1681548110616db157fe5b90600052602060002001548310616de857600f8160ff1681548110616dd257fe5b9060005260206000200154601081905550616df4565b80600190039050616d96565b506010549050919050565b6060616e61826040518060400160405280602081526020017f5361666545524332303a206c6f772d6c6576656c2063616c6c206661696c65648152508573ffffffffffffffffffffffffffffffffffffffff166170b39092919063ffffffff16565b9050600081511115616ee957808060200190516020811015616e8257600080fd5b8101908080519060200190929190505050616ee8576040517f08c379a000000000000000000000000000000000000000000000000000000000815260040180806020018281038252602a81526020018061760c602a913960400191505060405180910390fd5b5b505050565b6000811480616fbc575060008373ffffffffffffffffffffffffffffffffffffffff1663dd62ed3e30856040518363ffffffff1660e01b8152600401808373ffffffffffffffffffffffffffffffffffffffff1681526020018273ffffffffffffffffffffffffffffffffffffffff1681526020019250505060206040518083038186803b158015616f7f57600080fd5b505afa158015616f93573d6000803e3d6000fd5b505050506040513d6020811015616fa957600080fd5b8101908080519060200190929190505050145b617011576040517f08c379a000000000000000000000000000000000000000000000000000000000815260040180806020018281038252603681526020018061765c6036913960400191505060405180910390fd5b6170ae8363095ea7b360e01b8484604051602401808373ffffffffffffffffffffffffffffffffffffffff16815260200182815260200192505050604051602081830303815290604052907bffffffffffffffffffffffffffffffffffffffffffffffffffffffff19166020820180517bffffffffffffffffffffffffffffffffffffffffffffffffffffffff8381831617835250505050616dff565b505050565b60606170c284846000856170cb565b90509392505050565b606082471015617126576040517f08c379a00000000000000000000000000000000000000000000000000000000081526004018080602001828103825260268152602001806174d26026913960400191505060405180910390fd5b61712f85617274565b6171a1576040517f08c379a000000000000000000000000000000000000000000000000000000000815260040180806020018281038252601d8152602001807f416464726573733a2063616c6c20746f206e6f6e2d636f6e747261637400000081525060200191505060405180910390fd5b600060608673ffffffffffffffffffffffffffffffffffffffff1685876040518082805190602001908083835b602083106171f157805182526020820191506020810190506020830392506171ce565b6001836020036101000a03801982511681845116808217855250505050505090500191505060006040518083038185875af1925050503d8060008114617253576040519150601f19603f3d011682016040523d82523d6000602084013e617258565b606091505b5091509150617268828286617287565b92505050949350505050565b600080823b905060008111915050919050565b606083156172975782905061734c565b6000835111156172aa5782518084602001fd5b816040517f08c379a00000000000000000000000000000000000000000000000000000000081526004018080602001828103825283818151815260200191508051906020019080838360005b838110156173115780820151818401526020810190506172f6565b50505050905090810190601f16801561733e5780820380516001836020036101000a031916815260200191505b509250505060405180910390fd5b9392505050565b82805482825590600052602060002090810192821561739e579160200282015b8281111561739d57825182906affffffffffffffffffffff16905591602001919060010190617373565b5b5090506173ab9190617402565b5090565b8280548282559060005260206000209081019282156173f1579160200282015b828111156173f0578251829061ffff169055916020019190600101906173cf565b5b5090506173fe9190617402565b5090565b5b8082111561741b576000816000905550600101617403565b509056fe5f7072656d69756d5468726573686f6c64206578636565647320746f6d6250726963654365696c696e6754726561737572793a2063616e6e6f742072656465656d20626f6e64732077697468207a65726f20616d6f756e7454726561737572793a206661696c656420746f20636f6e73756c7420544f4d422070726963652066726f6d20746865206f7261636c655f7072656d69756d5468726573686f6c6420697320686967686572207468616e20312e35416464726573733a20696e73756666696369656e742062616c616e636520666f722063616c6c54726561737572793a20747265617375727920686173206e6f206d6f726520627564676574536166654d6174683a206d756c7469706c69636174696f6e206f766572666c6f7754726561737572793a2063616e6e6f7420707572636861736520626f6e64732077697468207a65726f20616d6f756e745f6d696e74696e67466163746f72466f72506179696e67446562743a206f7574206f662072616e67655f6d6178537570706c79457870616e73696f6e50657263656e743a206f7574206f662072616e6765496e6465782068617320746f206265206c6f776572207468616e20636f756e74206f6620746965727354726561737572793a2063616c6c6572206973206e6f7420746865206f70657261746f725361666545524332303a204552433230206f7065726174696f6e20646964206e6f742073756363656564436f6e747261637447756172643a206f6e6520626c6f636b2c206f6e652066756e6374696f6e5361666545524332303a20617070726f76652066726f6d206e6f6e2d7a65726f20746f206e6f6e2d7a65726f20616c6c6f77616e636554726561737572793a20746f6d625072696365206e6f7420656c696769626c6520666f7220626f6e6420707572636861736554726561737572793a206e6f7420656e6f75676820626f6e64206c65667420746f2070757263686173655f626f6f747374726170537570706c79457870616e73696f6e50657263656e743a206f7574206f662072616e6765a2646970667358221220416ad1487d882e6f699d9403eea5f7cff7aa4bcf3abaf05b453c67b2e9dbf3e964736f6c634300060c0033",
  "immutableReferences": {},
  "source": "// SPDX-License-Identifier: MIT\r\n\r\npragma solidity 0.6.12;\r\n\r\nimport \"@openzeppelin/contracts/math/Math.sol\";\r\nimport \"@openzeppelin/contracts/token/ERC20/IERC20.sol\";\r\nimport \"@openzeppelin/contracts/token/ERC20/SafeERC20.sol\";\r\nimport \"@openzeppelin/contracts/utils/ReentrancyGuard.sol\";\r\n\r\nimport \"./lib/Babylonian.sol\";\r\nimport \"./owner/Operator.sol\";\r\nimport \"./utils/ContractGuard.sol\";\r\nimport \"./interfaces/IBasisAsset.sol\";\r\nimport \"./interfaces/IOracle.sol\";\r\nimport \"./interfaces/IMasonry.sol\";\r\n\r\n/*\r\n  ______                __       _______\r\n /_  __/___  ____ ___  / /_     / ____(_)___  ____ _____  ________\r\n  / / / __ \\/ __ `__ \\/ __ \\   / /_  / / __ \\/ __ `/ __ \\/ ___/ _ \\\r\n / / / /_/ / / / / / / /_/ /  / __/ / / / / / /_/ / / / / /__/  __/\r\n/_/  \\____/_/ /_/ /_/_.___/  /_/   /_/_/ /_/\\__,_/_/ /_/\\___/\\___/\r\n\r\n    http://tomb.finance\r\n*/\r\ncontract Treasury is ContractGuard {\r\n    using SafeERC20 for IERC20;\r\n    using Address for address;\r\n    using SafeMath for uint256;\r\n\r\n    /* ========= CONSTANT VARIABLES ======== */\r\n\r\n    uint256 public constant PERIOD = 6 hours;\r\n\r\n    /* ========== STATE VARIABLES ========== */\r\n\r\n    // governance\r\n    address public operator;\r\n\r\n    // flags\r\n    bool public initialized = false;\r\n\r\n    // epoch\r\n    uint256 public startTime;\r\n    uint256 public epoch = 0;\r\n    uint256 public epochSupplyContractionLeft = 0;\r\n\r\n    // exclusions from total supply\r\n    address[] public excludedFromTotalSupply = [\r\n        address(0x9A896d3c54D7e45B558BD5fFf26bF1E8C031F93b), // TombGenesisPool\r\n        address(0xa7b9123f4b15fE0fF01F469ff5Eab2b41296dC0E), // new TombRewardPool\r\n        address(0xA7B16703470055881e7EE093e9b0bF537f29CD4d) // old TombRewardPool\r\n    ];\r\n\r\n    // core components\r\n    address public tomb;\r\n    address public tbond;\r\n    address public tshare;\r\n\r\n    address public masonry;\r\n    address public tombOracle;\r\n\r\n    // price\r\n    uint256 public tombPriceOne;\r\n    uint256 public tombPriceCeiling;\r\n\r\n    uint256 public seigniorageSaved;\r\n\r\n    uint256[] public supplyTiers;\r\n    uint256[] public maxExpansionTiers;\r\n\r\n    uint256 public maxSupplyExpansionPercent;\r\n    uint256 public bondDepletionFloorPercent;\r\n    uint256 public seigniorageExpansionFloorPercent;\r\n    uint256 public maxSupplyContractionPercent;\r\n    uint256 public maxDebtRatioPercent;\r\n\r\n    // 28 first epochs (1 week) with 4.5% expansion regardless of TOMB price\r\n    uint256 public bootstrapEpochs;\r\n    uint256 public bootstrapSupplyExpansionPercent;\r\n\r\n    /* =================== Added variables =================== */\r\n    uint256 public previousEpochTombPrice;\r\n    uint256 public maxDiscountRate; // when purchasing bond\r\n    uint256 public maxPremiumRate; // when redeeming bond\r\n    uint256 public discountPercent;\r\n    uint256 public premiumThreshold;\r\n    uint256 public premiumPercent;\r\n    uint256 public mintingFactorForPayingDebt; // print extra TOMB during debt phase\r\n\r\n    address public daoFund;\r\n    uint256 public daoFundSharedPercent;\r\n\r\n    address public devFund;\r\n    uint256 public devFundSharedPercent;\r\n\r\n    /* =================== Events =================== */\r\n\r\n    event Initialized(address indexed executor, uint256 at);\r\n    event BurnedBonds(address indexed from, uint256 bondAmount);\r\n    event RedeemedBonds(address indexed from, uint256 tombAmount, uint256 bondAmount);\r\n    event BoughtBonds(address indexed from, uint256 tombAmount, uint256 bondAmount);\r\n    event TreasuryFunded(uint256 timestamp, uint256 seigniorage);\r\n    event MasonryFunded(uint256 timestamp, uint256 seigniorage);\r\n    event DaoFundFunded(uint256 timestamp, uint256 seigniorage);\r\n    event DevFundFunded(uint256 timestamp, uint256 seigniorage);\r\n\r\n    /* =================== Modifier =================== */\r\n\r\n    modifier onlyOperator() {\r\n        require(operator == msg.sender, \"Treasury: caller is not the operator\");\r\n        _;\r\n    }\r\n\r\n    modifier checkCondition {\r\n        require(now >= startTime, \"Treasury: not started yet\");\r\n\r\n        _;\r\n    }\r\n\r\n    modifier checkEpoch {\r\n        require(now >= nextEpochPoint(), \"Treasury: not opened yet\");\r\n\r\n        _;\r\n\r\n        epoch = epoch.add(1);\r\n        epochSupplyContractionLeft = (getTombPrice() > tombPriceCeiling) ? 0 : getTombCirculatingSupply().mul(maxSupplyContractionPercent).div(10000);\r\n    }\r\n\r\n    modifier checkOperator {\r\n        require(\r\n            IBasisAsset(tomb).operator() == address(this) &&\r\n                IBasisAsset(tbond).operator() == address(this) &&\r\n                IBasisAsset(tshare).operator() == address(this) &&\r\n                Operator(masonry).operator() == address(this),\r\n            \"Treasury: need more permission\"\r\n        );\r\n\r\n        _;\r\n    }\r\n\r\n    modifier notInitialized {\r\n        require(!initialized, \"Treasury: already initialized\");\r\n\r\n        _;\r\n    }\r\n\r\n    /* ========== VIEW FUNCTIONS ========== */\r\n\r\n    function isInitialized() public view returns (bool) {\r\n        return initialized;\r\n    }\r\n\r\n    // epoch\r\n    function nextEpochPoint() public view returns (uint256) {\r\n        return startTime.add(epoch.mul(PERIOD));\r\n    }\r\n\r\n    // oracle\r\n    function getTombPrice() public view returns (uint256 tombPrice) {\r\n        try IOracle(tombOracle).consult(tomb, 1e18) returns (uint144 price) {\r\n            return uint256(price);\r\n        } catch {\r\n            revert(\"Treasury: failed to consult TOMB price from the oracle\");\r\n        }\r\n    }\r\n\r\n    function getTombUpdatedPrice() public view returns (uint256 _tombPrice) {\r\n        try IOracle(tombOracle).twap(tomb, 1e18) returns (uint144 price) {\r\n            return uint256(price);\r\n        } catch {\r\n            revert(\"Treasury: failed to consult TOMB price from the oracle\");\r\n        }\r\n    }\r\n\r\n    // budget\r\n    function getReserve() public view returns (uint256) {\r\n        return seigniorageSaved;\r\n    }\r\n\r\n    function getBurnableTombLeft() public view returns (uint256 _burnableTombLeft) {\r\n        uint256 _tombPrice = getTombPrice();\r\n        if (_tombPrice <= tombPriceOne) {\r\n            uint256 _tombSupply = getTombCirculatingSupply();\r\n            uint256 _bondMaxSupply = _tombSupply.mul(maxDebtRatioPercent).div(10000);\r\n            uint256 _bondSupply = IERC20(tbond).totalSupply();\r\n            if (_bondMaxSupply > _bondSupply) {\r\n                uint256 _maxMintableBond = _bondMaxSupply.sub(_bondSupply);\r\n                uint256 _maxBurnableTomb = _maxMintableBond.mul(_tombPrice).div(1e18);\r\n                _burnableTombLeft = Math.min(epochSupplyContractionLeft, _maxBurnableTomb);\r\n            }\r\n        }\r\n    }\r\n\r\n    function getRedeemableBonds() public view returns (uint256 _redeemableBonds) {\r\n        uint256 _tombPrice = getTombPrice();\r\n        if (_tombPrice > tombPriceCeiling) {\r\n            uint256 _totalTomb = IERC20(tomb).balanceOf(address(this));\r\n            uint256 _rate = getBondPremiumRate();\r\n            if (_rate > 0) {\r\n                _redeemableBonds = _totalTomb.mul(1e18).div(_rate);\r\n            }\r\n        }\r\n    }\r\n\r\n    function getBondDiscountRate() public view returns (uint256 _rate) {\r\n        uint256 _tombPrice = getTombPrice();\r\n        if (_tombPrice <= tombPriceOne) {\r\n            if (discountPercent == 0) {\r\n                // no discount\r\n                _rate = tombPriceOne;\r\n            } else {\r\n                uint256 _bondAmount = tombPriceOne.mul(1e18).div(_tombPrice); // to burn 1 TOMB\r\n                uint256 _discountAmount = _bondAmount.sub(tombPriceOne).mul(discountPercent).div(10000);\r\n                _rate = tombPriceOne.add(_discountAmount);\r\n                if (maxDiscountRate > 0 && _rate > maxDiscountRate) {\r\n                    _rate = maxDiscountRate;\r\n                }\r\n            }\r\n        }\r\n    }\r\n\r\n    function getBondPremiumRate() public view returns (uint256 _rate) {\r\n        uint256 _tombPrice = getTombPrice();\r\n        if (_tombPrice > tombPriceCeiling) {\r\n            uint256 _tombPricePremiumThreshold = tombPriceOne.mul(premiumThreshold).div(100);\r\n            if (_tombPrice >= _tombPricePremiumThreshold) {\r\n                //Price > 1.10\r\n                uint256 _premiumAmount = _tombPrice.sub(tombPriceOne).mul(premiumPercent).div(10000);\r\n                _rate = tombPriceOne.add(_premiumAmount);\r\n                if (maxPremiumRate > 0 && _rate > maxPremiumRate) {\r\n                    _rate = maxPremiumRate;\r\n                }\r\n            } else {\r\n                // no premium bonus\r\n                _rate = tombPriceOne;\r\n            }\r\n        }\r\n    }\r\n\r\n    /* ========== GOVERNANCE ========== */\r\n\r\n    function initialize(\r\n        address _tomb,\r\n        address _tbond,\r\n        address _tshare,\r\n        address _tombOracle,\r\n        address _masonry,\r\n        uint256 _startTime\r\n    ) public notInitialized {\r\n        tomb = _tomb;\r\n        tbond = _tbond;\r\n        tshare = _tshare;\r\n        tombOracle = _tombOracle;\r\n        masonry = _masonry;\r\n        startTime = _startTime;\r\n\r\n        tombPriceOne = 10**18;\r\n        tombPriceCeiling = tombPriceOne.mul(101).div(100);\r\n\r\n        // Dynamic max expansion percent\r\n        supplyTiers = [0 ether, 500000 ether, 1000000 ether, 1500000 ether, 2000000 ether, 5000000 ether, 10000000 ether, 20000000 ether, 50000000 ether];\r\n        maxExpansionTiers = [450, 400, 350, 300, 250, 200, 150, 125, 100];\r\n\r\n        maxSupplyExpansionPercent = 400; // Upto 4.0% supply for expansion\r\n\r\n        bondDepletionFloorPercent = 10000; // 100% of Bond supply for depletion floor\r\n        seigniorageExpansionFloorPercent = 3500; // At least 35% of expansion reserved for masonry\r\n        maxSupplyContractionPercent = 300; // Upto 3.0% supply for contraction (to burn TOMB and mint tBOND)\r\n        maxDebtRatioPercent = 3500; // Upto 35% supply of tBOND to purchase\r\n\r\n        premiumThreshold = 110;\r\n        premiumPercent = 7000;\r\n\r\n        // First 28 epochs with 4.5% expansion\r\n        bootstrapEpochs = 28;\r\n        bootstrapSupplyExpansionPercent = 450;\r\n\r\n        // set seigniorageSaved to it's balance\r\n        seigniorageSaved = IERC20(tomb).balanceOf(address(this));\r\n\r\n        initialized = true;\r\n        operator = msg.sender;\r\n        emit Initialized(msg.sender, block.number);\r\n    }\r\n\r\n    function setOperator(address _operator) external onlyOperator {\r\n        operator = _operator;\r\n    }\r\n\r\n    function setMasonry(address _masonry) external onlyOperator {\r\n        masonry = _masonry;\r\n    }\r\n\r\n    function setTombOracle(address _tombOracle) external onlyOperator {\r\n        tombOracle = _tombOracle;\r\n    }\r\n\r\n    function setTombPriceCeiling(uint256 _tombPriceCeiling) external onlyOperator {\r\n        require(_tombPriceCeiling >= tombPriceOne && _tombPriceCeiling <= tombPriceOne.mul(120).div(100), \"out of range\"); // [$1.0, $1.2]\r\n        tombPriceCeiling = _tombPriceCeiling;\r\n    }\r\n\r\n    function setMaxSupplyExpansionPercents(uint256 _maxSupplyExpansionPercent) external onlyOperator {\r\n        require(_maxSupplyExpansionPercent >= 10 && _maxSupplyExpansionPercent <= 1000, \"_maxSupplyExpansionPercent: out of range\"); // [0.1%, 10%]\r\n        maxSupplyExpansionPercent = _maxSupplyExpansionPercent;\r\n    }\r\n\r\n    function setSupplyTiersEntry(uint8 _index, uint256 _value) external onlyOperator returns (bool) {\r\n        require(_index >= 0, \"Index has to be higher than 0\");\r\n        require(_index < 9, \"Index has to be lower than count of tiers\");\r\n        if (_index > 0) {\r\n            require(_value > supplyTiers[_index - 1]);\r\n        }\r\n        if (_index < 8) {\r\n            require(_value < supplyTiers[_index + 1]);\r\n        }\r\n        supplyTiers[_index] = _value;\r\n        return true;\r\n    }\r\n\r\n    function setMaxExpansionTiersEntry(uint8 _index, uint256 _value) external onlyOperator returns (bool) {\r\n        require(_index >= 0, \"Index has to be higher than 0\");\r\n        require(_index < 9, \"Index has to be lower than count of tiers\");\r\n        require(_value >= 10 && _value <= 1000, \"_value: out of range\"); // [0.1%, 10%]\r\n        maxExpansionTiers[_index] = _value;\r\n        return true;\r\n    }\r\n\r\n    function setBondDepletionFloorPercent(uint256 _bondDepletionFloorPercent) external onlyOperator {\r\n        require(_bondDepletionFloorPercent >= 500 && _bondDepletionFloorPercent <= 10000, \"out of range\"); // [5%, 100%]\r\n        bondDepletionFloorPercent = _bondDepletionFloorPercent;\r\n    }\r\n\r\n    function setMaxSupplyContractionPercent(uint256 _maxSupplyContractionPercent) external onlyOperator {\r\n        require(_maxSupplyContractionPercent >= 100 && _maxSupplyContractionPercent <= 1500, \"out of range\"); // [0.1%, 15%]\r\n        maxSupplyContractionPercent = _maxSupplyContractionPercent;\r\n    }\r\n\r\n    function setMaxDebtRatioPercent(uint256 _maxDebtRatioPercent) external onlyOperator {\r\n        require(_maxDebtRatioPercent >= 1000 && _maxDebtRatioPercent <= 10000, \"out of range\"); // [10%, 100%]\r\n        maxDebtRatioPercent = _maxDebtRatioPercent;\r\n    }\r\n\r\n    function setBootstrap(uint256 _bootstrapEpochs, uint256 _bootstrapSupplyExpansionPercent) external onlyOperator {\r\n        require(_bootstrapEpochs <= 120, \"_bootstrapEpochs: out of range\"); // <= 1 month\r\n        require(_bootstrapSupplyExpansionPercent >= 100 && _bootstrapSupplyExpansionPercent <= 1000, \"_bootstrapSupplyExpansionPercent: out of range\"); // [1%, 10%]\r\n        bootstrapEpochs = _bootstrapEpochs;\r\n        bootstrapSupplyExpansionPercent = _bootstrapSupplyExpansionPercent;\r\n    }\r\n\r\n    function setExtraFunds(\r\n        address _daoFund,\r\n        uint256 _daoFundSharedPercent,\r\n        address _devFund,\r\n        uint256 _devFundSharedPercent\r\n    ) external onlyOperator {\r\n        require(_daoFund != address(0), \"zero\");\r\n        require(_daoFundSharedPercent <= 3000, \"out of range\"); // <= 30%\r\n        require(_devFund != address(0), \"zero\");\r\n        require(_devFundSharedPercent <= 1000, \"out of range\"); // <= 10%\r\n        daoFund = _daoFund;\r\n        daoFundSharedPercent = _daoFundSharedPercent;\r\n        devFund = _devFund;\r\n        devFundSharedPercent = _devFundSharedPercent;\r\n    }\r\n\r\n    function setMaxDiscountRate(uint256 _maxDiscountRate) external onlyOperator {\r\n        maxDiscountRate = _maxDiscountRate;\r\n    }\r\n\r\n    function setMaxPremiumRate(uint256 _maxPremiumRate) external onlyOperator {\r\n        maxPremiumRate = _maxPremiumRate;\r\n    }\r\n\r\n    function setDiscountPercent(uint256 _discountPercent) external onlyOperator {\r\n        require(_discountPercent <= 20000, \"_discountPercent is over 200%\");\r\n        discountPercent = _discountPercent;\r\n    }\r\n\r\n    function setPremiumThreshold(uint256 _premiumThreshold) external onlyOperator {\r\n        require(_premiumThreshold >= tombPriceCeiling, \"_premiumThreshold exceeds tombPriceCeiling\");\r\n        require(_premiumThreshold <= 150, \"_premiumThreshold is higher than 1.5\");\r\n        premiumThreshold = _premiumThreshold;\r\n    }\r\n\r\n    function setPremiumPercent(uint256 _premiumPercent) external onlyOperator {\r\n        require(_premiumPercent <= 20000, \"_premiumPercent is over 200%\");\r\n        premiumPercent = _premiumPercent;\r\n    }\r\n\r\n    function setMintingFactorForPayingDebt(uint256 _mintingFactorForPayingDebt) external onlyOperator {\r\n        require(_mintingFactorForPayingDebt >= 10000 && _mintingFactorForPayingDebt <= 20000, \"_mintingFactorForPayingDebt: out of range\"); // [100%, 200%]\r\n        mintingFactorForPayingDebt = _mintingFactorForPayingDebt;\r\n    }\r\n\r\n    /* ========== MUTABLE FUNCTIONS ========== */\r\n\r\n    function _updateTombPrice() internal {\r\n        try IOracle(tombOracle).update() {} catch {}\r\n    }\r\n\r\n    function getTombCirculatingSupply() public view returns (uint256) {\r\n        IERC20 tombErc20 = IERC20(tomb);\r\n        uint256 totalSupply = tombErc20.totalSupply();\r\n        uint256 balanceExcluded = 0;\r\n        for (uint8 entryId = 0; entryId < excludedFromTotalSupply.length; ++entryId) {\r\n            balanceExcluded = balanceExcluded.add(tombErc20.balanceOf(excludedFromTotalSupply[entryId]));\r\n        }\r\n        return totalSupply.sub(balanceExcluded);\r\n    }\r\n\r\n    function buyBonds(uint256 _tombAmount, uint256 targetPrice) external onlyOneBlock checkCondition checkOperator {\r\n        require(_tombAmount > 0, \"Treasury: cannot purchase bonds with zero amount\");\r\n\r\n        uint256 tombPrice = getTombPrice();\r\n        require(tombPrice == targetPrice, \"Treasury: TOMB price moved\");\r\n        require(\r\n            tombPrice < tombPriceOne, // price < $1\r\n            \"Treasury: tombPrice not eligible for bond purchase\"\r\n        );\r\n\r\n        require(_tombAmount <= epochSupplyContractionLeft, \"Treasury: not enough bond left to purchase\");\r\n\r\n        uint256 _rate = getBondDiscountRate();\r\n        require(_rate > 0, \"Treasury: invalid bond rate\");\r\n\r\n        uint256 _bondAmount = _tombAmount.mul(_rate).div(1e18);\r\n        uint256 tombSupply = getTombCirculatingSupply();\r\n        uint256 newBondSupply = IERC20(tbond).totalSupply().add(_bondAmount);\r\n        require(newBondSupply <= tombSupply.mul(maxDebtRatioPercent).div(10000), \"over max debt ratio\");\r\n\r\n        IBasisAsset(tomb).burnFrom(msg.sender, _tombAmount);\r\n        IBasisAsset(tbond).mint(msg.sender, _bondAmount);\r\n\r\n        epochSupplyContractionLeft = epochSupplyContractionLeft.sub(_tombAmount);\r\n        _updateTombPrice();\r\n\r\n        emit BoughtBonds(msg.sender, _tombAmount, _bondAmount);\r\n    }\r\n\r\n    function redeemBonds(uint256 _bondAmount, uint256 targetPrice) external onlyOneBlock checkCondition checkOperator {\r\n        require(_bondAmount > 0, \"Treasury: cannot redeem bonds with zero amount\");\r\n\r\n        uint256 tombPrice = getTombPrice();\r\n        require(tombPrice == targetPrice, \"Treasury: TOMB price moved\");\r\n        require(\r\n            tombPrice > tombPriceCeiling, // price > $1.01\r\n            \"Treasury: tombPrice not eligible for bond purchase\"\r\n        );\r\n\r\n        uint256 _rate = getBondPremiumRate();\r\n        require(_rate > 0, \"Treasury: invalid bond rate\");\r\n\r\n        uint256 _tombAmount = _bondAmount.mul(_rate).div(1e18);\r\n        require(IERC20(tomb).balanceOf(address(this)) >= _tombAmount, \"Treasury: treasury has no more budget\");\r\n\r\n        seigniorageSaved = seigniorageSaved.sub(Math.min(seigniorageSaved, _tombAmount));\r\n\r\n        IBasisAsset(tbond).burnFrom(msg.sender, _bondAmount);\r\n        IERC20(tomb).safeTransfer(msg.sender, _tombAmount);\r\n\r\n        _updateTombPrice();\r\n\r\n        emit RedeemedBonds(msg.sender, _tombAmount, _bondAmount);\r\n    }\r\n\r\n    function _sendToMasonry(uint256 _amount) internal {\r\n        IBasisAsset(tomb).mint(address(this), _amount);\r\n\r\n        uint256 _daoFundSharedAmount = 0;\r\n        if (daoFundSharedPercent > 0) {\r\n            _daoFundSharedAmount = _amount.mul(daoFundSharedPercent).div(10000);\r\n            IERC20(tomb).transfer(daoFund, _daoFundSharedAmount);\r\n            emit DaoFundFunded(now, _daoFundSharedAmount);\r\n        }\r\n\r\n        uint256 _devFundSharedAmount = 0;\r\n        if (devFundSharedPercent > 0) {\r\n            _devFundSharedAmount = _amount.mul(devFundSharedPercent).div(10000);\r\n            IERC20(tomb).transfer(devFund, _devFundSharedAmount);\r\n            emit DevFundFunded(now, _devFundSharedAmount);\r\n        }\r\n\r\n        _amount = _amount.sub(_daoFundSharedAmount).sub(_devFundSharedAmount);\r\n\r\n        IERC20(tomb).safeApprove(masonry, 0);\r\n        IERC20(tomb).safeApprove(masonry, _amount);\r\n        IMasonry(masonry).allocateSeigniorage(_amount);\r\n        emit MasonryFunded(now, _amount);\r\n    }\r\n\r\n    function _calculateMaxSupplyExpansionPercent(uint256 _tombSupply) internal returns (uint256) {\r\n        for (uint8 tierId = 8; tierId >= 0; --tierId) {\r\n            if (_tombSupply >= supplyTiers[tierId]) {\r\n                maxSupplyExpansionPercent = maxExpansionTiers[tierId];\r\n                break;\r\n            }\r\n        }\r\n        return maxSupplyExpansionPercent;\r\n    }\r\n\r\n    function allocateSeigniorage() external onlyOneBlock checkCondition checkEpoch checkOperator {\r\n        _updateTombPrice();\r\n        previousEpochTombPrice = getTombPrice();\r\n        uint256 tombSupply = getTombCirculatingSupply().sub(seigniorageSaved);\r\n        if (epoch < bootstrapEpochs) {\r\n            // 28 first epochs with 4.5% expansion\r\n            _sendToMasonry(tombSupply.mul(bootstrapSupplyExpansionPercent).div(10000));\r\n        } else {\r\n            if (previousEpochTombPrice > tombPriceCeiling) {\r\n                // Expansion ($TOMB Price > 1 $FTM): there is some seigniorage to be allocated\r\n                uint256 bondSupply = IERC20(tbond).totalSupply();\r\n                uint256 _percentage = previousEpochTombPrice.sub(tombPriceOne);\r\n                uint256 _savedForBond;\r\n                uint256 _savedForMasonry;\r\n                uint256 _mse = _calculateMaxSupplyExpansionPercent(tombSupply).mul(1e14);\r\n                if (_percentage > _mse) {\r\n                    _percentage = _mse;\r\n                }\r\n                if (seigniorageSaved >= bondSupply.mul(bondDepletionFloorPercent).div(10000)) {\r\n                    // saved enough to pay debt, mint as usual rate\r\n                    _savedForMasonry = tombSupply.mul(_percentage).div(1e18);\r\n                } else {\r\n                    // have not saved enough to pay debt, mint more\r\n                    uint256 _seigniorage = tombSupply.mul(_percentage).div(1e18);\r\n                    _savedForMasonry = _seigniorage.mul(seigniorageExpansionFloorPercent).div(10000);\r\n                    _savedForBond = _seigniorage.sub(_savedForMasonry);\r\n                    if (mintingFactorForPayingDebt > 0) {\r\n                        _savedForBond = _savedForBond.mul(mintingFactorForPayingDebt).div(10000);\r\n                    }\r\n                }\r\n                if (_savedForMasonry > 0) {\r\n                    _sendToMasonry(_savedForMasonry);\r\n                }\r\n                if (_savedForBond > 0) {\r\n                    seigniorageSaved = seigniorageSaved.add(_savedForBond);\r\n                    IBasisAsset(tomb).mint(address(this), _savedForBond);\r\n                    emit TreasuryFunded(now, _savedForBond);\r\n                }\r\n            }\r\n        }\r\n    }\r\n\r\n    function governanceRecoverUnsupported(\r\n        IERC20 _token,\r\n        uint256 _amount,\r\n        address _to\r\n    ) external onlyOperator {\r\n        // do not allow to drain core tokens\r\n        require(address(_token) != address(tomb), \"tomb\");\r\n        require(address(_token) != address(tbond), \"bond\");\r\n        require(address(_token) != address(tshare), \"share\");\r\n        _token.safeTransfer(_to, _amount);\r\n    }\r\n\r\n    function masonrySetOperator(address _operator) external onlyOperator {\r\n        IMasonry(masonry).setOperator(_operator);\r\n    }\r\n\r\n    function masonrySetLockUp(uint256 _withdrawLockupEpochs, uint256 _rewardLockupEpochs) external onlyOperator {\r\n        IMasonry(masonry).setLockUp(_withdrawLockupEpochs, _rewardLockupEpochs);\r\n    }\r\n\r\n    function masonryAllocateSeigniorage(uint256 amount) external onlyOperator {\r\n        IMasonry(masonry).allocateSeigniorage(amount);\r\n    }\r\n\r\n    function masonryGovernanceRecoverUnsupported(\r\n        address _token,\r\n        uint256 _amount,\r\n        address _to\r\n    ) external onlyOperator {\r\n        IMasonry(masonry).governanceRecoverUnsupported(_token, _amount, _to);\r\n    }\r\n}",
  "sourcePath": "C:\\Users\\kiera\\Desktop\\New folder\\TombFork\\contracts\\Treasury.sol",
  "compiler": {
    "name": "solc",
    "version": "0.6.12+commit.27d51765.Emscripten.clang"
  },
  "schemaVersion": "3.4.3",
  "updatedAt": "2022-04-09T15:50:39.047Z",
  "devdoc": {
    "kind": "dev",
    "methods": {},
    "version": 1
  },
  "userdoc": {
    "kind": "user",
    "methods": {},
    "version": 1
  }
}