{
  "contractName": "TShareRewardPool",
  "abi": [
    {
      "inputs": [
        {
          "internalType": "address",
          "name": "_tshare",
          "type": "address"
        }
      ],
      "stateMutability": "nonpayable",
      "type": "constructor"
    },
    {
      "anonymous": false,
      "inputs": [
        {
          "indexed": true,
          "internalType": "address",
          "name": "user",
          "type": "address"
        },
        {
          "indexed": true,
          "internalType": "uint256",
          "name": "pid",
          "type": "uint256"
        },
        {
          "indexed": false,
          "internalType": "uint256",
          "name": "amount",
          "type": "uint256"
        }
      ],
      "name": "Deposit",
      "type": "event"
    },
    {
      "anonymous": false,
      "inputs": [
        {
          "indexed": true,
          "internalType": "address",
          "name": "user",
          "type": "address"
        },
        {
          "indexed": true,
          "internalType": "uint256",
          "name": "pid",
          "type": "uint256"
        },
        {
          "indexed": false,
          "internalType": "uint256",
          "name": "amount",
          "type": "uint256"
        }
      ],
      "name": "EmergencyWithdraw",
      "type": "event"
    },
    {
      "anonymous": false,
      "inputs": [
        {
          "indexed": true,
          "internalType": "address",
          "name": "user",
          "type": "address"
        },
        {
          "indexed": false,
          "internalType": "uint256",
          "name": "amount",
          "type": "uint256"
        }
      ],
      "name": "RewardPaid",
      "type": "event"
    },
    {
      "anonymous": false,
      "inputs": [
        {
          "indexed": true,
          "internalType": "address",
          "name": "user",
          "type": "address"
        },
        {
          "indexed": true,
          "internalType": "uint256",
          "name": "pid",
          "type": "uint256"
        },
        {
          "indexed": false,
          "internalType": "uint256",
          "name": "amount",
          "type": "uint256"
        }
      ],
      "name": "Withdraw",
      "type": "event"
    },
    {
      "inputs": [],
      "name": "TOTAL_REWARDS",
      "outputs": [
        {
          "internalType": "uint256",
          "name": "",
          "type": "uint256"
        }
      ],
      "stateMutability": "view",
      "type": "function",
      "constant": true
    },
    {
      "inputs": [],
      "name": "operator",
      "outputs": [
        {
          "internalType": "address",
          "name": "",
          "type": "address"
        }
      ],
      "stateMutability": "view",
      "type": "function",
      "constant": true
    },
    {
      "inputs": [],
      "name": "poolEndTime",
      "outputs": [
        {
          "internalType": "uint256",
          "name": "",
          "type": "uint256"
        }
      ],
      "stateMutability": "view",
      "type": "function",
      "constant": true
    },
    {
      "inputs": [
        {
          "internalType": "uint256",
          "name": "",
          "type": "uint256"
        }
      ],
      "name": "poolInfo",
      "outputs": [
        {
          "internalType": "contract IERC20",
          "name": "token",
          "type": "address"
        },
        {
          "internalType": "uint256",
          "name": "allocPoint",
          "type": "uint256"
        },
        {
          "internalType": "uint256",
          "name": "lastRewardTime",
          "type": "uint256"
        },
        {
          "internalType": "uint256",
          "name": "accTSharePerShare",
          "type": "uint256"
        },
        {
          "internalType": "bool",
          "name": "isStarted",
          "type": "bool"
        }
      ],
      "stateMutability": "view",
      "type": "function",
      "constant": true
    },
    {
      "inputs": [],
      "name": "poolStartTime",
      "outputs": [
        {
          "internalType": "uint256",
          "name": "",
          "type": "uint256"
        }
      ],
      "stateMutability": "view",
      "type": "function",
      "constant": true
    },
    {
      "inputs": [],
      "name": "runningTime",
      "outputs": [
        {
          "internalType": "uint256",
          "name": "",
          "type": "uint256"
        }
      ],
      "stateMutability": "view",
      "type": "function",
      "constant": true
    },
    {
      "inputs": [],
      "name": "tSharePerSecond",
      "outputs": [
        {
          "internalType": "uint256",
          "name": "",
          "type": "uint256"
        }
      ],
      "stateMutability": "view",
      "type": "function",
      "constant": true
    },
    {
      "inputs": [],
      "name": "totalAllocPoint",
      "outputs": [
        {
          "internalType": "uint256",
          "name": "",
          "type": "uint256"
        }
      ],
      "stateMutability": "view",
      "type": "function",
      "constant": true
    },
    {
      "inputs": [],
      "name": "tshare",
      "outputs": [
        {
          "internalType": "contract IERC20",
          "name": "",
          "type": "address"
        }
      ],
      "stateMutability": "view",
      "type": "function",
      "constant": true
    },
    {
      "inputs": [
        {
          "internalType": "uint256",
          "name": "",
          "type": "uint256"
        },
        {
          "internalType": "address",
          "name": "",
          "type": "address"
        }
      ],
      "name": "userInfo",
      "outputs": [
        {
          "internalType": "uint256",
          "name": "amount",
          "type": "uint256"
        },
        {
          "internalType": "uint256",
          "name": "rewardDebt",
          "type": "uint256"
        }
      ],
      "stateMutability": "view",
      "type": "function",
      "constant": true
    },
    {
      "inputs": [
        {
          "internalType": "uint256",
          "name": "_allocPoint",
          "type": "uint256"
        },
        {
          "internalType": "contract IERC20",
          "name": "_token",
          "type": "address"
        },
        {
          "internalType": "bool",
          "name": "_withUpdate",
          "type": "bool"
        },
        {
          "internalType": "uint256",
          "name": "_lastRewardTime",
          "type": "uint256"
        }
      ],
      "name": "add",
      "outputs": [],
      "stateMutability": "nonpayable",
      "type": "function"
    },
    {
      "inputs": [
        {
          "internalType": "uint256",
          "name": "_pid",
          "type": "uint256"
        },
        {
          "internalType": "uint256",
          "name": "_allocPoint",
          "type": "uint256"
        }
      ],
      "name": "set",
      "outputs": [],
      "stateMutability": "nonpayable",
      "type": "function"
    },
    {
      "inputs": [
        {
          "internalType": "uint256",
          "name": "_fromTime",
          "type": "uint256"
        },
        {
          "internalType": "uint256",
          "name": "_toTime",
          "type": "uint256"
        }
      ],
      "name": "getGeneratedReward",
      "outputs": [
        {
          "internalType": "uint256",
          "name": "",
          "type": "uint256"
        }
      ],
      "stateMutability": "view",
      "type": "function",
      "constant": true
    },
    {
      "inputs": [
        {
          "internalType": "uint256",
          "name": "_pid",
          "type": "uint256"
        },
        {
          "internalType": "address",
          "name": "_user",
          "type": "address"
        }
      ],
      "name": "pendingShare",
      "outputs": [
        {
          "internalType": "uint256",
          "name": "",
          "type": "uint256"
        }
      ],
      "stateMutability": "view",
      "type": "function",
      "constant": true
    },
    {
      "inputs": [],
      "name": "massUpdatePools",
      "outputs": [],
      "stateMutability": "nonpayable",
      "type": "function"
    },
    {
      "inputs": [
        {
          "internalType": "uint256",
          "name": "_pid",
          "type": "uint256"
        }
      ],
      "name": "updatePool",
      "outputs": [],
      "stateMutability": "nonpayable",
      "type": "function"
    },
    {
      "inputs": [
        {
          "internalType": "uint256",
          "name": "_pid",
          "type": "uint256"
        },
        {
          "internalType": "uint256",
          "name": "_amount",
          "type": "uint256"
        }
      ],
      "name": "deposit",
      "outputs": [],
      "stateMutability": "nonpayable",
      "type": "function"
    },
    {
      "inputs": [
        {
          "internalType": "uint256",
          "name": "_pid",
          "type": "uint256"
        },
        {
          "internalType": "uint256",
          "name": "_amount",
          "type": "uint256"
        }
      ],
      "name": "withdraw",
      "outputs": [],
      "stateMutability": "nonpayable",
      "type": "function"
    },
    {
      "inputs": [
        {
          "internalType": "uint256",
          "name": "_pid",
          "type": "uint256"
        }
      ],
      "name": "emergencyWithdraw",
      "outputs": [],
      "stateMutability": "nonpayable",
      "type": "function"
    },
    {
      "inputs": [
        {
          "internalType": "address",
          "name": "_operator",
          "type": "address"
        }
      ],
      "name": "setOperator",
      "outputs": [],
      "stateMutability": "nonpayable",
      "type": "function"
    },
    {
      "inputs": [
        {
          "internalType": "contract IERC20",
          "name": "_token",
          "type": "address"
        },
        {
          "internalType": "uint256",
          "name": "amount",
          "type": "uint256"
        },
        {
          "internalType": "address",
          "name": "to",
          "type": "address"
        }
      ],
      "name": "governanceRecoverUnsupported",
      "outputs": [],
      "stateMutability": "nonpayable",
      "type": "function"
    }
  ],
  "bytecode": "0x6080604052600060045566069cc50cf2e8006007556301e7cb0060085534801561002857600080fd5b506040516125aa3803806125aa8339818101604052602081101561004b57600080fd5b8101908080519060200190929190505050600073ffffffffffffffffffffffffffffffffffffffff168173ffffffffffffffffffffffffffffffffffffffff16146100d25780600160006101000a81548173ffffffffffffffffffffffffffffffffffffffff021916908373ffffffffffffffffffffffffffffffffffffffff1602179055505b4260058190555060085460055401600681905550336000806101000a81548173ffffffffffffffffffffffffffffffffffffffff021916908373ffffffffffffffffffffffffffffffffffffffff16021790555050612474806101366000396000f3fe608060405234801561001057600080fd5b50600436106101775760003560e01c80635f96dc11116100d857806396805e541161008c578063cf4b55cb11610066578063cf4b55cb1461057b578063e2bbb158146105dd578063ee6822a71461061557610177565b806396805e54146104b55780639e63d26114610519578063b3ab15fb1461053757610177565b80636e271dd5116100bd5780636e271dd51461041057806393f1a40b1461042e578063943f013d1461049757610177565b80635f96dc11146103e8578063630b5ba11461040657610177565b8063441a3e701161012f5780635312ea8e116101145780635312ea8e1461031857806354575af414610346578063570ca735146103b457610177565b8063441a3e70146102b257806351eb05a6146102ea57610177565b806317caf6f11161016057806317caf6f1146102105780631ab06ee51461022e578063231f0c6a1461026657610177565b806309cf60911461017c5780631526fe271461019a575b600080fd5b610184610649565b6040518082815260200191505060405180910390f35b6101c6600480360360208110156101b057600080fd5b8101908080359060200190929190505050610657565b604051808673ffffffffffffffffffffffffffffffffffffffff16815260200185815260200184815260200183815260200182151581526020019550505050505060405180910390f35b6102186106c7565b6040518082815260200191505060405180910390f35b6102646004803603604081101561024457600080fd5b8101908080359060200190929190803590602001909291905050506106cd565b005b61029c6004803603604081101561027c57600080fd5b8101908080359060200190929190803590602001909291905050506107ef565b6040518082815260200191505060405180910390f35b6102e8600480360360408110156102c857600080fd5b810190808035906020019092919080359060200190929190505050610902565b005b6103166004803603602081101561030057600080fd5b8101908080359060200190929190505050610bba565b005b6103446004803603602081101561032e57600080fd5b8101908080359060200190929190505050610dc9565b005b6103b26004803603606081101561035c57600080fd5b81019080803573ffffffffffffffffffffffffffffffffffffffff16906020019092919080359060200190929190803573ffffffffffffffffffffffffffffffffffffffff169060200190929190505050610efd565b005b6103bc6111ad565b604051808273ffffffffffffffffffffffffffffffffffffffff16815260200191505060405180910390f35b6103f06111d1565b6040518082815260200191505060405180910390f35b61040e6111d7565b005b610418611204565b6040518082815260200191505060405180910390f35b61047a6004803603604081101561044457600080fd5b8101908080359060200190929190803573ffffffffffffffffffffffffffffffffffffffff16906020019092919050505061120a565b604051808381526020018281526020019250505060405180910390f35b61049f61123b565b6040518082815260200191505060405180910390f35b610517600480360360808110156104cb57600080fd5b8101908080359060200190929190803573ffffffffffffffffffffffffffffffffffffffff16906020019092919080351515906020019092919080359060200190929190505050611241565b005b610521611478565b6040518082815260200191505060405180910390f35b6105796004803603602081101561054d57600080fd5b81019080803573ffffffffffffffffffffffffffffffffffffffff16906020019092919050505061147e565b005b6105c76004803603604081101561059157600080fd5b8101908080359060200190929190803573ffffffffffffffffffffffffffffffffffffffff169060200190929190505050611565565b6040518082815260200191505060405180910390f35b610613600480360360408110156105f357600080fd5b81019080803590602001909291908035906020019092919050505061179d565b005b61061d6119eb565b604051808273ffffffffffffffffffffffffffffffffffffffff16815260200191505060405180910390f35b690c99805fe37d3e30000081565b6002818154811061066457fe5b90600052602060002090600502016000915090508060000160009054906101000a900473ffffffffffffffffffffffffffffffffffffffff16908060010154908060020154908060030154908060040160009054906101000a900460ff16905085565b60045481565b3373ffffffffffffffffffffffffffffffffffffffff1660008054906101000a900473ffffffffffffffffffffffffffffffffffffffff1673ffffffffffffffffffffffffffffffffffffffff1614610771576040517f08c379a000000000000000000000000000000000000000000000000000000000815260040180806020018281038252602c8152602001806123a2602c913960400191505060405180910390fd5b6107796111d7565b60006002838154811061078857fe5b906000526020600020906005020190508060040160009054906101000a900460ff16156107e1576107da826107cc8360010154600454611a1190919063ffffffff16565b611a9490919063ffffffff16565b6004819055505b818160010181905550505050565b600081831061080157600090506108fc565b600654821061088757600654831061081c57600090506108fc565b600554831161085757610850600754610842600554600654611a1190919063ffffffff16565b611b1c90919063ffffffff16565b90506108fc565b61088060075461087285600654611a1190919063ffffffff16565b611b1c90919063ffffffff16565b90506108fc565b600554821161089957600090506108fc565b60055483116108d2576108cb6007546108bd60055485611a1190919063ffffffff16565b611b1c90919063ffffffff16565b90506108fc565b6108f96007546108eb8585611a1190919063ffffffff16565b611b1c90919063ffffffff16565b90505b92915050565b600033905060006002848154811061091657fe5b9060005260206000209060050201905060006003600086815260200190815260200160002060008473ffffffffffffffffffffffffffffffffffffffff1673ffffffffffffffffffffffffffffffffffffffff168152602001908152602001600020905083816000015410156109f4576040517f08c379a00000000000000000000000000000000000000000000000000000000081526004018080602001828103825260128152602001807f77697468647261773a206e6f7420676f6f64000000000000000000000000000081525060200191505060405180910390fd5b6109fd85610bba565b6000610a4a8260010154610a3c670de0b6b3a7640000610a2e87600301548760000154611b1c90919063ffffffff16565b611ba290919063ffffffff16565b611a1190919063ffffffff16565b90506000811115610aae57610a5f8482611c2b565b8373ffffffffffffffffffffffffffffffffffffffff167fe2403640ba68fed3a2f88b7557551d1993f84b99bb10ff833f0cf8db0c5e0486826040518082815260200191505060405180910390a25b6000851115610b2657610ace858360000154611a1190919063ffffffff16565b8260000181905550610b2584868560000160009054906101000a900473ffffffffffffffffffffffffffffffffffffffff1673ffffffffffffffffffffffffffffffffffffffff16611daa9092919063ffffffff16565b5b610b5b670de0b6b3a7640000610b4d85600301548560000154611b1c90919063ffffffff16565b611ba290919063ffffffff16565b8260010181905550858473ffffffffffffffffffffffffffffffffffffffff167ff279e6a1f5e320cca91135676d9cb6e44ca8a08c0b88342bcdb1144f6511b568876040518082815260200191505060405180910390a3505050505050565b600060028281548110610bc957fe5b9060005260206000209060050201905080600201544211610bea5750610dc6565b60008160000160009054906101000a900473ffffffffffffffffffffffffffffffffffffffff1673ffffffffffffffffffffffffffffffffffffffff166370a08231306040518263ffffffff1660e01b8152600401808273ffffffffffffffffffffffffffffffffffffffff16815260200191505060206040518083038186803b158015610c7757600080fd5b505afa158015610c8b573d6000803e3d6000fd5b505050506040513d6020811015610ca157600080fd5b810190808051906020019092919050505090506000811415610ccd574282600201819055505050610dc6565b8160040160009054906101000a900460ff16610d205760018260040160006101000a81548160ff021916908315150217905550610d198260010154600454611a9490919063ffffffff16565b6004819055505b60006004541115610dba576000610d3b8360020154426107ef565b90506000610d6a600454610d5c866001015485611b1c90919063ffffffff16565b611ba290919063ffffffff16565b9050610daf610d9c84610d8e670de0b6b3a764000085611b1c90919063ffffffff16565b611ba290919063ffffffff16565b8560030154611a9490919063ffffffff16565b846003018190555050505b42826002018190555050505b50565b600060028281548110610dd857fe5b9060005260206000209060050201905060006003600084815260200190815260200160002060003373ffffffffffffffffffffffffffffffffffffffff1673ffffffffffffffffffffffffffffffffffffffff16815260200190815260200160002090506000816000015490506000826000018190555060008260010181905550610ea833828560000160009054906101000a900473ffffffffffffffffffffffffffffffffffffffff1673ffffffffffffffffffffffffffffffffffffffff16611daa9092919063ffffffff16565b833373ffffffffffffffffffffffffffffffffffffffff167fbb757047c2b5f3974fe26b7c10f732e7bce710b0952a71082702781e62ae0595836040518082815260200191505060405180910390a350505050565b3373ffffffffffffffffffffffffffffffffffffffff1660008054906101000a900473ffffffffffffffffffffffffffffffffffffffff1673ffffffffffffffffffffffffffffffffffffffff1614610fa1576040517f08c379a000000000000000000000000000000000000000000000000000000000815260040180806020018281038252602c8152602001806123a2602c913960400191505060405180910390fd5b6276a7006006540142101561117d57600160009054906101000a900473ffffffffffffffffffffffffffffffffffffffff1673ffffffffffffffffffffffffffffffffffffffff168373ffffffffffffffffffffffffffffffffffffffff161415611074576040517f08c379a00000000000000000000000000000000000000000000000000000000081526004018080602001828103825260068152602001807f747368617265000000000000000000000000000000000000000000000000000081525060200191505060405180910390fd5b6000600280549050905060005b8181101561117a5760006002828154811061109857fe5b906000526020600020906005020190508060000160009054906101000a900473ffffffffffffffffffffffffffffffffffffffff1673ffffffffffffffffffffffffffffffffffffffff168673ffffffffffffffffffffffffffffffffffffffff16141561116e576040517f08c379a000000000000000000000000000000000000000000000000000000000815260040180806020018281038252600a8152602001807f706f6f6c2e746f6b656e0000000000000000000000000000000000000000000081525060200191505060405180910390fd5b50806001019050611081565b50505b6111a881838573ffffffffffffffffffffffffffffffffffffffff16611daa9092919063ffffffff16565b505050565b60008054906101000a900473ffffffffffffffffffffffffffffffffffffffff1681565b60055481565b6000600280549050905060005b81811015611200576111f581610bba565b8060010190506111e4565b5050565b60065481565b6003602052816000526040600020602052806000526040600020600091509150508060000154908060010154905082565b60085481565b3373ffffffffffffffffffffffffffffffffffffffff1660008054906101000a900473ffffffffffffffffffffffffffffffffffffffff1673ffffffffffffffffffffffffffffffffffffffff16146112e5576040517f08c379a000000000000000000000000000000000000000000000000000000000815260040180806020018281038252602c8152602001806123a2602c913960400191505060405180910390fd5b6112ee83611e4c565b81156112fd576112fc6111d7565b5b60055442101561133057600081141561131a57600554905061132b565b60055481101561132a5760055490505b5b611348565b600081148061133e57504281105b15611347574290505b5b60006005548211158061135b5750428211155b905060026040518060a001604052808673ffffffffffffffffffffffffffffffffffffffff16815260200187815260200184815260200160008152602001831515815250908060018154018082558091505060019003906000526020600020906005020160009091909190915060008201518160000160006101000a81548173ffffffffffffffffffffffffffffffffffffffff021916908373ffffffffffffffffffffffffffffffffffffffff16021790555060208201518160010155604082015181600201556060820151816003015560808201518160040160006101000a81548160ff021916908315150217905550505080156114715761146a85600454611a9490919063ffffffff16565b6004819055505b5050505050565b60075481565b3373ffffffffffffffffffffffffffffffffffffffff1660008054906101000a900473ffffffffffffffffffffffffffffffffffffffff1673ffffffffffffffffffffffffffffffffffffffff1614611522576040517f08c379a000000000000000000000000000000000000000000000000000000000815260040180806020018281038252602c8152602001806123a2602c913960400191505060405180910390fd5b806000806101000a81548173ffffffffffffffffffffffffffffffffffffffff021916908373ffffffffffffffffffffffffffffffffffffffff16021790555050565b6000806002848154811061157557fe5b9060005260206000209060050201905060006003600086815260200190815260200160002060008573ffffffffffffffffffffffffffffffffffffffff1673ffffffffffffffffffffffffffffffffffffffff168152602001908152602001600020905060008260030154905060008360000160009054906101000a900473ffffffffffffffffffffffffffffffffffffffff1673ffffffffffffffffffffffffffffffffffffffff166370a08231306040518263ffffffff1660e01b8152600401808273ffffffffffffffffffffffffffffffffffffffff16815260200191505060206040518083038186803b15801561166f57600080fd5b505afa158015611683573d6000803e3d6000fd5b505050506040513d602081101561169957600080fd5b810190808051906020019092919050505090508360020154421180156116c0575060008114155b1561174a5760006116d58560020154426107ef565b905060006117046004546116f6886001015485611b1c90919063ffffffff16565b611ba290919063ffffffff16565b905061174561173684611728670de0b6b3a764000085611b1c90919063ffffffff16565b611ba290919063ffffffff16565b85611a9490919063ffffffff16565b935050505b6117918360010154611783670de0b6b3a7640000611775868860000154611b1c90919063ffffffff16565b611ba290919063ffffffff16565b611a1190919063ffffffff16565b94505050505092915050565b60003390506000600284815481106117b157fe5b9060005260206000209060050201905060006003600086815260200190815260200160002060008473ffffffffffffffffffffffffffffffffffffffff1673ffffffffffffffffffffffffffffffffffffffff168152602001908152602001600020905061181e85610bba565b6000816000015411156118de576000611878826001015461186a670de0b6b3a764000061185c87600301548760000154611b1c90919063ffffffff16565b611ba290919063ffffffff16565b611a1190919063ffffffff16565b905060008111156118dc5761188d8482611c2b565b8373ffffffffffffffffffffffffffffffffffffffff167fe2403640ba68fed3a2f88b7557551d1993f84b99bb10ff833f0cf8db0c5e0486826040518082815260200191505060405180910390a25b505b6000841115611958576119388330868560000160009054906101000a900473ffffffffffffffffffffffffffffffffffffffff1673ffffffffffffffffffffffffffffffffffffffff16611f51909392919063ffffffff16565b61194f848260000154611a9490919063ffffffff16565b81600001819055505b61198d670de0b6b3a764000061197f84600301548460000154611b1c90919063ffffffff16565b611ba290919063ffffffff16565b8160010181905550848373ffffffffffffffffffffffffffffffffffffffff167f90890809c654f11d6e72a28fa60149770a0d11ec6c92319d6ceb2bb0a4ea1a15866040518082815260200191505060405180910390a35050505050565b600160009054906101000a900473ffffffffffffffffffffffffffffffffffffffff1681565b600082821115611a89576040517f08c379a000000000000000000000000000000000000000000000000000000000815260040180806020018281038252601e8152602001807f536166654d6174683a207375627472616374696f6e206f766572666c6f77000081525060200191505060405180910390fd5b818303905092915050565b600080828401905083811015611b12576040517f08c379a000000000000000000000000000000000000000000000000000000000815260040180806020018281038252601b8152602001807f536166654d6174683a206164646974696f6e206f766572666c6f77000000000081525060200191505060405180910390fd5b8091505092915050565b600080831415611b2f5760009050611b9c565b6000828402905082848281611b4057fe5b0414611b97576040517f08c379a00000000000000000000000000000000000000000000000000000000081526004018080602001828103825260218152602001806123f46021913960400191505060405180910390fd5b809150505b92915050565b6000808211611c19576040517f08c379a000000000000000000000000000000000000000000000000000000000815260040180806020018281038252601a8152602001807f536166654d6174683a206469766973696f6e206279207a65726f00000000000081525060200191505060405180910390fd5b818381611c2257fe5b04905092915050565b6000600160009054906101000a900473ffffffffffffffffffffffffffffffffffffffff1673ffffffffffffffffffffffffffffffffffffffff166370a08231306040518263ffffffff1660e01b8152600401808273ffffffffffffffffffffffffffffffffffffffff16815260200191505060206040518083038186803b158015611cb657600080fd5b505afa158015611cca573d6000803e3d6000fd5b505050506040513d6020811015611ce057600080fd5b810190808051906020019092919050505090506000811115611da55780821115611d5657611d518382600160009054906101000a900473ffffffffffffffffffffffffffffffffffffffff1673ffffffffffffffffffffffffffffffffffffffff16611daa9092919063ffffffff16565b611da4565b611da38383600160009054906101000a900473ffffffffffffffffffffffffffffffffffffffff1673ffffffffffffffffffffffffffffffffffffffff16611daa9092919063ffffffff16565b5b5b505050565b611e478363a9059cbb60e01b8484604051602401808373ffffffffffffffffffffffffffffffffffffffff16815260200182815260200192505050604051602081830303815290604052907bffffffffffffffffffffffffffffffffffffffffffffffffffffffff19166020820180517bffffffffffffffffffffffffffffffffffffffffffffffffffffffff8381831617835250505050612012565b505050565b6000600280549050905060005b81811015611f4c578273ffffffffffffffffffffffffffffffffffffffff1660028281548110611e8557fe5b906000526020600020906005020160000160009054906101000a900473ffffffffffffffffffffffffffffffffffffffff1673ffffffffffffffffffffffffffffffffffffffff161415611f41576040517f08c379a00000000000000000000000000000000000000000000000000000000081526004018080602001828103825260208152602001807f545368617265526577617264506f6f6c3a206578697374696e6720706f6f6c3f81525060200191505060405180910390fd5b806001019050611e59565b505050565b61200c846323b872dd60e01b858585604051602401808473ffffffffffffffffffffffffffffffffffffffff1681526020018373ffffffffffffffffffffffffffffffffffffffff1681526020018281526020019350505050604051602081830303815290604052907bffffffffffffffffffffffffffffffffffffffffffffffffffffffff19166020820180517bffffffffffffffffffffffffffffffffffffffffffffffffffffffff8381831617835250505050612012565b50505050565b6060612074826040518060400160405280602081526020017f5361666545524332303a206c6f772d6c6576656c2063616c6c206661696c65648152508573ffffffffffffffffffffffffffffffffffffffff166121019092919063ffffffff16565b90506000815111156120fc5780806020019051602081101561209557600080fd5b81019080805190602001909291905050506120fb576040517f08c379a000000000000000000000000000000000000000000000000000000000815260040180806020018281038252602a815260200180612415602a913960400191505060405180910390fd5b5b505050565b60606121108484600085612119565b90509392505050565b606082471015612174576040517f08c379a00000000000000000000000000000000000000000000000000000000081526004018080602001828103825260268152602001806123ce6026913960400191505060405180910390fd5b61217d856122c2565b6121ef576040517f08c379a000000000000000000000000000000000000000000000000000000000815260040180806020018281038252601d8152602001807f416464726573733a2063616c6c20746f206e6f6e2d636f6e747261637400000081525060200191505060405180910390fd5b600060608673ffffffffffffffffffffffffffffffffffffffff1685876040518082805190602001908083835b6020831061223f578051825260208201915060208101905060208303925061221c565b6001836020036101000a03801982511681845116808217855250505050505090500191505060006040518083038185875af1925050503d80600081146122a1576040519150601f19603f3d011682016040523d82523d6000602084013e6122a6565b606091505b50915091506122b68282866122d5565b92505050949350505050565b600080823b905060008111915050919050565b606083156122e55782905061239a565b6000835111156122f85782518084602001fd5b816040517f08c379a00000000000000000000000000000000000000000000000000000000081526004018080602001828103825283818151815260200191508051906020019080838360005b8381101561235f578082015181840152602081019050612344565b50505050905090810190601f16801561238c5780820380516001836020036101000a031916815260200191505b509250505060405180910390fd5b939250505056fe545368617265526577617264506f6f6c3a2063616c6c6572206973206e6f7420746865206f70657261746f72416464726573733a20696e73756666696369656e742062616c616e636520666f722063616c6c536166654d6174683a206d756c7469706c69636174696f6e206f766572666c6f775361666545524332303a204552433230206f7065726174696f6e20646964206e6f742073756363656564a264697066735822122009dc139fb3e943f825159d0e11dc4ec9446d0c034761d2d5f6f16679cc877cd264736f6c634300060c0033",
  "immutableReferences": {},
  "source": "// SPDX-License-Identifier: MIT\r\n\r\npragma solidity 0.6.12;\r\n\r\nimport \"@openzeppelin/contracts/token/ERC20/IERC20.sol\";\r\nimport \"@openzeppelin/contracts/token/ERC20/SafeERC20.sol\";\r\nimport \"@openzeppelin/contracts/math/SafeMath.sol\";\r\n\r\n// Note that this pool has no minter key of tSHARE (rewards).\r\n// Instead, the governance will call tSHARE distributeReward method and send reward to this pool at the beginning.\r\ncontract TShareRewardPool {\r\n    using SafeMath for uint256;\r\n    using SafeERC20 for IERC20;\r\n\r\n    // governance\r\n    address public operator;\r\n\r\n    // Info of each user.\r\n    struct UserInfo {\r\n        uint256 amount; // How many LP tokens the user has provided.\r\n        uint256 rewardDebt; // Reward debt. See explanation below.\r\n    }\r\n\r\n    // Info of each pool.\r\n    struct PoolInfo {\r\n        IERC20 token; // Address of LP token contract.\r\n        uint256 allocPoint; // How many allocation points assigned to this pool. tSHAREs to distribute per block.\r\n        uint256 lastRewardTime; // Last time that tSHAREs distribution occurs.\r\n        uint256 accTSharePerShare; // Accumulated tSHAREs per share, times 1e18. See below.\r\n        bool isStarted; // if lastRewardTime has passed\r\n    }\r\n\r\n    IERC20 public tshare;\r\n\r\n    // Info of each pool.\r\n    PoolInfo[] public poolInfo;\r\n\r\n    // Info of each user that stakes LP tokens.\r\n    mapping(uint256 => mapping(address => UserInfo)) public userInfo;\r\n\r\n    // Total allocation points. Must be the sum of all allocation points in all pools.\r\n    uint256 public totalAllocPoint = 0;\r\n\r\n    // The time when tSHARE mining starts.\r\n    uint256 public poolStartTime;\r\n\r\n    // The time when tSHARE mining ends.\r\n    uint256 public poolEndTime;\r\n\r\n    uint256 public tSharePerSecond = 0.00186122 ether; // 59500 tshare / (370 days * 24h * 60min * 60s)\r\n    uint256 public runningTime = 370 days; // 370 days\r\n    uint256 public constant TOTAL_REWARDS = 59500 ether;\r\n\r\n    event Deposit(address indexed user, uint256 indexed pid, uint256 amount);\r\n    event Withdraw(address indexed user, uint256 indexed pid, uint256 amount);\r\n    event EmergencyWithdraw(address indexed user, uint256 indexed pid, uint256 amount);\r\n    event RewardPaid(address indexed user, uint256 amount);\r\n\r\n    constructor(\r\n        address _tshare\r\n    ) public {\r\n        if (_tshare != address(0)) tshare = IERC20(_tshare);\r\n        poolStartTime = block.timestamp;\r\n        poolEndTime = poolStartTime + runningTime;\r\n        operator = msg.sender;\r\n    }\r\n\r\n    modifier onlyOperator() {\r\n        require(operator == msg.sender, \"TShareRewardPool: caller is not the operator\");\r\n        _;\r\n    }\r\n\r\n    function checkPoolDuplicate(IERC20 _token) internal view {\r\n        uint256 length = poolInfo.length;\r\n        for (uint256 pid = 0; pid < length; ++pid) {\r\n            require(poolInfo[pid].token != _token, \"TShareRewardPool: existing pool?\");\r\n        }\r\n    }\r\n\r\n    // Add a new lp to the pool. Can only be called by the owner.\r\n    function add(\r\n        uint256 _allocPoint,\r\n        IERC20 _token,\r\n        bool _withUpdate,\r\n        uint256 _lastRewardTime\r\n    ) public onlyOperator {\r\n        checkPoolDuplicate(_token);\r\n        if (_withUpdate) {\r\n            massUpdatePools();\r\n        }\r\n        if (block.timestamp < poolStartTime) {\r\n            // chef is sleeping\r\n            if (_lastRewardTime == 0) {\r\n                _lastRewardTime = poolStartTime;\r\n            } else {\r\n                if (_lastRewardTime < poolStartTime) {\r\n                    _lastRewardTime = poolStartTime;\r\n                }\r\n            }\r\n        } else {\r\n            // chef is cooking\r\n            if (_lastRewardTime == 0 || _lastRewardTime < block.timestamp) {\r\n                _lastRewardTime = block.timestamp;\r\n            }\r\n        }\r\n        bool _isStarted =\r\n        (_lastRewardTime <= poolStartTime) ||\r\n        (_lastRewardTime <= block.timestamp);\r\n        poolInfo.push(PoolInfo({\r\n            token : _token,\r\n            allocPoint : _allocPoint,\r\n            lastRewardTime : _lastRewardTime,\r\n            accTSharePerShare : 0,\r\n            isStarted : _isStarted\r\n            }));\r\n        if (_isStarted) {\r\n            totalAllocPoint = totalAllocPoint.add(_allocPoint);\r\n        }\r\n    }\r\n\r\n    // Update the given pool's tSHARE allocation point. Can only be called by the owner.\r\n    function set(uint256 _pid, uint256 _allocPoint) public onlyOperator {\r\n        massUpdatePools();\r\n        PoolInfo storage pool = poolInfo[_pid];\r\n        if (pool.isStarted) {\r\n            totalAllocPoint = totalAllocPoint.sub(pool.allocPoint).add(\r\n                _allocPoint\r\n            );\r\n        }\r\n        pool.allocPoint = _allocPoint;\r\n    }\r\n\r\n    // Return accumulate rewards over the given _from to _to block.\r\n    function getGeneratedReward(uint256 _fromTime, uint256 _toTime) public view returns (uint256) {\r\n        if (_fromTime >= _toTime) return 0;\r\n        if (_toTime >= poolEndTime) {\r\n            if (_fromTime >= poolEndTime) return 0;\r\n            if (_fromTime <= poolStartTime) return poolEndTime.sub(poolStartTime).mul(tSharePerSecond);\r\n            return poolEndTime.sub(_fromTime).mul(tSharePerSecond);\r\n        } else {\r\n            if (_toTime <= poolStartTime) return 0;\r\n            if (_fromTime <= poolStartTime) return _toTime.sub(poolStartTime).mul(tSharePerSecond);\r\n            return _toTime.sub(_fromTime).mul(tSharePerSecond);\r\n        }\r\n    }\r\n\r\n    // View function to see pending tSHAREs on frontend.\r\n    function pendingShare(uint256 _pid, address _user) external view returns (uint256) {\r\n        PoolInfo storage pool = poolInfo[_pid];\r\n        UserInfo storage user = userInfo[_pid][_user];\r\n        uint256 accTSharePerShare = pool.accTSharePerShare;\r\n        uint256 tokenSupply = pool.token.balanceOf(address(this));\r\n        if (block.timestamp > pool.lastRewardTime && tokenSupply != 0) {\r\n            uint256 _generatedReward = getGeneratedReward(pool.lastRewardTime, block.timestamp);\r\n            uint256 _tshareReward = _generatedReward.mul(pool.allocPoint).div(totalAllocPoint);\r\n            accTSharePerShare = accTSharePerShare.add(_tshareReward.mul(1e18).div(tokenSupply));\r\n        }\r\n        return user.amount.mul(accTSharePerShare).div(1e18).sub(user.rewardDebt);\r\n    }\r\n\r\n    // Update reward variables for all pools. Be careful of gas spending!\r\n    function massUpdatePools() public {\r\n        uint256 length = poolInfo.length;\r\n        for (uint256 pid = 0; pid < length; ++pid) {\r\n            updatePool(pid);\r\n        }\r\n    }\r\n\r\n    // Update reward variables of the given pool to be up-to-date.\r\n    function updatePool(uint256 _pid) public {\r\n        PoolInfo storage pool = poolInfo[_pid];\r\n        if (block.timestamp <= pool.lastRewardTime) {\r\n            return;\r\n        }\r\n        uint256 tokenSupply = pool.token.balanceOf(address(this));\r\n        if (tokenSupply == 0) {\r\n            pool.lastRewardTime = block.timestamp;\r\n            return;\r\n        }\r\n        if (!pool.isStarted) {\r\n            pool.isStarted = true;\r\n            totalAllocPoint = totalAllocPoint.add(pool.allocPoint);\r\n        }\r\n        if (totalAllocPoint > 0) {\r\n            uint256 _generatedReward = getGeneratedReward(pool.lastRewardTime, block.timestamp);\r\n            uint256 _tshareReward = _generatedReward.mul(pool.allocPoint).div(totalAllocPoint);\r\n            pool.accTSharePerShare = pool.accTSharePerShare.add(_tshareReward.mul(1e18).div(tokenSupply));\r\n        }\r\n        pool.lastRewardTime = block.timestamp;\r\n    }\r\n\r\n    // Deposit LP tokens.\r\n    function deposit(uint256 _pid, uint256 _amount) public {\r\n        address _sender = msg.sender;\r\n        PoolInfo storage pool = poolInfo[_pid];\r\n        UserInfo storage user = userInfo[_pid][_sender];\r\n        updatePool(_pid);\r\n        if (user.amount > 0) {\r\n            uint256 _pending = user.amount.mul(pool.accTSharePerShare).div(1e18).sub(user.rewardDebt);\r\n            if (_pending > 0) {\r\n                safeTShareTransfer(_sender, _pending);\r\n                emit RewardPaid(_sender, _pending);\r\n            }\r\n        }\r\n        if (_amount > 0) {\r\n            pool.token.safeTransferFrom(_sender, address(this), _amount);\r\n            user.amount = user.amount.add(_amount);\r\n        }\r\n        user.rewardDebt = user.amount.mul(pool.accTSharePerShare).div(1e18);\r\n        emit Deposit(_sender, _pid, _amount);\r\n    }\r\n\r\n    // Withdraw LP tokens.\r\n    function withdraw(uint256 _pid, uint256 _amount) public {\r\n        address _sender = msg.sender;\r\n        PoolInfo storage pool = poolInfo[_pid];\r\n        UserInfo storage user = userInfo[_pid][_sender];\r\n        require(user.amount >= _amount, \"withdraw: not good\");\r\n        updatePool(_pid);\r\n        uint256 _pending = user.amount.mul(pool.accTSharePerShare).div(1e18).sub(user.rewardDebt);\r\n        if (_pending > 0) {\r\n            safeTShareTransfer(_sender, _pending);\r\n            emit RewardPaid(_sender, _pending);\r\n        }\r\n        if (_amount > 0) {\r\n            user.amount = user.amount.sub(_amount);\r\n            pool.token.safeTransfer(_sender, _amount);\r\n        }\r\n        user.rewardDebt = user.amount.mul(pool.accTSharePerShare).div(1e18);\r\n        emit Withdraw(_sender, _pid, _amount);\r\n    }\r\n\r\n    // Withdraw without caring about rewards. EMERGENCY ONLY.\r\n    function emergencyWithdraw(uint256 _pid) public {\r\n        PoolInfo storage pool = poolInfo[_pid];\r\n        UserInfo storage user = userInfo[_pid][msg.sender];\r\n        uint256 _amount = user.amount;\r\n        user.amount = 0;\r\n        user.rewardDebt = 0;\r\n        pool.token.safeTransfer(msg.sender, _amount);\r\n        emit EmergencyWithdraw(msg.sender, _pid, _amount);\r\n    }\r\n\r\n    // Safe tshare transfer function, just in case if rounding error causes pool to not have enough tSHAREs.\r\n    function safeTShareTransfer(address _to, uint256 _amount) internal {\r\n        uint256 _tshareBal = tshare.balanceOf(address(this));\r\n        if (_tshareBal > 0) {\r\n            if (_amount > _tshareBal) {\r\n                tshare.safeTransfer(_to, _tshareBal);\r\n            } else {\r\n                tshare.safeTransfer(_to, _amount);\r\n            }\r\n        }\r\n    }\r\n\r\n    function setOperator(address _operator) external onlyOperator {\r\n        operator = _operator;\r\n    }\r\n\r\n    function governanceRecoverUnsupported(IERC20 _token, uint256 amount, address to) external onlyOperator {\r\n        if (block.timestamp < poolEndTime + 90 days) {\r\n            // do not allow to drain core token (tSHARE or lps) if less than 90 days after pool ends\r\n            require(_token != tshare, \"tshare\");\r\n            uint256 length = poolInfo.length;\r\n            for (uint256 pid = 0; pid < length; ++pid) {\r\n                PoolInfo storage pool = poolInfo[pid];\r\n                require(_token != pool.token, \"pool.token\");\r\n            }\r\n        }\r\n        _token.safeTransfer(to, amount);\r\n    }\r\n}",
  "sourcePath": "C:\\Users\\kiera\\Desktop\\New folder\\TombFork\\contracts\\TShareRewardPool.sol",
  "compiler": {
    "name": "solc",
    "version": "0.6.12+commit.27d51765.Emscripten.clang"
  },
  "schemaVersion": "3.4.3",
  "updatedAt": "2022-04-09T16:42:15.039Z",
  "networkType": "ethereum",
  "devdoc": {
    "kind": "dev",
    "methods": {},
    "version": 1
  },
  "userdoc": {
    "kind": "user",
    "methods": {},
    "version": 1
  }
}